:020000040800F2
:1000000000800020290B0008710B0008710B00080C
:10001000710B0008710B0008710B00080000000054
:10002000000000000000000000000000710B00084C
:10003000710B000800000000710B0008710B000834
:10004000710B0008710B0008710B0008710B0008A0
:10005000710B0008710B0008710B0008710B000890
:10006000710B0008710B0008710B0008710B000880
:10007000710B0008710B0008710B0008710B000870
:10008000710B0008710B0008710B0008710B000860
:10009000710B0008710B0008710B0008710B000850
:1000A000710B0008710B0008710B0008710B000840
:1000B000710B0008710B0008710B0008710B000830
:1000C000710B0008710B0008710B0008710B000820
:1000D000710B0008710B0008710B0008710B000810
:1000E000710B0008710B0008710B00080000000084
:1000F0000000000000000000000000000000000000
:1001000000000000710B0008710B000800000000E7
:10011000710B0008710B00080000000000000000D7
:10012000710B0008710B0008710B0008710B0008BF
:1001300000000000000000000000000000000000BF
:10014000000000000000000000000000710B00082B
:100150000000000000000000710B0008710B000897
:10016000000000000000000000000000710B00080B
:100170000348044B834202D0034B03B11847704736
:100180000000002000000020000000000548064B91
:100190001B1AD90F01EBA301491002D0034B03B185
:1001A00018477047000000200000002000000000F9
:1001B00010B5064C237843B9FFF7DAFF044B13B1AF
:1001C0000448AFF300800123237010BD000000201D
:1001D00000000000DC0B000808B5054B1BB1054909
:1001E0000548AFF30080BDE80840FFF7CFBF00BF70
:1001F0000000000004000020DC0B0008024AD36865
:1002000083F48063D3607047000C0140013800D252
:10021000704700BFFAE7000070B506460025B469D4
:10022000AC4201D8012070BD641BB4F5807F28BFAB
:100230004FF4807405F5F9100949224600F58070E5
:1002400000F04AFA05F100610548224601F5005127
:1002500000F08FFC10B905F58075E0E70020E2E7BB
:100260001C0000202DE9F04F012191B0984800F0CA
:10027000F7FA04A800F05CFB002396488DF81430D0
:100280004FF480644FF4047304A9ADF8163004945D
:1002900000F0FBFA8F48214600F052FB00F0B0F965
:1002A000002860D0302204A94FF4F91000F014FAAD
:1002B00004A800F047FA8046002854D004A8FFF7AD
:1002C000ABFF044600284ED106460A9DA5422CD815
:1002D0000B9B9E4247D1804F4FF003094FF0FF33F5
:1002E000CDE9023300F0E4FB7C4D44464AF6AA26F1
:1002F0000A9B03F1006303F500539D4260D34FF066
:10030000000A0A9D554540F2B080002C69D100F0EA
:10031000DBFB0020B9F1010901D00028DED06D48D7
:100320004FF4806100F00CFB1DE02D1BB5F5807FC4
:1003300028BF4FF4807504F5F91069492A4600F585
:10034000807000F0C9F944B1304665492A4600F092
:10035000DFF904F580740646B7E70A99604800F0B3
:1003600021FA0028F0D15D4C4FF4F031204600F026
:1003700019FA002800F097805A48012100F083FA0A
:100380005848002100F07FFA5748012100F07BFA1D
:100390005548002100F077FA5448002100F060FA37
:1003A0004B48002100F05CFA5149236862688C6078
:1003B000BFF34F8FBFF36F8F83F308881047FEE7BB
:1003C000002C9CD034203E60FFF718FF00F046FB65
:1003D000284600F081FBC21E5442544105F5806559
:1003E00086E7A5EB0A05B5F5807F28BF4FF4807539
:1003F0000AF5F9103A493A4E2A4600F5807000F0A5
:100400006BF94AF6AA233B60D346354BF11AA94251
:1004100000D214B90AF5807A73E7B17870780904CC
:1004200041EA002130780143F078BBF1070F41EA3F
:1004300000610BD82BF0030000F140030DEB03002B
:1004400040F8381C0BF1040B0436DEE73420019130
:1004500000F004FB0BF10060019900F5005000F082
:1004600051FBC31E5C425C41ECE7002C3FF44FAFF4
:10047000342000F0F3FA03991E4800F043FB0328F0
:100480007FF445AF342000F0E9FA0299134800F0F8
:1004900039FB044600F018FB032C7FF43AAF04A8A4
:1004A000FFF7BAFE36E71448FFF7A8FEFFF7AEFEE7
:1004B0001148FFF7A3FEFFF7A9FE0F48FFF79EFEC6
:1004C000FFF7A4FE0D48FFF799FEFFF79FFEEAE74E
:1004D00003001800000C014000300040002000081C
:1004E0001C0000200E00100003000C000E001C0079
:1004F00000ED00E004200008F0490200A0BB0D0060
:1005000002484FF4805100F01BBA00BF000C0140BC
:1005100002484FF4805100F015BA00BF000C0140B2
:1005200038B50E4D04460E48022100F090FA70B125
:1005300021460B48094C00F085FA0948012100F0DA
:1005400086FA40B1064800F07FFAC0B202E0013DF1
:10055000E9D1FF2038BD013CEFD1FAE740420F005E
:100560000038004010B50446FFF7D2FF2046FFF7E1
:10057000D7FFBDE81040FFF7C3BF10B50446C0F376
:100580000740FFF7CDFFC4F30720FFF7C9FFE0B234
:10059000BDE81040FFF7C4BF38B50A4DFFF7B8FFFC
:1005A0000520FFF7BDFF0020FFF7BAFF0446FFF765
:1005B000A7FFE30704D5013DF0D1034B01221A70D8
:1005C00038BD00BF80841E001C01002070B5FFF7FD
:1005D0009FFF9F20FFF7A4FF0020FFF7A1FF064623
:1005E0000020FFF79DFF04460020FFF799FF24023B
:1005F000054644EA0644FFF783FF44EA050070BD60
:1006000013B52E48012100F02BF901212C4800F0F0
:1006100027F9684600F08CF92A4B2B484FF480529A
:100620006946CDE9002300F030F9FFF769FF4FF488
:10063000204300936946082323488DF8063000F0D4
:1006400024F94FF4804369460093002418231E4880
:100650008DF805308DF8064000F017F9684600F077
:1006600073F91A491A484FF08073CDE900136946AF
:1006700000F075F91648012100F0DAF9012114485B
:1006800000F0DBF90620FFF76DFFFFF741FF502078
:10069000FFF746FFFFF734FFFFF73AFF0120FFF7B0
:1006A0003FFF2046FFF73CFFFFF72AFFFFF78EFFD3
:1006B000084BC41A6042604102B010BD030018002C
:1006C0000E001C0000041002000C0140000101009B
:1006D000003800404125BF0070B50C46154606465F
:1006E000FFF75AFFFFF714FF0320FFF719FF30460B
:1006F000FFF743FF2544AC4203D1BDE87040FFF74C
:10070000FFBE0020FFF70CFF04F8010BF3E7000029
:1007100010B50B4CC0430A44914201D1C04310BDF7
:1007200011F8013B584000F00F0354F8233083EADE
:10073000101303F00F0054F8200080EA1310EBE7C9
:10074000080C000870B515490822054600F011FA9A
:100750000646F8B908221249A81800F00AFA044619
:10076000D0B92B69012B12D12C222946FFF7D0FFDB
:10077000EB6A98420BD1AB694CF6F862A3F1080121
:10078000914204D803F00303B3FA83F4640904F03C
:10079000010070BD0024FAE73446F8E7F40B0008C6
:1007A000FD0B00080368024603F160400138B0F514
:1007B000004F12D213F003000FD1536813F001025F
:1007C0000DD0084A93420BD901F1006101F50051A7
:1007D000994294BF002001207047002070471046C6
:1007E000704700BF002000081A4B1B49DA6942F02D
:1007F0008052DA6191F8502042F0040281F85020D2
:10080000DA6922F08052DA611A6842F001021A6055
:100810001A689207FCD55A6822F003025A605A6897
:1008200012F00C0FC2F38101F9D11A6822F086721E
:1008300022F480321A6041F610725960DA624FF485
:1008400080121A634FF41F029A60044B4FF000624B
:100850009A607047001002400070004000ED00E018
:10086000030C03F1804303F50433012900F01F005A
:1008700019684FF0010202FA00F20CBF0A4321EAA4
:1008800002021A607047FFF7EBBFF0B58C790A6877
:10089000032C95B24AD0002C3DD14B79182B02D1B4
:1008A0000561082303E0282B32D003F00F03D1B2F7
:1008B000A9B1002492B20F2742FA04F1C9070BD55F
:1008C0000668A10007FA01FC26EA0C060660066825
:1008D00003FA01F1314301600134082CECD1FF2D02
:1008E00015D92D0A00210F2645FA01F2D2070BD5A2
:1008F00044688A0006FA02F724EA07044460446860
:1009000003FA02F22243426001310829ECD1F0BD22
:1009100093B24361C5E70B79C97903F0040304F08E
:100920000804234301F003010B43C0E70023BEE7A3
:10093000024B4FF6FF72C0E900237047000400012C
:1009400001617047416170470023037043708370F9
:10095000C3700371437183710123C3717047C3690D
:1009600023F40063C3610B78032B1BD8DFE803F08B
:10097000020E5054036823F400430360036823F419
:1009800080430360036823F480630AE0036823F470
:1009900000430360036823F480430360036843F467
:1009A00080630360CB79026863F3492202604A786E
:1009B000012A39D1012B37D1036843F480730360D6
:1009C000036862F3820303608B7803F00702072B4E
:1009D00043688CBF43F4807323F4807343600368DF
:1009E00062F3C50303600368CA7862F3C713036048
:1009F00003680A7962F3CB2303604A79036862F3E0
:100A0000410303608A79036862F30003036070475F
:100A1000036843F40043B0E7036843F40043036012
:100A2000036843F48043ACE7036823F48073C6E7AC
:100A3000036861F3082303607047036861F386135A
:100A400003607047C1607047C06880B270478068BB
:100A50000840003818BF012070470000014BD860E3
:100A6000704700BF00200240084BDA68D10709D464
:100A7000DA68520708D4D868C0F30010C0F1030048
:100A8000C0B270470020704701207047002002402C
:100A900010B50446FFF7E8FF30B90CB9042010BDCB
:100AA000FFF7E2FF013CF7E7002C08BF0420F6E760
:100AB000034B044A5A6002F188325A60704700BF03
:100AC0000020024023016745024A136943F0800376
:100AD000136170470020024010B5094C236943F0B0
:100AE000020323616061236943F0400323614FF0F7
:100AF0008040FFF7CDFF236923F00203236110BD7F
:100B00000020024010B5074C236943F00103236124
:100B100001604FF48010FFF7BBFF236923F001034E
:100B2000236110BD00200240002103E00B4B5B5805
:100B3000435004310A480B4B42189A42F6D30A4AF2
:100B400002E0002342F8043B084B9A42F9D3FFF736
:100B50004BFE00F01FF8FFF785FB7047500C0008B4
:100B600000000020000000200000002020010020E4
:100B7000FEE710B501390244904201D1002005E0A2
:100B8000037811F8014FA34201D0181B10BD0130AA
:100B9000F2E7000070B50D4B0D4D5B1B9C1000265D
:100BA000A64209D100F01AF80A4D0B4B5B1B9C10B2
:100BB0000026A64205D170BD55F8043B9847013682
:100BC000EEE755F8043B98470136F2E7480C000879
:100BD000480C0008480C00084C0C0008F8B500BF91
:100BE000F8BC08BC9E467047F8B500BFF8BC08BC0E
:040BF0009E46704766
:100BF400544453464C555044005346524332442EB9
:100C040042000000000000006410B71DC8206E3BC5
:100C1400AC30D9269041DC76F4516B6B5861B24DFF
:100C24003C7105502083B8ED44930FF0E8A3D6D669
:100C34008CB361CBB0C2649BD4D2D38678E20AA0D1
:040C44001CF2BDBD24
:040C4800D9010008C6
:040C4C00B1010008EA
:0400000508000B29BB
:020000040800F2
:10200000008000201DC4000865C4000865C40008E5
:1020100065C4000865C4000865C40008000000002D
:1020200000000000000000000000000065C400087F
:1020300065C400080000000065C40008DD44000815
:1020400065C4000865C4000865C4000865C40008CC
:1020500065C4000865C400083544000885430008CD
:1020600065C4000865C4000865C4000865C40008AC
:1020700025410008BD40000865C4000865C400088B
:1020800065C4000865C4000865C4000865C400088C
:1020900065C4000865C4000865C4000899410008CB
:1020A00065C4000865C4000865C4000865C400086C
:1020B00065C4000865C4000865C4000865C400085C
:1020C00065C4000865C4000865C4000865C400084C
:1020D00065C4000865C4000865C4000865C400083C
:1020E00065C4000865C4000865C40008000000005D
:1020F00000000000000000000000000000000000E0
:102100000000000065C4000865C40008000000006D
:1021100065C4000865C4000800000000000000005D
:1021200065C4000865C4000865C4000865C40008EB
:10213000000000000000000000000000000000009F
:10214000000000000000000000000000A15B00088B
:10215000000000000000000065C4000865C400081D
:1021600000000000000000000000000065C400083E
:1021700053B94AB9002908BF00281CBF4FF0FF31EE
:102180004FF0FF3000F00CB8ADF1080C6DE904CE53
:102190000AF06AF9DDF804E0DDE9022304B07047D3
:1021A000704700BF034613F8012B002AFBD1181A11
:1021B000013870470348044B834202D0034B03B1FC
:1021C00018477047700000207000002000000000D9
:1021D0000548064B1B1AD90F01EBA301491002D089
:1021E000034B03B1184770477000002070000020B7
:1021F0000000000010B5064C237843B9FFF7DAFF62
:10220000044B13B10448AFF300800123237010BDC9
:10221000700000200000000058C8000808B5054BF9
:102220001BB105490548AFF30080BDE80840FFF742
:10223000CFBF00BF000000007400002058C8000895
:1022400010B5064B064A1968013800D210BD546813
:1022500053681B1B8B42FBD3F6E700BF94000020A2
:10226000001000E002484FF4806104F057BF00BF47
:10227000000C014002484FF4806104F04DBF00BFE4
:10228000000C0140034BDB685B0501D5FFF7EABF9B
:10229000FFF7F0BF000C0140044B00221A60044B12
:1022A000187008B1FFF7DEBFFFF7E4BF8C00002015
:1022B00090000020064B1B784BB1064A136801338F
:1022C0007C2B136003D900231360FFF7DBBF70473B
:1022D000900000208C00002037B5284A2848D2F80A
:1022E000FC3043F08073C2F8FC30A2F55D4200245C
:1022F00054601168234B41F0010111601A684FF4DA
:102300007A73B2FBF3F2204B01211A6004F051FC06
:10231000684604F0F9FE1D4B1D484FF48065694680
:10232000CDE9005304F09CFE2946194804F0F4FE60
:102330001848012104F03DFC0121174804F039FC44
:10234000684604F0E1FE154B15484FF400726946EB
:10235000CDE9002304F084FE2346224611484FF4C1
:10236000E13105F063F90F48012105F092F90D48BC
:10237000012105F089F903B030BD00BF00ED00E098
:1023800003001800540000209400002000041002F4
:10239000000C0140020018000E00180000040802A2
:1023A0000008014000380140024B9868C043C0F368
:1023B000C1107047001001400A4A08B5536843F441
:1023C00080735360012005F01BFB062005F010FB15
:1023D00040F6C31005F006FB05F0FCFABDE8084026
:1023E00005F0F0BA002004E030B4144D144A296816
:1023F0001448154CA0FB0130136801331360134BD4
:1024000020F0010202EB50028A1A481CD9612168AF
:1024100028608A420E499A604FF0FF0008BF0D689D
:1024200020604FF0000218BF002501201D610A60E6
:1024300030BC1A625A61D860704700BFC8020020E1
:10244000CC020020ABAAAAAA00000020980000201D
:10245000C002002070B50C4601F51055461A03E085
:1024600004F58074AC4215D00B494FF480722046BD
:1024700003F012F909494FF48072301903F00CF996
:10248000064905484FF480720AF06AF90028E7D03F
:10249000002070BD012070BDC0010020C0000020E0
:1024A00010B50D4C94F800C0BCF1000F0CBF4FF0FC
:1024B000120C4FF0090C8E4611461A46B0FBFCF385
:1024C0000CFB1300400203EB430300EB03307044AA
:1024D000BDE8104003F0A6B9DC020020094B1B78D0
:1024E000002B0CBF12220922B0FBF2F302FB1300F7
:1024F000400203EB43034FF4007200EB033003F0A0
:10250000CBB800BFDC020020014B1878704700BF39
:10251000DC020020094B1B78002B0CBF1222092281
:10252000B0FBF2F302FB1300400203EB43034FF452
:10253000007200EB033003F0AFB800BFDC020020F4
:1025400010B50D4C94F800C0BCF1000F0CBF4FF05B
:10255000120C4FF0090C8E4611461A46B0FBFCF3E4
:102560000CFB1300400203EB430300EB0330704409
:10257000BDE8104003F056B9DC02002000EB40003B
:102580004FF41052000303F087B800BF054B002240
:1025900040F2011CC3E90010C3E90522A3F824C0DE
:1025A000DA60704798000020014B93F825007047CF
:1025B00098000020024B187800B1704702F0C6BFA7
:1025C000C40200202DE9F0418E4C94F8246084B0C0
:1025D000EEB1D4E9012303EB43031D0302EB4203F5
:1025E0001F03E36805F5F318062B00F2DA80DFE835
:1025F00003F02B04466881AC130003F0A7F830B950
:102600002369022B40F2B5800223E360606100265B
:10261000304604B0BDE8F08103F098F80546002884
:10262000F5D163692168D81919444FF4807203F019
:10263000F9F8636903F58073B3F5105F6361E6D35E
:102640000723E3606561E2E760696F4938444FF44E
:10265000807203F021F8656921686B484FF480723D
:1026600029440AF07DF800286CD105F58075B5F590
:10267000105F6561CBD3002384F82430C8E703F0F2
:1026800065F805460028C2D16369216803EB08009C
:1026900019444FF4807203F0C5F863692168206A19
:1026A00019444FF4807203F0F7F96369206203F56F
:1026B0008073B3F5105F6361A9D30323E3606561A1
:1026C000A5E76069504940444FF4807202F0E4FF8E
:1026D000656921684C484FF4807229440AF040F83B
:1026E00058BB05F58075B5F5105F65618FD3042380
:1026F000E3608CE7454B0093ADF80420E369206A62
:1027000002930C2269464FF00008ADF8068003F0F2
:10271000C3F905F5F4153C4F039005F5806569464E
:102720001022284603F07EF810222846394602F08F
:10273000B3FF3A68009B9A4223D0A3690133022B6E
:10274000A36149D8FFF750FE61E702F0FFFF0028C0
:102750007FF45DAF2369022B03D90623E360606138
:1027600055E707EB033002F0C3FF23690133236110
:102770004DE708EB033002F0BBFF2369013323610F
:1027800045E77A68019B9A42D7D1BA68029B9A4280
:10279000D3D1FA68039B9A42CFD10523C4E9033809
:1027A00035E76069184938444FF4807202F074FFCD
:1027B0006569216814484FF48072294409F0D0FFFC
:1027C00028B9134A134B12689A427FF44EAFA3699B
:1027D0000133022BA3610ED90F4B1A780021A1847B
:1027E000002A7FF415AF01240C490D481C70082203
:1027F00003F018F80CE700230522C4E90323636102
:1028000005E700BF98000020C0010020544A4E3167
:10281000D802002011FA11FAC402002094C800085E
:1028200040F01E0038B5154B93F8243003B138BD85
:1028300002F08CFF0028FAD1114A124B1268124D97
:10284000124CA3FB021323F0010101EB530329688F
:10285000D21A91420DD02A60206002EB420200EBB6
:10286000023000F5F31002F043FF236801332360C8
:1028700038BD20680228DAD80003EEE7980000206F
:10288000C8020020ABAAAAAA00000020C0020020B3
:1028900010B502F0A3FF0548054C0649064A00237F
:1028A0000360032023600860137010BDC80200207D
:1028B00000000020C0020020C402002008B5084B20
:1028C0001B7833B9BDE8084006490748082202F0E2
:1028D000A9BF06490648082202F0A4FFF2E700BF9C
:1028E000DC0200209CC8000800F01E008CC8000814
:1028F00020F01E0070B5154E3378834217D0144C6B
:1029000094F8243005462BB1FFF75CFE94F8243090
:10291000002BF9D165B90F4802F030FF0E4B1B7840
:102920006BB90E490B48082202F07CFF357070BD70
:102930000B490C48082202F075FF3570F7E70A4989
:102940000A48082202F06EFFEBE700BFDC0200201D
:102950009800002000F01E00C40200209CC800085F
:102960008CC8000820F01E0094C8000840F01E002B
:1029700038B502F05DF920B3044602F02FFF11498B
:10298000114A124D124800230B60032111601149B6
:1029900003600B702A781049204600F065FB204642
:1029A00000F014FC2B7833B9BDE838400B490C48D3
:1029B000082202F037BF0B490B48082202F032FF11
:1029C000F2E738BD00000020C0020020DC02002039
:1029D000C8020020C402002080C800089CC800086B
:1029E00000F01E008CC8000820F01E002DE9F04FFA
:1029F000BB4D8BB00026032402AFBA4808223946EB
:102A000002F04AFE3B68AB4200F08C80013CF4D1FE
:102A1000082239464FF4105002F03EFEB04B029AA5
:102A20009A4200F01A81082239464FF4105002F001
:102A300033FEAD4B029A9A4200F0248102F0F8F87E
:102A4000AA4900F00DFE002800F022810822A848C3
:102A5000394602F021FEA24B029A9A4200F03581DB
:102A6000012400202022394602F016FEBDF81B305A
:102A70009C48B3F5B46F00F01B8102F07FFE002C80
:102A800000F0108108229B49964802F0CBFE9A4A3A
:102A900013680133136008229548394602F0FCFDA3
:102AA0008F4B029A9A4200F0CB8008229348394615
:102AB00002F0F2FD924B029A9A4200F0B580012298
:102AC0009048DFF844B2DFF84492B2FA82F2520939
:102AD0004FF0000A0270D04610223946584602F0E4
:102AE000DBFD029B4B450DD1BDF80C30A12B09D865
:102AF000BDF80E3033B9BAF1000F19D0049B009A1B
:102B00009A4215D308F10108B8F1030F0BF5405BA9
:102B1000E2D17F4BBAF1000F34D1C3F800A00BB063
:102B2000BDE8F08F7B4B7A689A427FF46FAFB2E7D3
:102B3000ABF510550024284677494FF4807202F017
:102B4000ABFD204674494FF4807202F0A5FF05F5F5
:102B500080755D450446EED10C22394602F09CFF9B
:102B6000059B9842CED1049BBDF80C60CDE900389E
:102B700008F10108B8F1030F4FF0010A0BF5405BB3
:102B8000AAD1C6E7019C009A04EB44052D0306EB8D
:102B9000460905F5F3174FEA093901323946484627
:102BA0001A60FFF757FC0028B9D1361B06EB460622
:102BB00005F5F415360305F58065A6F5F31609F558
:102BC000805B09F5005A484602F0D8FD584602F0ED
:102BD000D5FD504602F0D2FD3C4620464E494FF40A
:102BE000807202F059FD30194B494FF4807204F5A0
:102BF000807402F017FEA542EFD139464846FFF730
:102C000029FC002849D1B8F10108DCD1434B1A78DE
:102C1000002A84D142493648012408221C700BB096
:102C2000BDE8F04F02F0FEBDA3F1A1537A68A3F511
:102C30008633A3F588739A427FF441AF00223FE7C1
:102C400003F15F637A6803F51123ED339A427FF451
:102C50002CAF324B01221A7027E7324B7A689A4226
:102C60007FF4E1AE4FF4F314204604F5805402F0F3
:102C700085FDB4F5F81FF7D11E491A48082202F065
:102C8000D1FD08E7284B7A689A427FF4D7AEE9E78E
:102C90000BB0BDE8F04FFFF76BBE244A1368013359
:102CA00013603CE71E491248082202F0BBFDE9E62A
:102CB0009DF81530022B7FF4E0AE02F05FFD1C4959
:102CC0000E48082202F0AEFDD9E603F15F637A6890
:102CD00003F51123ED339A427FF4C2AE0024C0E61F
:102CE0005444534600F01E0047544B4280C800082D
:102CF00040F01E009CC80008D002002020F01E00FA
:102D000054445344DC02002000841E00544A4E31D7
:102D1000C802002042554632C0010020C4020020F3
:102D200094C800084255463155463031D40200203F
:102D30008CC800080346408801F00301884216D081
:102D4000002259809A601A889888E2B11043032AB9
:102D5000988015D11A7C42B9DA6840F6B731013251
:102D60008A42DA6084BF01221A74002070479A6890
:102D70001D2AE8D801321E2A9A6008BF1880E2E7AF
:102D80000022DA60F1E70028EFD01A7C4AB9421E2F
:102D900092B2022A28BF002000229A80DA601A74B8
:102DA00070474FF48070F7E701F0030100230180C2
:102DB0004180C91A18BF01211E22C901C0E902239E
:102DC000037481807047000010B503F0ADFE194B0D
:102DD000142201211A60084603F0FEFE03F0D9FE1A
:102DE0000028FBD02321022003F042FF0121022012
:102DF00003F0F2FE192003F0BDFE01280446F9D1CC
:102E0000002003F00FFF042003F01CFF042003F058
:102E100011FF204604F004F8022003F055FF03F0F0
:102E20006FFF0228FBD1002003F0FAFFBDE810403D
:102E300003F018BE00200240EB2330B53B4C03707A
:102E40003C234370902383702368C0F80330636889
:102E5000C0F8073000239942C372C37383740CBF58
:102E60004FF434634FF4B463C3744FEA13234FF049
:102E70000204037514BF03230923047304748375C8
:102E800008BFE0244FF0000318BF7024447414BF3F
:102E9000F924F024994201F101050CBF1221092106
:102EA0004573017601250221C3754376C376037706
:102EB00043778377C37780F8203080F8213085739B
:102EC0004475817680F8223080F8233080F82430F1
:102ED000292380F82630782380F82730562380F87D
:102EE0002830342380F82930122380F82A30104B00
:102EF000002A08BF1A461368C0F82B305368C0F880
:102F00002F301389A0F83330937A0A4A80F835308D
:102F10001368C0F836305368C0F83A30552380F84B
:102F2000FE31AA2380F8FF3130BD00BFB0C80008D1
:102F3000A4C80008B9C8000870B504460D46164676
:102F400000214FF4007209F01BFC3246294620464E
:102F5000BDE87040FFF770BF00687047C3698B42DF
:102F600070B504460D4600F1200605D0036882685E
:102F7000314628469847E561304670BD30B549B9BD
:102F800090F8342D124B0C2101FB0233D87A40F417
:102F9000706030BD012918D0C58900221430AA42C2
:102FA00001D30020F5E7B0F8C0315BB10488A1423D
:102FB00008D32344994205D2013B994205D00131FF
:102FC00088B2E6E701320230E9E740F6FF70E0E759
:102FD0000EC90008A0F16103192B02D82038C0B235
:102FE0007047A0F14103DBB2192B38D9A0F13003AF
:102FF000DBB2092B33D920282ED02E282CD0030663
:103000002CD4402814D8222803D8212818BF002007
:103010007047A0F12302D2B201239340104A134219
:103020001DD1104A1A40002A0CBF00205F207047B3
:10303000602808D85D2812D85B280FD05D2814BFFF
:1030400000205F2070477B2809D0A0F17D03DBB210
:10305000022B28BF00207047002070475F20704778
:103060007F0400200003000570B50D4616460021C0
:1030700040F63852044609F083FB95E80700022326
:1030800084E8070084F8346DA38170BD02460F4BBD
:1030900090F8340D30B50C2404FB0033D489188922
:1030A000844210D292899C7ADB88481E023A6502DB
:1030B00000EB4420B0FBF5F012FA80F098428CBF90
:1030C0000020012030BD0020FCE700BF0EC9000831
:1030D000F8B505460C461646FFF7D8FFE0B195F85F
:1030E000343D0E4A0C2101FB0322631E977AAC8902
:1030F000790203EB4723B3FBF1F39BB2002B14BF20
:10310000214600211C446B8229829388AC8109B13D
:10311000023979430B443360F8BD00BF0EC9000883
:10312000F0B504468BB00D46086849680992002640
:1031300002AF059603C79C462989AB7A94F8340DF3
:103140003980E289ADF81C60BB700C27218AADF88C
:10315000221078431C4FADF818C051011209ADF888
:103160001AC0ADF820C037F800C0BDF840E0ADF897
:1031700016E0501CA268009220238DF8133002AA9A
:103180006768ADF81EE001F4F07100EB4C00B84741
:10319000E389218A04EB43029182618AA2F8D41167
:1031A0000B22534303F565732968E150E2186968FF
:1031B00051602B891381AB7A9372E3896682013364
:1031C000E3810BB0F0BD00BF0EC900082DE9F04F40
:1031D0000446ADF5057D90F8341D444E002204A848
:1031E000FFF7AAFEA3680093002165684FF40073FF
:1031F00004AA0846A847002594F8343D4FF00C086F
:1032000008FB03F3F35AAB4214D84FF400720021C9
:1032100004A809F0B5FAE5896D0194F8343D08FB7E
:1032200003F3F2185288B5EB422F4DD30DF5057D0F
:10323000BDE8F08F4FEA452904AF05F1010809F513
:10324000007A4FF0030B4FEA49012046B1FBFBF136
:103250000391FFF793FE0399CA07034631D4244A2A
:1032600002FB09F0B0F1553F20D8DBB209F10109AA
:10327000CA4507F8013BE6D1A368009367684FF49D
:10328000007304AA00214046B84794F8343D0C224C
:1032900053430021F05AA368009301302844676823
:1032A0004FF4007304AAB8474546A5E7013120460C
:1032B0000393FFF763FE039B000140EA1320C3B2B0
:1032C000D4E7C0F30713D1E7F05AA3680093C5F31E
:1032D00008014000C1F50079013000EB5520676816
:1032E0004B4604AAB8474D4497E700BF0EC90008F3
:1032F000ABAAAAAAF8B54FF408720D4600210446FD
:1033000009F03EFA95E807004FF0FF3384E8070024
:10331000E36100212046FFF721FEB0F8133001469B
:103320001BB92030FFF718FE034691F8FE21552AFD
:1033300001D00020F8BD91F8FF21AA2AF9D1B1F8F7
:103340000B20B2F5007FF4D14E7B721E012AF0D81B
:10335000CA89002AEDD00F7C002FEAD0C88A002845
:10336000E7D0B1F8115005F1FF3CBCF5806FE0D219
:10337000A3F1640E40F6DC2CE645DAD817FB00F723
:10338000A28125823A446D0192B205F2FF15E281D5
:1033900002EB552292B26282A675497DE1759A428E
:1033A000C7D29B1AB3FBF6F301339BB28002032210
:1033B000B0FBF2F0834202D2A3820120BAE70138C7
:1033C000A082FAE7F8B505460C462B8B2A8A9A426A
:1033D0000FD9E9895A1C01EB13112A8328465E0193
:1033E000FFF7BCFDC6F308028318815C19B92B8A6C
:1033F0002B83002025E0E529E7D02E29E5D0DE7AD1
:1034000006F00F070F2FE0D016F0180FDDD182580D
:1034100022605A6862601A8922819A7AA27205290A
:1034200004BFE5222270DA7AE272DA8A22821A8BEB
:10343000E2815A8BA28103F11C00FFF78DFD6061D0
:103440000120F8BD0129F8B506460F4602D9838A46
:103450008B4201D20020F8BD01EB5105818901EBBF
:103460005521FFF77BFDC5F30803B189C45C013525
:1034700001EB55213046FFF771FDC5F30805435DAB
:1034800044EA032000B2FB074CBFC0F30B10C0F3AB
:103490000B000128DED9B38A8342DBD3DBE7837DCF
:1034A0000139580201EB4321B1FBF0F070478B89E1
:1034B0000380002383704B6943607047F8B54D6803
:1034C0000C46DDB10988012920D9838A8B421DD39E
:1034D000A378458A877D1D448E1E07FB065515601F
:1034E00062680133B2F5007F1546DBB228BF4FF4A6
:1034F0000075521BBB42626002D2A3702846F8BD21
:103500000023A370FFF79EFF2080F7E70025F5E773
:10351000002303604360038170470023012AC1F840
:103520000230C1F806300A8006D9838A934203D359
:1035300001234A80CB80704701230B7270472DE92D
:10354000F04106460C46154600272388DBB9237A4E
:10355000CBB9A388328A9A422CD9F1895A1C01EB43
:103560001311A28030464FEA4318FFF7F7FCC8F367
:10357000080800EB08031A78002A33D123887BBBA4
:10358000338AA38016E06188A1B1A288B37DB2EB33
:10359000031F13D33046FFF755FFA7800146608015
:1035A00040B1E38801339BB2802BE38005D901232E
:1035B000237267800020BDE8F0810022738A881E94
:1035C000B17D03EB121301FB00313046FFF7C6FC5F
:1035D000A28802F00F03013200EB4313A280CAE776
:1035E0006280E7E7E52AB0D02E2AAED0D97A01F082
:1035F0000F000F28A9D00907A7D4196829605968B6
:10360000696019892981052A997AA97204BFE5227E
:103610002A70DA7AEA72DA8A2A821A8BEA815A8B5B
:10362000AA81DA7AD20606D403F11C00FFF794FCD3
:1036300068610120BFE70020FAE770B5054616462D
:103640000024012904D9AB8A8B4201D3B44201D1B1
:10365000204670BD2846FFF7F5FE01340146F0E72D
:103660002DE9F74F04460E46FFF744FE054638B3F2
:10367000A289E389DFF84CA09B1A02EB5303CDE942
:103680000023E846002704F1200958F804BB3368FA
:10369000B26849465846984794F82020E37DC4F81C
:1036A0001CB09A420CD1236A3AEA030308D17B1C6E
:1036B000022B4FF00107E8D1284603B0BDE8F08F98
:1036C0000025F9E700FFFF00F8B5C7890E4600F5B1
:1036D00065740025AF4201D80020F8BD20460B22BA
:1036E000314609F03DF80B3408B10135F2E701200D
:1036F000F3E72DE9F0434FF0203385B004465360E3
:103700001360C2F807300F461646034600251A78A4
:1037100072B9A5B92046FEF745FD04EB0008002F5D
:103720003FD123782E2B0CD1002005B0BDE8F083CB
:103730002E2A02D1A34218BF1D460133E7E7A8464F
:10374000EDE7A045F0D0A8EB0403082BECDC711EDC
:10375000A04502D87DB90120E7E714F8017B38467F
:10376000FFF738FC0028DFD05F2801D15F2FDBD1C5
:1037700001F8010FECE7681CFEF714FD0328D3D80D
:10378000073615F8011F0029E5D00846FFF722FC8F
:103790000028C9D05F2801D15F29C5D106F8010FE3
:1037A000EFE76A460023EC460A20B7FBF0FE00FB79
:1037B0001E71303102F8011B3946092999467746B6
:1037C00003F1010303D9042BEFD14FF003097E224B
:1037D0008DF808201F4602AA013F1CF8071002F8C6
:1037E000011F002FF8D1C3F10701A045234620D9BE
:1037F0008F4215D309F1020202A9F01909F010F85D
:10380000002DA8D0082115F8010F0028A3D00B29FE
:10381000A1D0FFF7DFFB0028F5D070540131F2E7AB
:1038200018780134FFF7D6FB0028DED0F0550137B9
:10383000DBE7002FDED15F2333700127DAE70000DA
:10384000F8B5EFF3108472B63E4B1B78E3B13E4BF4
:103850001A7802F0FF0332BB3C4A1278402742B389
:103860003B4A127843F0200189B2002A4BD0394EEE
:103870003278002A60D043F0A803374899B203F0A9
:103880004DFC37B3402520E003F0FF02334B3248B4
:103890001A604FF4F47103F03FFC0022304B9A633E
:1038A00084F31088F8BD294A127800274023002AA3
:1038B000D6D1274A127847F02005BAB9254E32787A
:1038C0004ABB47F0A805002B39D12348294603F00D
:1038D00023FC3378002BE0D0224B1B68002BDCD17B
:1038E000214B1B78002BD8D13A22D7E7194E3278DA
:1038F000DAB943F0800145F0080589B2ADB2164847
:1039000003F00CFCE1E7134E337813B947F0880558
:10391000F5E73D460B4643F008030F4845F08005A8
:1039200099B2ADB203F0FAFBCFE743F088030A483F
:1039300099B203F0F3FBC8E73D460B46D9E74021B7
:10394000DDE700BFDB5900201D000020D959002011
:103950001C000020D8590020000C0140CC59002048
:1039600000040040D4590020DA5900202DE9F84F16
:103970003C4A3D4BD2F804A01B78804689461BB1D7
:103980003A4A136801331360394EDFF8E8B0002378
:103990003370394BDBF8001083F80080374B83F825
:1039A0000090374B1B7809EB48001BB1354B1B6867
:1039B00083422FD0FEF7E2FD334F0024DBF80000F6
:1039C0003D6800EB042001F075FC28530234242CE0
:1039D000F4D12E4A234B12682D48012131702D4914
:1039E0005B68A1FB0212920C2B49A3EB0A03B3FB09
:1039F000F2F32A4A036012680B6829485C1C48EA03
:103A0000092803F03F0348EA02420C6040F82320F3
:103A1000BDE8F88F234B244F1C78084684F001043E
:103A2000224904EBC40401EB84214FF4105208F046
:103A3000F7FE154B07EB84071D6807F1200C3C4689
:103A40000FCC644505F1100507F1100745F8100C7F
:103A500045F80C1C45F8082C45F8043CEFD13868B3
:103A60002860B6E7001000E070110020241100204B
:103A7000711100201800002011000020100000200B
:103A80007811002074110020140000205400002040
:103A90004011002083DE1B43180E0020501100202F
:103AA0001C0E0020791100207C110020C411002080
:103AB000F0B5FE2883B00C464DD040F202239A4266
:103AC00005D03A4A13680133136003B0F0BD0846CD
:103AD00001F0F0FBB4F800526DBAABB28342F0D102
:103AE000334B1B78002B57D0324F3E68002E53DBF0
:103AF000314B1B681B789E424EDA304B304A1B78A4
:103B000012789A424DD12F4B2F4A1B7812789A4245
:103B100047D12E4B1B78002B43D02D4B18682146E4
:103B20004FF4007200EB462008F07AFE294B2A4A37
:103B30001B6823F81650294B012119701378591866
:103B400011700BB9264B1E70264A136801360133DB
:103B50003E601360B9E7052AB7D90B6822480822EE
:103B6000CDE9000369464FF6FF7001F08DFBA38895
:103B70005BBA9BB28342A8D1A378002BA5D00E4A92
:103B8000126812789A42A0D318490A480A78013B71
:103B9000013203600A7098E7154A13680133136015
:103BA00093E7144A1368013313608EE73011002045
:103BB000FE040020F80400200C000020110000206A
:103BC000FD04002010000020FC04002071110020E2
:103BD00018000020140000201D0F0020701100208C
:103BE0001C0F002034110020A1A1A1FE1E0F0020F7
:103BF0002C1100202011002008B50F4A13785BB269
:103C000083420ED10D49FF2313700B680C4A013318
:103C10000B6013782BB10B4B1B7813B10A4B1B684D
:103C200003B108BD09484FF4807103F077FA084BDF
:103C300003221A6008BD00BF040000204C110020C0
:103C4000DB590020D8590020D4590020000C014035
:103C5000CC5900202DE9F843234D2B68984236D0EB
:103C6000224FDFF88C80397838F81340DFF88490E1
:103C70005A1CC2F3080206462A6059B9012396422B
:103C8000A9F800403B7022D0D318C3F3080338F8DA
:103C900012402B60B9F80030E31A9BB2D72B06D93B
:103CA000B3F5FC7F15D214490A6801320A60134A41
:103CB0001348116803EB5103B3FBF1F101F0B2FBC0
:103CC0002A68A9F80040012396423B70DCD1BDE888
:103CD000F883A3F54672B2F5D87FE8D206494A6860
:103CE00001324A60E3E700BF04050020FF04002022
:103CF00008050020000500206811002008000020B1
:103D0000E002002010B5EFF3108472B62A4803F0E9
:103D1000CBF84042C0F30800FFF79CFF84F3108803
:103D20002648274A2749284B04684FF0000C82F8A0
:103D300000C042680C601A60244C254A2168254B5B
:103D400012688A1A1968244BC91AB1FA81F1490913
:103D500001F0DEFA002802DB204B40B21870204B45
:103D600022681A601F4A21681F4B11601B68013BC3
:103D70003F2B1CD81D4A1E48127800781D49246824
:103D80000978120442EA00621B48007841EA0441C3
:103D900002431A4C1A482478007841EA042142EA86
:103DA0000022184C184844F8231040F82320BDE89E
:103DB0001040FFF745BD00BF1C0002406811002005
:103DC000DA59002058110020541100205011002011
:103DD000641100200C00002030C9000805000020FC
:103DE000C8590020C4590020381100201D0F0020A0
:103DF0001E0F0020FC0400201C0F0020FD040020EA
:103E0000FE04002020100020200F002010B5FEF737
:103E1000CBFB18B90F4A1368013313600E4A0F4BDE
:103E200011681B680E4C0F48226801F0010C1B043E
:103E300043EA0C23C1F347010B4302F03F0C0A494C
:103E400043F400430132226041F82C300023037018
:103E500010BD00BF28110020741100205011002057
:103E6000180E0020781100201C0E00202DE9F843C8
:103E7000344B354C5E688046237843B1FEF7A2FB95
:103E80000028F9D0FFF7C2FF2378002BF6D12F4886
:103E9000037883F00102EFF3108972B62C492D4F9D
:103EA00002EBC20507EB850701EB8525B8F1000F92
:103EB0002CD10270284A82F80080284A03EBC30301
:103EC000156001EB8325264B1F60264B00221A70DC
:103ED00089F31088244A254B1B78107800EB4300A7
:103EE000234B2946186001232370FEF74FFB214A1C
:103EF000144B126820495B682048A1FB02129B1BEF
:103F0000920CB3FBF2F30360BDE8F883134B4FF45C
:103F100010521968284608F083FC114BBE461F68F2
:103F200007F1200838687968BA68FB68F446ACE89D
:103F30000F0010374745E646F4D13868CCF800004A
:103F4000C3E700BF001000E07811002079110020C5
:103F5000C41100207C1100207111002018000020E5
:103F6000140000207011002010000020110000201B
:103F7000741100205400002083DE1B433C110020FC
:103F80002DE9F04F3E4C3F4D23788BB08DF810302B
:103F90002B788DF811303C4B01911B6805933B4BFE
:103FA0001B6806933A4B1B78002B58D003F0FF0296
:103FB000384B1B7803F0FF01002B52D1364B374FA3
:103FC0001B683C78364EDFF8DCB0DFF8DC808DF81B
:103FD0001C200893A0F1020A00F5FF7900250AE0F1
:103FE0003068DCB24300002833603C7005F1010505
:103FF00028DB082D27D0631E002CF1D10DF10F0313
:10400000D8F800100DF10E0204A801F09DF9274A1E
:104010009DF80F109DF80E0001F0BAF9089AD8F833
:10402000003052880133000410219342306039700F
:10403000C8F8003004D31E4B019AC8F800401A702B
:104040000F24CFE7ADB2DBF8003013FB05F3013BE3
:104050002AF8023FCA45C1D10BB0BDE8F08F01225A
:10406000ACE7144B1A7823789A4201D00A46A5E7A8
:10407000114B1A782B78D21A18BF01229EE700BF85
:10408000DD590020DC590020180000201400002019
:104090001E000020711100200C0000200C090020DF
:1040A0001009002008000020140900200809002041
:1040B00004000020110000201000002010B54FF473
:1040C000806002F03DFF012807D04FF4007002F03D
:1040D00037FF0128044613D010BD04464FF480601A
:1040E00002F03EFF2046FFF787FD0C480021FFF756
:1040F00047FF4FF4007002F023FF01280446EBD184
:104100004FF4007002F02CFF0020FFF775FD2146F0
:104110000348BDE81040FFF733BF00BF1809002077
:10412000180B002008B5402002F00AFF012814D027
:10413000202002F005FF012800D008BD202002F059
:104140000FFF124B1B7803F0FF02D3B9104B9B6893
:104150009B0544BF0F4B1A6008BD402002F000FFD2
:104160000A4B1B7843B90A4B9B689A05E0D5094B6B
:104170004FF480721A60DBE74FF48070FFF76AFD3E
:10418000D6E7BDE808400020FFF764BDDA590020FB
:10419000000C014004050020F8B54FF4007002F057
:1041A00059FF5B4B9C6814F400740CD1594B1B787D
:1041B0004BB1594B1A7832B1584A12781AB9584E45
:1041C000327842B1F8BD564B1B78002BFAD0BDE8CF
:1041D000F840FFF797BD534A534914701B78534A70
:1041E0000C70FF21117003EA0102002B75D0504BB7
:1041F0001B7803F0FF02002B6FD04E4B4E4A19780C
:10420000127891424D497AD0224618784C4B097861
:104210001A704C4B18704C4B1970EFF3108772B634
:104220004A4802F041FEC0F50075FF2D58D84FF402
:10423000007002F085FE002814BF4FF480724FF426
:104240000072434B43491868C5F30803013531F840
:104250001330954203F10103B3FBF0F31C44F3D395
:104260003D4D2B6859883D4B18680901002844D002
:1042700000013B4B1B78CA1A87F31088B4FBF1F39B
:1042800001FB13432D68D31A0344B3FBF1F201FB86
:1042900012332978334AA8881B099A33B3FBF0F309
:1042A00031488B4228BF4FF0FF33136001F0ACF868
:1042B0002E4B2F4A2F491068086000240025C3E9BF
:1042C00000452D4B00221A7001233370FFF7B8FA16
:1042D0002A4A136801331360F8BD164B174994E757
:1042E0004FF4806002F02CFE002814BF4FF40072DF
:1042F0004FF440729542A4D3B2E70846B9E720488C
:104300000A780078121AB2FA82F252097DE700BFE9
:10431000000C0140DB5900201E000020D95900206C
:10432000DA5900201E0F00201D0F00201C0F002056
:104330007111002011000020DD5900201000002024
:10434000FE040020FD040020FC0400203000024098
:1043500008000020180900200C000020140900208B
:104360000C090020F8040020E00200206811002061
:104370005011002064110020FF040020381100209B
:10438000DC59002038B5022002F064FE1F4B1B7878
:10439000002B2DD01E4B1B7853BB1E4B1E4C9D6813
:1043A000237815F0010524D14F2B29D923781B49F7
:1043B0001B4AB3FA83F35B090B701A4B002111708F
:1043C00011221A60FFF73CFA174B1A683F2A0CD8E3
:1043D0001649086821781C682A0241EA004182F4E3
:1043E000807213480A4340F824201A6801321A6088
:1043F00038BD002BDAD02378013BDBB22370D5E740
:1044000023780133DBB22370D0E700BFDB590020F3
:10441000DA590020000C0140DD5900201D00002069
:104420001C000020D4590020481100205011002009
:10443000180D002038B5012002F00CFE1F4B204A59
:104440009B68117803F0010383F00100814225D0BD
:1044500083B11C4B1C491D481C68046000230B7071
:104460001B490B6013701B4B1B780BBBBDE838401E
:10447000FFF7E6B91848134D0168134C013101608C
:10448000124928680860124923704FF4F070012324
:1044900008601370BDE83840FFF7D2B95FFA81FCBD
:1044A00082F800C0002BE1D00A4B1B78002BDDD036
:1044B000FFF728FCBDE83840FFF7C2B9000801400B
:1044C000DB59002050110020D8590020C459002089
:1044D000D0590020DA59002044110020194A08B5AB
:1044E000136801331360FDF7E5FE174B1A681AB124
:1044F0001A68013A1A60BAB1144B1A681AB11A68EC
:10450000013A1A606AB1124B1A684AB11A68013A44
:104510001A602AB90F4B1B7813B10F4B1B784BB99C
:1045200008BDFFF78DF9EEE70C484FF4807102F0FB
:10453000F3FDE1E70A4B01221A70BDE80840FFF7DE
:104540007FB900BF50110020CC590020D459002061
:10455000D0590020DB5900201E000020000C014033
:10456000D85900202DE9F0412B4E2C4A33689B1A74
:10457000B3FA83F35B09834243D0DFF8A48098F851
:1045800000300546002B42D1264C237843B1FEF77C
:1045900019F80028F9D0FFF739FC2378002BF6D161
:1045A0002846FEF7A7F9EFF3108372B65DBB1E4AEB
:1045B000902132601D4A11601D4A002414601D4A7A
:1045C00014701D4A156083F310881C4F1C4E3B6805
:1045D0004FF410521846F62108F0D2F8034600E0D6
:1045E0003B68356803EB042000F064FE2853023476
:1045F000242CF5D1134A012388F8003013680133C5
:104600001360BDE8F081054A4FF49071D1E70120B5
:10461000FFF72CFCB8E700BF0C00002030C90008F1
:10462000701100207811002038C90008080000200F
:10463000140900200C09002060110020180000203F
:10464000140000205C110020014B40B2187070472C
:10465000050000202DE9F0438BB0FDF755FFEFF387
:10466000108372B6002800F07481BB4C4FF4907137
:10467000BA4ABB4D1460BB4A1160BB49BB4A002417
:104680002C600C70106083F31088B948012102F08F
:1046900090FAB848012102F08CFA01214FF4C010C1
:1046A00002F087FA0121B44802F03AFD05A802F0B1
:1046B0002BFD182240F20313B048ADF8192005A9CC
:1046C000059302F0CDFC40F21123AD48059305A9F6
:1046D00002F0C6FCAA484FF4F47102F01DFDA94A8D
:1046E000A7484FF4F47305A9CDE9053202F0B8FCF0
:1046F00021462046FFF73AF9A34BA44A1B68A2FBC8
:1047000003239B09013BB3F1807F09D24FF0E022E4
:104710009F495361F02381F823300723946113618B
:104720009C48DFF858829C4F012102F042FA012197
:104730004FF4A01002F03DFA03A802F0E5FC80233C
:104740000024039303A94FF484734046ADF812305C
:104750008DF8104002F084FC21463846FFF710FC2B
:1047600007F500700121FFF70BFC224639888B48C2
:1047700002F012FE2146894802F015FE0121874809
:1047800002F09FFE01A8012502F0F6FD062601AA0F
:1047900082488DF8075002218DF809508DF8046089
:1047A00002F006FE22467D48022102F07AFE2A46E9
:1047B00002217A4802F08AFE794802F04FFB05A8F0
:1047C00002F0DCFB774B069705930327764B744882
:1047D00007934FF0013905A9CDF821908DF8257088
:1047E00002F0D3FB39467148472202F06DFB2A469E
:1047F00031466B4802F05BFB224621460D2002F059
:10480000E5FC2946664802F05AFB2A4663484FF405
:10481000807102F0FEFE2946604802F0A8FD29469C
:10482000634802F0C6F922466249634800F0F2FD8F
:10483000224662484FF6FF7102F0AEFD21465F4806
:1048400002F0B1FD03A802F0A0FD22465C4B5B48DC
:10485000039303A902F054FE5A4802F0FFFA05A898
:1048600002F08CFB584B0593584B069305A94FF06B
:10487000007354480793CDF821908DF8257002F00D
:1048800084FB4A483822022102F01EFB2A463146A8
:104890004C4802F00CFB224621460C2002F096FC0C
:1048A0002946484802F00BFB2A4644484FF4007161
:1048B00002F0AFFE2946414802F059FDD8F8083011
:1048C000434ADB432B4013701378A342414B0CBF88
:1048D00022464FF4F0721A60FEF7B2FF29464FF4F9
:1048E000C01002F066F92146204602F035FC294648
:1048F000204602F031FC0921284602F02DFC05A8D3
:1049000002F074FB40F20123069305A84FF4817373
:10491000ADF81C308DF8144002F06EFB022305A8A0
:1049200006938DF81C4002F067FB2246294630466C
:1049300002F04CFC22462946072002F047FC2246A2
:104940002946172002F042FC234B1D700BB0BDE836
:10495000F083224C90218BE630C900080C00002027
:1049600014090020080000200C090020601100201C
:104970000200180003001800020310300008014074
:10498000000C01400004100254000020D34D6210BE
:1049900000ED00E001001C001809002000040040A8
:1049A000300002402C0400401000000200000240D1
:1049B0000B001800B13A0008E0020020002C014072
:1049C000000101001C000240342C014008050020B9
:1049D000DB590020D05900207211002038C900088E
:1049E00070B5344C237843B9334B344A9B68C3F3D6
:1049F000001383F00103DBB21370314D2B78002BD1
:104A000039D1304B1B7813B92378002B2DD0237864
:104A100053BB2D4B1B783BB32C4B1A78120609D491
:104A20001878A0F10100B0FA80F0FF2240091A7056
:104A3000FFF798FD264B2149264A1B780C781278FF
:104A40009A42DEB2E4B208D0234B1B78D3B9214698
:104A50003046BDE87040FEF789BF204B1B78A3426B
:104A6000F2D11D4B1B78B3B970BD2B78002BCED182
:104A7000FDF7D8FECBE7FDF7A5FD0028C1D0FFF775
:104A8000C5F9BEE70020FFF7F1F921463046BDE841
:104A90007040FEF76BBF2B78002BE5D1104B114A0D
:104AA0001B6812689B1A642BDED9BDE87040012098
:104AB000FFF7DCB9DA590020000C0140DC59002076
:104AC00078110020DB5900201E0000200500002086
:104AD000DD5900201100002070110020100000207E
:104AE00050110020C85900202DE9F84F294D2A4FB8
:104AF000D5F80080DFF8A490DFF8A4A0294E044682
:104B000007E00CB1A047F8B94AF6AA233360FFF7D3
:104B100067FFEFF3108B72B63B7863B999F80030FA
:104B200040F2DB5203F0FF012BB92B68DAF80000EA
:104B30001B1A93420BD88BF310882B6843F69822EC
:104B4000A3EB08039342DCD90020BDE8F88F164898
:104B5000164B0170164A1970164B01241470196017
:104B6000FEF76EFE8BF31088134B1B7873B9134C52
:104B7000237843B1FDF726FD0028F9D0FFF746F969
:104B80002378002BF6D10120BDE8F88F2046FFF7EF
:104B90006DF9ECE750110020DB590020DA590020B4
:104BA000C4590020003000401E000020D8590020C9
:104BB0001C000020D0590020701100207811002026
:104BC00010B40D4C0D480E490E4A4FF0000C84F8FD
:104BD00000C001234FF0FF0C80F800C00B7010786C
:104BE00009490A4A10BC00280CBF00204FF4F0709D
:104BF00008601370FEF724BE711100201100002020
:104C00001C000020DB590020D05900201E0000208D
:104C100004480549054A002303700B701360FEF732
:104C20000FBE00BF1E000020D8590020D059002020
:104C30000B4B1B783BB10B4B1B7803F0FF0063B9A8
:104C4000094B1B7853B9094B09481B7883F00103C2
:104C500003EBC30300EB832070470020704700BFC5
:104C6000721100201E000020781100207911002010
:104C7000C4110020BFF34F8F0549064BCA6802F4E8
:104C8000E0621343CB60BFF34F8F00BFFDE700BF6F
:104C900000ED00E00400FA0510B504460120FDF720
:104CA000FBFAA04704460020FDF7F6FA144B154A1C
:104CB0001C601368072C03F101031360124B0CD125
:104CC0004FF4C8721A600323104AD35C104A136071
:104CD000104B01221A70204610BD082C04D14FF44D
:104CE0007A721A600423EFE750221A602CB1231F56
:104CF000DBB2042BE8D90C23E8E72346E6E700BF44
:104D0000FC590020F85900202000002026C9000886
:104D1000F0590020EC5900202DE9F04FA64BA74A8E
:104D20008BB09A60BFF34F8F6B46A54A403B4FF064
:104D3000A5319A42C0F08280A24BA34A1A60A34BCD
:104D4000A34A9E491A44A34BD21A22F00302002020
:104D500000F0A2FEA04B1860FEF736F8032002F028
:104D60006BFAFDF7B9FA01219C4801F022FF05A872
:104D700002F0CAF94FF4C0730593002398488DF8E8
:104D80001A3005A918238DF8193002F069F9954BEE
:104D9000954A596A11605A6A42F080725A62FDF768
:104DA0000BFB00F0FBFB00F0F5FD0746002848D1A7
:104DB000FFF750FCFFF72CFF00F0F8FE8B4D8C4CFA
:104DC000142200210DEB020007F0DAFC4FF000097D
:104DD000D5F800A0CDF80890CB46864B4AF6AA221B
:104DE0001A60FFF7FDFD00F01DFF2B68029A9B1A69
:104DF000B3F57A7F11D32B680293002007F01EFDD4
:104E0000033020F003000023C158B1F1A53F1A463A
:104E100003F10403F8D0784B1A60784BD3F8008084
:104E20002368022B14D1764B984511D10020FFF74F
:104E30005BFE08B1FDF79CFDFFF71CFF42F8041B69
:104E400077E701F0B5FDFDF7D1FDFFF703FCB3E710
:104E50002368012B08D16B4B6B4918684FF4007223
:104E600000F01AFC0023236000F0E2FE674B0646C8
:104E7000186020B9BBF1000F01D001F065F923687B
:104E8000052B13D15E4B984510D1614B1A68002A4F
:104E90000ADD1A68B2F5007F06DC1A6822B1594BA8
:104EA0005949186800F0BEFC002323602368062BD4
:104EB0000BD1534B984508D1524B1868003818BF96
:104EC0000120FFF7C1FB002323602368042B05D0DA
:104ED0002368032B20D14A4B98451DD14D4BDFF859
:104EE00030B14C49002283F843202068C31E584249
:104EF0005841444B1A68DBF80030B3F5007FD4BF4B
:104F0000DBF800304FF4007300933F4B01F0E4FCFA
:104F10000023CBF800002360FDF746FA834600200B
:104F20002B6853452DD19DF824B0D94506D0039068
:104F3000BBF1000F2ED0FDF795F90398304B984543
:104F4000354B0CD11A68012A1A6808BF0220022AC0
:104F50001A6808BF0120032A08BF4FF4807000229E
:104F60001A60002F62D0022817D12C48FFF794FE58
:104F7000D5F800A0FDF718FA014605A8FDF714FFC3
:104F800054E00AF1010A0028CAD1594605A8FDF7E4
:104F9000D1FEC5E7FDF76EF9CFE7012801D1204822
:104FA000E4E7B0F5807F3FD11E48FFF775FE00288B
:104FB000DED1FDF75FF93FE700ED00E000200008DB
:104FC0008C6D0020045A0020000101000FB0000089
:104FD00070000020000000205C5C0020040018002D
:104FE0000010014000100240605C002050110020C1
:104FF000505C002000300040E0590020645C00203C
:105000003412FE5A545C00204C5A0020F4590020FF
:105010004C5C0020085A0020005A0020556100080E
:105020002D640008B16600080028A1D1FDF7C2FA7E
:105030001D4B18601D4B1A7822B100221A701C4BB0
:105040002A681A60DFF86C80D8F80030CBB1184AB3
:105050002B6811685B1A002B0DDB174B1B680B4488
:105060001360FDF70FF9D8F80030013BC8F80030A5
:105070000BB9FDF7FFF80120D946FDF7E1F8B3467B
:10508000ABE65FB90D4A2B6811685B1A002BF2DBA7
:105090002B6864331360FDF7F5F8ECE7FDF78AFA47
:1050A0000028EFD1E7E700BF585C0020EC59002052
:1050B000E8590020F059002020000020E459002089
:1050C00038B50368027941EA4301044601601AB326
:1050D00083790133DBB20F2B1CD90023012A8371A2
:1050E0002DD0B0F808E00EF1010292B2028189B22F
:1050F0000E2041FA00FC0CF0010C02384CEA43038C
:10510000851CDBB2F5D1A6448EF80C30638993423E
:105110000CD038BD837138BD89B244F289439942BD
:10512000F7D140F201138380827138BDD4E98453F2
:10513000E07904F10C01A8470023237138BD88B23F
:1051400044F28942904265791AD089B20E2241FA1E
:1051500002F000F00100023A40EA4303901CDBB287
:10516000F5D1002DE8D0FE2B0DD0FB2BE4D140F281
:10517000022102220020E37122712081618138BD69
:105180000135657138BD0621F3E700BF30B504690C
:1051900083B0002C4BD0B4F804C094F800E09239EE
:1051A000B1FBFCF474453ED20CFB14110B2932D92F
:1051B000A1F12C0CBCF10B0F2DD90E293CD9A1F17A
:1051C000380EBEF1020F37D9152928D82C4B00888C
:1051D0000093013402231329ADF804008DF8064032
:1051E0008DF807303CD9274D6C460DF1070C44F281
:1051F0003B4314F8010F80EA13201B0235F810001E
:105200009BB2A44583EA0003F3D1142908BF1B0A0B
:10521000DBB2137001E00023137003B030BD40F225
:1052200011239C4510D94E23137003B030BD4FF0AD
:10523000120E40F2922CB2E7A1211170027B82F093
:1052400001021A7003B030BD3B2916D0B1F50F7FB3
:105250000BD3836833F8143008BF1B0A1370DCE7E4
:10526000694411F80C3C1370D7E7436803EB4423FF
:105270000B4413F83C3C1370CFE7FB231370CCE7CF
:10528000A1A1A1FE40C900088AB110B40139084C9F
:105290000A4411F801CF8CEA102C030234F81C00E8
:1052A0009BB2914280EA0300F3D110BC7047704773
:1052B00040C90008144A154910B54FF0440C864601
:1052C000D41C44F23B4012F8013F83EA0C03000275
:1052D00031F8133080B25840030AA2429C46F2D102
:1052E0000EF1FF320EF2FF1E00E0030A12F801CFAA
:1052F00083EA0C03000231F8133080B2724580EA71
:105300000300F2D110BD00BF2CC9000840C900083D
:10531000952A0ED951B94368642B0AD90268B3EBB8
:10532000C20F8CBF01204FF0FF3070470368642B21
:1053300002D84FF0FF3070474268B3EBC20F94BF02
:105340004FF0FF300020704770B591294FF00006F4
:105350001E7011D89E46A1F150030F2B10D85B2967
:1053600014D95F290FD0C2231370037B83F001038C
:105370005B008EF8003070BDBDE87040FFF706BFDF
:105380004E23137070BDFC23137070BD167070BD7A
:10539000012984462AD002292ED01168430843EA05
:1053A000C1130343DB43DBB200B540F60F714CEA97
:1053B0000C1E43EA03130B4001EA0E0143F23330A3
:1053C00043EA830341EA8101034001400D4843EA77
:1053D000430300EA430041EA410145F255531940B5
:1053E0000CF00103084313605DF804FB0CF00103AB
:1053F00044F28940136070470CF0010345F2242009
:1054000013607047AAAAFFFF0023036083808371A3
:10541000836070470023C0E9841203608380837136
:105420008360704738B58B1E022B05460CD84C1E86
:1054300000212846FFF744FE013CF9D1284601210E
:10544000BDE83840FFF73CBE0023838083710360D2
:10545000836038BD38B5104C054601E0013C18D0DA
:105460000E48022101F07DFF0028F7D00B480A4CBE
:10547000294601F071FF01E0013C0AD007480121F3
:1054800001F06FFF0028F7D0044801F067FFC0B2B9
:1054900038BDFF2038BD00BF40420F00003800403B
:1054A00038B50E4D01E0013D13D04FF480510C484A
:1054B00001F034FE0520FFF7CDFF0020FFF7CAFF03
:1054C0004FF480510446064801F026FEE307EAD473
:1054D00038BD044B01221A7038BD00BF80841E0005
:1054E000000C0140685C002038B504460D461648A3
:1054F0004FF4805101F012FE0620FFF7ABFF124877
:105500004FF4805101F008FE4FF480510E4801F035
:1055100005FE0220FFF79EFFC4F30740FFF79AFF46
:10552000C4F30720FFF796FFE0B2FFF793FF28468A
:10553000FFF790FF04484FF4805101F0EDFDBDE806
:105540003840FFF7ADBF00BF000C0140014B187899
:10555000704700BF685C002070B54FF480510E4862
:1055600001F0DCFD9F20FFF775FF0020FFF772FFC1
:1055700006460020FFF76EFF04460020FFF76AFF93
:10558000240205464FF48051034844EA064401F0E2
:10559000C3FD44EA050070BD000C014010B537485A
:1055A00082B0012101F005FB0121354801F001FB2A
:1055B000684601F0A9FD334B33484FF480546946E7
:1055C000CDE9004301F04CFD21462F4801F0A4FD38
:1055D0004FF42042082369462B4800928DF806308C
:1055E00001F03EFD4FF480421823694626480092A0
:1055F000ADF8053001F034FD684601F02FFE234B75
:10560000009369464FF080732148019301F031FE09
:105610001F48012101F096FE1D48012101F097FE6F
:105620002146194801F07AFD0620FFF713FF2146B5
:10563000154801F071FD2146134801F06FFD50201F
:10564000FFF708FF2146104801F066FD21460E488D
:1056500001F064FD0120FFF7FDFE0020FFF7FAFED8
:105660002146094801F058FDFFF776FF094BC01AA3
:10567000B0FA80F0400902B010BD00BF030018006E
:105680000E001C0000041002000C0140000101008B
:10569000003800404125BF0070B5154606460C464F
:1056A000FFF7FEFE4FF48051104801F037FD032054
:1056B000FFF7D0FEC6F30740FFF7CCFEC6F3072086
:1056C000FFF7C8FEF0B2FFF7C5FE3DB1254400204C
:1056D000FFF7C0FE04F8010BA542F8D1BDE8704009
:1056E00002484FF4805101F017BD00BF000C01408B
:1056F00010B50446FFF7D4FE4FF48051124801F074
:105700000DFD0620FFF7A6FE0F484FF4805101F073
:1057100003FD4FF480510C4801F000FD2020FFF7FD
:1057200099FEC4F30740FFF795FEC4F30720FFF787
:1057300091FEE0B2FFF78EFEBDE8104002484FF444
:10574000805101F0E9BC00BF000C014010B54FF4DE
:105750008051094801F0E2FC0520FFF77BFE0020A4
:10576000FFF778FE4FF480510446034801F0D4FC63
:1057700004F0010010BD00BF000C014010B504464C
:10578000FFF78EFE4FF48051134801F0C7FC06204E
:10579000FFF760FE10484FF4805101F0BDFC4FF45C
:1057A00080510D4801F0BAFC2020FFF753FEC4F3EE
:1057B0000740FFF74FFEC4F30720FFF74BFEE0B2B0
:1057C000FFF748FE04484FF4805101F0A5FCBDE806
:1057D0001040FFF765BE00BF000C014008B5FFF7A1
:1057E0005FFE4FF480510E4801F098FC0620FFF751
:1057F00031FE0B484FF4805101F08EFC4FF4805184
:10580000074801F08BFC6020FFF724FE04484FF4AA
:10581000805101F081FCBDE80840FFF741BE00BFA8
:10582000000C01402DE9F047164607460D46FFF7EC
:1058300037FE002E00F09780FB0700F19680012EC6
:1058400000F089802B78FF2B03D16B78FF2B00F0C1
:105850009B802C46AE464FF0000C4FF0010908E04B
:10586000B6EB430F0CF1010C0EF1020EC0F0878075
:10587000994615F81C2009F10103FF2A4FEA43025B
:10588000EED19EF80110FF29F046E9D14FEA4C0A0B
:10589000E1464FF480513E4801F040FC0620FFF7FE
:1058A000D9FD3B484FF4805101F036FC4FF4805154
:1058B000374801F033FCAD20FFF7CCFDC7F30740BC
:1058C000FFF7C8FDC7F30720FFF7C4FDF8B2FFF7E5
:1058D000C1FD2878FFF7BEFD6878FFF7BBFD2C48B7
:1058E0004FF4805101F018FCFFF7DAFDB9F1010F18
:1058F0001AD9023D05EB49054FF48051244801F0C7
:105900000DFCAD20FFF7A6FDA078FFF7A3FDE07822
:10591000FFF7A0FD02341E484FF4805101F0FCFB5C
:10592000FFF7BEFDA542E7D14FF48051184801F0C2
:10593000F5FB0420FFF78EFD15484FF4805101F070
:10594000EBFBFFF7ADFD5744A6EB0A064546012EDB
:105950003FF678AF3EB12978FF2904D03846BDE83C
:10596000F047FFF7C1BDBDE8F0872978FF2902D0D5
:105970003846FFF7B9FD013E01370135E7E7A2F1EF
:10598000020A05EB0A0884E702370235023EDEE729
:10599000000C014030B589B0FFF7DEFD3B4B98426B
:1059A00062D10DF10F02002383F0A5010133102B0A
:1059B00002F8011FF8D13648FFF7E0FEFFF770FD4F
:1059C0004FF48051334801F0A9FB0320FFF742FD5B
:1059D0001F20FFF73FFDF020FFF73CFD0020FFF701
:1059E00039FD6C4604AD0020FFF734FD04F8010BCF
:1059F000AC42F8D127484FF4805101F08DFB6B4643
:105A000013F8012BFF2A2FD19D42F9D110222048F3
:105A10002946FFF707FFFFF743FD4FF480511D486C
:105A200001F07CFB0320FFF715FD1F20FFF712FD9F
:105A3000F020FFF70FFD0020FFF70CFD6C46002063
:105A4000FFF708FD04F8010BAC42F8D111484FF400
:105A5000805101F061FB009A23689A4207D001202F
:105A600080F0010009B030BD002009B030BD019ABE
:105A7000059B9A42F3D1029A069B9A42EFD1039A70
:105A8000079B9A42EBD10020EAE700BF4125BF0007
:105A900000F01F00000C014010B50B4CC0430A443D
:105AA000914201D1C04310BD11F8013B584000F0B4
:105AB0000F0354F8233083EA101303F00F0054F857
:105AC000200080EA1310EBE740CB000870B51549C1
:105AD0000822054606F044FE0646F8B90822124997
:105AE000A81806F03DFE0446D0B92B69012B12D14F
:105AF0002C222946FFF7D0FFEB6A98420BD1AB6905
:105B00004CF6F862A3F10801914204D803F00303B4
:105B1000B3FA83F4640904F0010070BD0024FAE7CD
:105B20003446F8E7C2C80008CBC80008036802463C
:105B300003F160400138B0F5004F12D213F00300BA
:105B40000FD1536813F001020DD0084A93420BD9CC
:105B500001F1006101F50051994294BF002001203C
:105B60007047002070471046704700BF00200008B3
:105B700000207047014B002018707047695C0020BE
:105B80000020704700207047024B01221A7000204D
:105B9000704700BF695C002000207047FCF750BBD5
:105BA000014803F05EB900BF6C5C00201FB5012105
:105BB000164800F0FEFF02A801F0A6FA4FF4C05309
:105BC000002402A9029312488DF80C404FF484730C
:105BD000ADF80E3001F044FA204601F02DF9052011
:105BE00001F038F80B48012100F0E3FF22460221C2
:105BF000432001F0EBFA084B00932246074B08487C
:105C0000012101F021FF04B010BD00BF0200180007
:105C1000000801400C001400240000205C0000205B
:105C20006C5C0020014802F029BA00BF705C0020C3
:105C3000054B1B7803F0FF002BB1044BD3F8A804ED
:105C4000003818BF01207047695C00206C5C0020A0
:105C500008B5FFF7EDFF38B1044BD3F8400118B198
:105C6000006908B1D0F8A00008BD00BF6C5C00203E
:105C7000014608B5034803F035FD003818BF012080
:105C800008BD00BF705C0020FFF7F2BFF7B50E46FD
:105C90001146089A0746501843F1000500230124D5
:105CA000834274EB050512D3FFF7D2FFB0F5007FF6
:105CB0000FD1094B4AF6AA201860084800973346CE
:105CC00003F056FD003818BF012003B0F0BD0420DA
:105CD000FBE72046F9E700BF00300040705C002081
:105CE000F7B50E461146089A0746501843F10005CD
:105CF00000230124834274EB050512D3FFF7A8FFAC
:105D0000B0F5007F0FD1094B4AF6AA201860084869
:105D10000097334603F074FD003818BF012003B02C
:105D2000F0BD0420FBE72046F9E700BF003000404B
:105D3000705C0020081E18BF012080007047000022
:105D400038B5134C207868B9124D2B8853B1124BDB
:105D50001A6842B1114A12681B689A4203D30123A0
:105D60002370207838BDFCF71FFB2B8818400C4BA4
:105D70000CD01A680B4922B90A6842F001021A6075
:105D8000EFE70B689B1A312BE9D8EAE71860E8E7E0
:105D9000D0630020D8630020DC630020F867002077
:105DA000D4630020501100202DE9F04F2A4D2B4ED6
:105DB000D5F8008008F5895185B0074601221831D1
:105DC000304605F055FC0446002841D1D6E904B917
:105DD000D7F814A0394602A8FDF769FBA14508BF12
:105DE000D34533D101AA02A94046FDF767FB04461B
:105DF00020B9039CB4FA84F4640904E0FFF7A0FF1F
:105E000040B14FF0FF34154805F0B5FF204605B00E
:105E1000BDE8F08F2968019801F63851FCF77AFB4C
:105E200029686B46224601F63871304605F05AFD66
:105E30000028E6D1009AA24208D1286800F63871FD
:105E400000F6385006F08CFC0028CBD00024DAE7AE
:105E50004FF0FF34DAE700BFE06400204065002027
:105E60002DE9F04F3E4FD7F8009009F58951CDB09C
:105E7000064606223B48183105F0FAFB0446002886
:105E80006CD10DF1080831464046FDF710FBDFF8F4
:105E9000D8B00DF1040A524641464846FDF70EFBC4
:105EA0000546002830D12F4805F065FF3D6805F50F
:105EB00089551835002847D1002C46D1D8F8043030
:105EC000002B49D14FF49072214604A806F058FCEB
:105ED000F389ADF8183004A9338AADF81A30284692
:105EE00006F0EEF93046FFF75FFF012830D0386842
:105EF00000F58950183006F0D3F81C4B1B78002BA6
:105F00000CBF0524082423E0FFF71AFFC0B9396845
:105F1000DAF8000001F63851FCF7FCFA396811484C
:105F20006B462A4601F6385105F097FD50B9009AA4
:105F3000AA4207D1DBF800301344CBF80030AAE7BF
:105F40000824B0E70224AEE70224284606F0A8F8A9
:105F500020464DB0BDE8F08F0324F6E70224F7E7B2
:105F6000E064002040650020F8670020D063002036
:105F700008B5FFF75DFE88B1FFF76AFEB0F5007F58
:105F800001D0072008BD06490648012205F04EFB56
:105F90000028F7D00D28F4D00220F3E70120F1E724
:105FA000D4C80008A065002070B50023CC5C202C6C
:105FB00003D0C4540133082BF8D102B35F25632A00
:105FC000C55403F1010410D96425B2FBF5F5303551
:105FD00005559C1C0A25B2FBF5F3B3FBF5F605FB52
:105FE000163330330355013401E0092AF2D80A256B
:105FF000B2FBF5F605FB162230320255631C0A7A15
:10600000202A0ED02E22C254C4181D1D0731013380
:1060100011F8012F202A04D00133AB4204F8012FDC
:10602000F6D10022C25470BDF0B5013810F8013F1E
:106030000E46BBB1A3F1410411F8012BE4B2192CB7
:1060400098BF03F12005A2F1410794BFEDB21D46B0
:10605000192F9CBF2032D2B2AA42E7D0192C9CBF84
:106060002033DBB23078A0F14102192A9CBF2030E6
:10607000C0B2181AF0BD00002DE9F04129492A48A4
:1060800005F07FFF044600284AD1284E27492648BC
:1060900005F0C3FF28B1244805F0B6FF2046BDE84F
:1060A000F081B37E002BF6D0327B12F01607EDD1D3
:1060B0002E2BEBD01E491F48FFF7B6FF0028E5D076
:1060C000D6E90085FCF720FA1B4B1C4A002818BFB4
:1060D0001346434577EB0505D8D3164B727B184919
:1060E000A3F10D05002A08BF1D462846FFF79CFFB7
:1060F0000028CBDD64B113494B7B01F11A020D314D
:10610000002B08BF11462846FFF78EFF002805DA4E
:1061100006490C484FF4907206F082FB0124B5E763
:106120000024BBE7D7C80008E86400209061002085
:10613000DEC80008AA610020003E160000240B0003
:10614000E0630020B0620020014B00221A7070470B
:10615000E06300202DE9F04FA64A00238FB01360C2
:10616000A54A1360FFF704FF044660B9FFF784FFF8
:1061700068B9A24B1C70FFF77FFF40B92246A049C7
:1061800005F054FA042420460FB0BDE8F08F9D4A74
:10619000DFF874A2DFF874B29D4802231380002355
:1061A000CAF800308BF80030FEF79EFC054658B95F
:1061B0009349024605F03AFA924BCAF800501D8006
:1061C0008BF800500624DEE7FEF732FD914F8B4935
:1061D0003860054600F591500E3006F019FBFCF7CB
:1061E00057FBFCF791F98C498C4E02462846FCF788
:1061F0003BFF06F11A09727B894B002A08BF4B4608
:10620000002105AA18460393FDF773FAB0B94FF0C1
:106210000108039805AA4146FDF76BFA002859D1F9
:1062200008F10108B8F1640FF3D1737B7C4973481E
:10623000002B08BF494606F0EBFA46E005A92846C0
:10624000FDF742FA0028E2D131682846FCF71EFF2C
:1062500000284DD03B68734903F63878404606F075
:10626000D7FA727B6E4B4046002A0CBF494619464E
:1062700006F08EFA316804AA2846FCF729FF0028A8
:1062800055D069480122414605F0F2F900284ED167
:10629000D6F80080B8F1000F23D1634805F06BFDFC
:1062A000738900933389326805A92846FCF738FFC3
:1062B000727B5B4B5148002A0CBF4946194606F0D9
:1062C000A7FA4D4A136801331360FFF7D5FE002883
:1062D00091D10DE005A92846FDF7F6F900289FD1D8
:1062E000B2E7FFF72DFD90B14F4805F044FD0824BB
:1062F0002846FCF76BFF002C45D0FCF7DFFA396825
:106300003E4801F591510E3106F082FA60E039689D
:10631000454801F6385108AB4FF4007205F0E2FA37
:10632000014608B9089B23B93F4805F024FD022423
:10633000DEE73A68049802F63852FCF701F904984F
:106340003968431C01F638710493FCF7E3F83868A8
:10635000089A039200F6385100F6387006F000FAF9
:10636000039A20B1304805F006FD0524C0E7214915
:106370000B68424598BFA8EB02081A4488BFA8EBF7
:1063800008080A6086E7B5F80E803D68224928466D
:10639000FCF7B0FF58BBFCF791FA0524AFE70D9965
:1063A0002846FDF77CF8BDF82C1006460246284624
:1063B000FDF743F98642EED809F1010908A92846FC
:1063C000FDF700F80028EAD1C145E4D1FCF776FAE0
:1063D000002210460A4905F029F9FEF7F1FB094AA7
:1063E00000231380CAF800308BF80030CBE6A146BA
:1063F000E4E700BFF8670020FC670020E0630020AE
:10640000D4C80008D8630020D4630020D0630020E3
:10641000415D0008E064002080C80008B0620020F0
:10642000BD620020D7C80008406500202DE9F04F6C
:10643000954ADFF858B28BB000231360CBF80030D8
:10644000FFF796FD0446A0B9914A924D01231380AF
:10645000914B287018609148FEF746FB68B92246B8
:106460008F4905F0E3F88A4B2C701C808A4B1C6026
:10647000062420460BB0BDE8F08FFEF7D9FBDFF80D
:1064800024828949C8F800000746FCF733FF00283A
:1064900000F0EE80D8F80050844905F58950183096
:1064A00006F0B6F905F58053032205F58E5083F802
:1064B00026221630FDF72CF8A2462546FFF740FCB1
:1064C00088B10824724B764900221A80724B1A60F8
:1064D000704B10461A7005F0A9F80CB9FCF748FA91
:1064E000FEF76EFBC5E7D8F8006002900A2303FBB5
:1064F00005F9721941F2262309F58E511631D35C44
:10650000019304AA31443846FDF719F8029B50B9AB
:106510004E4441F2DE13F35C002B18BF0324013D0F
:10652000D0D3A246CAE79DF81B6016F0100654D0DF
:10653000062D00F39B801A4641F23816D8F8003039
:1065400003EB060ACDE90223019B04A90AEB030031
:10655000FFF72AFD039B504603F6387105F081FDD5
:1065600030BBD8F80030029A93F8443F13F0100F74
:106570002ED0D8F8006041F2381A06EB0A00FBF77B
:1065800011FE431C30442F2200F80A20F21800218B
:10659000013502F80A10711941F2262238468B544F
:1065A00009F58F51BDF81C203144FCF7B6FFB8E760
:1065B000042806D1D8F80000304405F0CBFD0028AF
:1065C000D7D0344B1B78002B7FF47BAF022479E7C4
:1065D0000132B2F57A7FB1D1F3E709993846FCF779
:1065E0005EFFBDF81C10044602463846FDF725F84C
:1065F00084423FD82B4C2368029303F58959019BB1
:1066000009F1180909EB0300324604A9FFF7CCFC95
:10661000029B484603F6387105F023FD04282CD070
:106620000028CED1236893F8441F11F0100104D044
:106630000136B6F57A7FDED1C3E7D3F8382F099853
:1066400003F5746353F8043C8B4208BF8242EFD1D8
:1066500004A8FFF7A9FB431CB3D00128E8D1DBF85D
:1066600000300133CBF8003054465AE7032458E792
:10667000032427E74FF0030AF6E704A8FFF7F0FB2F
:1066800004460028EBD01DE7F8670020FC670020D7
:10669000D8630020D0630020D4630020415D00084F
:1066A000D4C80008E064002080C80008D7C80008EB
:1066B0002DE9F047DFF80482814D8EB00023C8F841
:1066C00000302B60FFF754FC0446064680B9DFF823
:1066D000F4917D490122484604F0CAFF044658B1AE
:1066E0007A493246304604F0A1FF042C18BF022438
:1066F00020460EB0BDE8F0876B46302202A948461E
:1067000005F0F0F8044648B103246E4805F033FB69
:1067100000226E49104604F089FFE9E7009B302B08
:10672000F2D102A8FFF7D2F90028EDD0D9E904127E
:10673000089B3033A24208BF9942E5D12046FEF7BC
:10674000D3F9002800F0B780FEF772FA604EA24637
:106750003060089FA74226D8099B9A454AD15D4FD1
:106760004FF4F914204604F58054FFF707F8BC42B3
:10677000F8D154483022002305F00CFB04460028D1
:1067800040F097808146089F4F4535D84FF000086C
:10679000C146089F474555D8099B99456ED00524A9
:1067A000FEF70EFAB1E73F1BB7F5007F316828BF4F
:1067B0004FF4007701AB3A4601F63851484605F0F0
:1067C00091F8002875D1019B9F4272D154B1316874
:1067D00050463A4601F63851FFF75EF9019B824672
:1067E0001C44B6E73068089900F63850FFF79EF968
:1067F0000028ECD10324D3E7A7EB0907B7F5007F06
:106800003168304828BF4FF4007701AB3A4601F6B3
:10681000385105F067F800284BD1019B9F4248D1C1
:10682000316809F5F9103A4601F6385100F58070E3
:10683000FEF7F8FFD8F800303B44C8F80030019B61
:106840009944A0E7A7EB0807B7F5007F316828BF98
:106850004FF4007708F5F9103A4601F6387100F563
:106860008070FEF719FF316848463A4601F63871E4
:10687000FFF712F908F5007881468AE7302202A96D
:106880004FF4F910FEF7CEFF3168302201F638716F
:106890004FF4F910FEF700FF3068302202A900F62D
:1068A000387005F05DFF00287FF479AF01232B607D
:1068B0002BE7022474E7062427E700BFF8670020CF
:1068C000FC67002040650020DBC80008D4C8000831
:1068D000E064002000F01F002DE9F04192B00C466A
:1068E0000646002117461D4640222D4B019302A863
:1068F000DDF8608005F044FF002320460093FBF79D
:1069000051FC402840D8214601A805F041FFFFF77F
:106910008FF900283BD023492348012204F086FE4A
:10692000002837D15EB3002F0CBF0A2202221F4875
:1069300001A904F09DFE0446B8B903463A461B4837
:1069400005F028FA044638B918486B4642462946ED
:10695000BEB105F082F80446144805F00CFA20B1E7
:10696000012C204638BF0120C4B200220D49104638
:1069700004F05CFE8CB9009812B0BDE8F0810122F1
:10698000D5E704F0AFFFE6E76FF00300F4E74FF060
:10699000FF30F1E76FF00100EEE76FF00200EBE788
:1069A000303A2F00D4C80008A065002040650020C0
:1069B00000B58DB04FF4F91030226946FEF76CFE39
:1069C0006846FFF783F858B1069A07490020FFF799
:1069D00063F8079B984203D14FF4F910FEF7CEFEFF
:1069E0000DB05DF804FB00BF002000081A4B1B49E6
:1069F000DA6942F08052DA6191F8502042F00402E4
:106A000081F85020DA6922F08052DA611A6842F087
:106A100001021A601A689207FCD55A6822F0030234
:106A20005A605A6812F00C0FC2F38101F9D11A684A
:106A300022F0867222F480321A6041F61072596098
:106A4000DA624FF480121A634FF41F029A60044B0B
:106A50004FF000629A6070470010024000700040E2
:106A600000ED00E038B500F04BF9294C18B10228D0
:106A700014D0284809E0636D9A05FAD5236B26489F
:106A800013F0007F234B08BF18466368234AC3F303
:106A90000313D35CD840224B186038BD6368E26AA8
:106AA000002AC3F3004318DB6068626812F0C04F2D
:106AB000C0F38340C2F3417101D10F2806D10130E8
:106AC00000EB011023B9174B5843DEE70230F9E71A
:106AD00063689B03F7D40F4BF6E7E56AE06AE26A66
:106AE000C5F30315C0F3082002F0070273B1636811
:106AF0000C4913F4003F074B08BF194605FA02F290
:106B00000023A1FB0001FBF733FBBEE70549F5E7D6
:106B10000010024000127A00006CDC0280CB0008FA
:106B20005400002000093D00114B1A6842F0010298
:106B30001A601A689207FCD55A6822F003025A605C
:106B40005A6812F00C0FC2F38101F9D11A6822F0D1
:106B5000867222F480321A6041F610725960DA624D
:106B60004FF480121A634FF41F029A60704700BFFF
:106B700000100240030C03F1804303F5043300F0DE
:106B80001F001A680123834093430CBF012000209B
:106B9000704708B543F201011120FFF7EBFF012810
:106BA00004D1BDE808401120FFF7E4BF0139F3D15B
:106BB000F7E7030C03F1804303F50433012900F0E8
:106BC0001F0019684FF0010202FA00F20CBF0A43DD
:106BD00021EA02021A60704704281FD8DFE800F09B
:106BE00003090E1319000E4B1A6861F300021A60B4
:106BF00070470B4B1A6861F31042F8E7084B1A68AC
:106C000061F31862F3E7064B1A6A61F300021A6235
:106C10007047034B5A6A61F300025A62704700BF23
:106C200000100240024B5A6860F307125A60704726
:106C300000100240024B5A6860F30A225A60704703
:106C400000100240024B5A6860F3CD225A60704730
:106C500000100240054B5A6860F397525A605A6818
:106C6000C0F3800060F3DB625A607047001002409E
:106C7000144B5A68B0B960F310425A601A6B42F074
:106C800000721A6300205A6861F395425A605A688C
:106C9000C1F3011161F35E725A60DA6A60F31A623D
:106CA000DA62704742F480325A6001285A6804D18F
:106CB00022F400325A600220E5E742F400325A60C2
:106CC000E0E700BF001002400C4B5A6860F301027D
:106CD0005A6000BF00BF00BF00BF00BF00BF00BFC1
:106CE00000BF00BF00BF00BF00BF00BF00BF00BFAC
:106CF00000BF00BF00BF00BF00BF704700100240D0
:106D0000024B5868C0F38100704700BF001002407A
:106D100070B53B4D6B6813F00C0F0446C3F3810252
:106D200003D0022A31D0374809E06B6D9A05FAD5B5
:106D30002B6B344813F0007F334B18BF184620608C
:106D40006B68324A3249C3F30313D35C20FA03F36E
:106D500063606A68C2F302228A5C2E4923FA02F257
:106D6000E2606A68C2F3C2228A5CD340A3606968A9
:106D70006A68C1F30071C2F3813242EA8102264996
:106D80008A5CB3FBF2F3236170BD6B68EA6A002A88
:106D9000C3F3004318DB68686A6812F0C04FC0F3A1
:106DA0008340C2F3417101D10F2806D1013000EBBD
:106DB000011023B9194B5843C1E70230F9E76B685A
:106DC0009B03F7D40F4BF6E7EE6AE86AEA6AC6F36C
:106DD0000316C0F3082002F0070273B16B680F4975
:106DE00013F4003F074B08BF194606FA02F20023CE
:106DF000A1FB0001FBF7BCF9A1E70849F5E700BFDB
:106E00000010024000127A00006CDC02A0CB0008E7
:106E100098CB000898CB000890CB000800093D00F3
:106E2000044B5A6D01280CBF42F0300222F03002B0
:106E30005A657047001002400128074B07D11A6BB2
:106E400042F000721A635A6D42F400725A655A6D2C
:106E500060F308225A65704700100240036823F06F
:106E6000010303600023036043608360C36040F25A
