:020000040800F2
:10000000008000203D0B0008850B0008850B0008D0
:10001000850B0008850B0008850B00080000000018
:10002000000000000000000000000000850B000838
:10003000850B000800000000850B0008850B0008F8
:10004000850B0008850B0008850B0008850B000850
:10005000850B0008850B0008850B0008850B000840
:10006000850B0008850B0008850B0008850B000830
:10007000850B0008850B0008850B0008850B000820
:10008000850B0008850B0008850B0008850B000810
:10009000850B0008850B0008850B0008850B000800
:1000A000850B0008850B0008850B0008850B0008F0
:1000B000850B0008850B0008850B0008850B0008E0
:1000C000850B0008850B0008850B0008850B0008D0
:1000D000850B0008850B0008850B0008850B0008C0
:1000E000850B0008850B0008850B00080000000048
:1000F0000000000000000000000000000000000000
:1001000000000000850B0008850B000800000000BF
:10011000850B0008850B00080000000000000000AF
:10012000850B0008850B0008850B0008850B00086F
:1001300000000000000000000000000000000000BF
:10014000000000000000000000000000850B000817
:100150000000000000000000850B0008850B00086F
:10016000000000000000000000000000850B0008F7
:100170000348044B834202D0034B03B11847704736
:100180000000002000000020000000000548064B91
:100190001B1AD90F01EBA301491002D0034B03B185
:1001A00018477047000000200000002000000000F9
:1001B00010B5064C237843B9FFF7DAFF044B13B1AF
:1001C0000448AFF300800123237010BD000000201D
:1001D00000000000F00B000808B5054B1BB10549F5
:1001E0000548AFF30080BDE80840FFF7CFBF00BF70
:1001F0000000000004000020F00B0008024AD36851
:1002000083F48063D3607047000C0140013800D252
:10021000704700BFFAE7000070B506460025B469D4
:10022000AC4201D8012070BD641BB4F5807F28BFAB
:100230004FF4807405F5F9100949224600F58070E5
:1002400000F05EFA05F100610548224601F5005113
:1002500000F099FC10B905F58075E0E70020E2E7B1
:100260001C0000202DE9F04F012191B0984800F0CA
:100270000FFB04A800F074FB002396488DF814309F
:100280004FF480644FF4047304A9ADF8163004945D
:1002900000F013FB8F48214600F06AFB00F0B2F932
:1002A000002860D0302204A94FF4F91000F028FA99
:1002B00004A800F05FFA8046002854D004A8FFF795
:1002C000ABFF044600284ED106460A9DA5422CD815
:1002D0000B9B9E4247D1804F4FF003094FF0FF33F5
:1002E000CDE9023300F0EEFB7C4D44464AF6AA26E7
:1002F0000A9B03F1006303F500539D4260D34FF066
:10030000000A0A9D554540F2B080002C69D100F0EA
:10031000E5FB0020B9F1010901D00028DED06D48CD
:100320004FF4806100F024FB1DE02D1BB5F5807FAC
:1003300028BF4FF4807504F5F91069492A4600F585
:10034000807000F0DDF944B1304665492A4600F07E
:10035000F7F904F580740646B7E70A99604800F09B
:1003600039FA0028F0D15D4C4FF4F031204600F00E
:1003700031FA002800F097805A48012100F09BFADA
:100380005848002100F097FA5748012100F093FAED
:100390005548002100F08FFA5448002100F078FA07
:1003A0004B48002100F074FA5149236862688C6060
:1003B000BFF34F8FBFF36F8F83F308881047FEE7BB
:1003C000002C9CD034203E60FFF718FF00F050FB5B
:1003D000284600F08BFBC21E5442544105F580654F
:1003E00086E7A5EB0A05B5F5807F28BF4FF4807539
:1003F0000AF5F9103A493A4E2A4600F5807000F0A5
:100400007FF94AF6AA233B60D346354BF11AA9423D
:1004100000D214B90AF5807A73E7B17870780904CC
:1004200041EA002130780143F078BBF1070F41EA3F
:1004300000610BD82BF0030000F140030DEB03002B
:1004400040F8381C0BF1040B0436DEE73420019130
:1004500000F00EFB0BF10060019900F5005000F078
:100460005BFBC31E5C425C41ECE7002C3FF44FAFEA
:10047000342000F0FDFA03991E4800F04DFB0328DC
:100480007FF445AF342000F0F3FA0299134800F0EE
:1004900043FB044600F022FB032C7FF43AAF04A890
:1004A000FFF7BAFE36E71448FFF7A8FEFFF7AEFEE7
:1004B0001148FFF7A3FEFFF7A9FE0F48FFF79EFEC6
:1004C000FFF7A4FE0D48FFF799FEFFF79FFEEAE74E
:1004D00003001800000C014000300040002000081C
:1004E0001C0000200E00100003000C000E001C0079
:1004F00000ED00E004200008F0490200A0BB0D0060
:10050000064B4FF480521A6102F16042DB68516879
:1005100053685B1A0F2BFBD9704700BF000C0140DA
:100520000A4B0B4A9168890708D5D060074B084AE7
:100530009168C90706D5D068C0B27047013BF1D1B8
:10054000FF207047013BF3D1FAE700BF40420F00A4
:1005500000380040FFF7E4BF08B5054B4FF4805268
:100560005A61FFF7F7FFBDE80840FFF7C9BF00BFBA
:10057000000C014010B50446C0F30740FFF7EAFF46
:10058000C4F30720FFF7E6FFE0B2BDE81040FFF735
:10059000E1BF000070B50A4C0A4D4FF480566E6101
:1005A0000520FFF7BDFF0020FFF7BAFFFFF7A8FF08
:1005B000C30704D5013CF2D1034B01221A7070BD70
:1005C00080841E00000C01401C01002038B50C4B3B
:1005D0004FF480525A619F20FFF7BCFF0020FFF7C5
:1005E000B9FF05460020FFF7B5FF04460020FFF7DE
:1005F000B1FF240244EA0544FFF782FF204338BDDF
:10060000000C0140354AD2F8FC3043F0807373B5DA
:10061000C2F8FC30324B334800245C601A6842F068
:1006200001021A60012100F033F901212E4800F087
:100630002FF9684600F094F92C4B2D484FF4805563
:100640006946CDE9005300F038F9FFF759FF4FF440
:10065000204300936946082325488DF8063000F0B2
:100660002CF94FF480436946009321488DF80640E9
:1006700018238DF8053000F020F9684600F07AF96B
:100680001C4A1D484FF080736946CDE9002300F0F5
:100690007CF91948012100F0E1F90121164800F028
:1006A000E2F90620FFF758FF114B1E465D6150200E
:1006B000FFF750FFFFF724FF01207561FFF74AFFA6
:1006C0002046FFF747FFFFF71BFFFFF77FFF0B4BAE
:1006D000C11A4842484102B070BD00BF00ED00E0C1
:1006E000001000E0030018000E001C0000041002BF
:1006F000000C014000010100003800404125BF000E
:1007000070B50C4606461546FFF744FF0B4B4FF4F9
:1007100080525A610320FFF71DFF3046FFF72AFF82
:100720002544AC4203D1BDE87040FFF7E9BE00208C
:10073000FFF7F6FE04F8010BF3E700BF000C0140E1
:1007400010B50B4CC0430A44914201D1C04310BDC7
:1007500011F8013B584000F00F0354F8233083EAAE
:10076000101303F00F0054F8200080EA1310EBE799
:100770001C0C000870B515490822054600F003FA64
:100780000646F8B908221249A81800F0FCF90446F8
:10079000D0B92B69012B12D12C222946FFF7D0FFAB
:1007A000EB6A98420BD1AB694CF6F862A3F10801F1
:1007B000914204D803F00303B3FA83F4640904F00C
:1007C000010070BD0024FAE73446F8E7080C000881
:1007D000110C00080368024603F160400138B0F5CF
:1007E000004F12D213F003000FD1536813F001022F
:1007F0000DD0084A93420BD901F1006101F5005177
:10080000994294BF00200120704700207047104695
:10081000704700BF002000081A4B1B49DA6942F0FC
:100820008052DA6191F8502042F0040281F85020A1
:10083000DA6922F08052DA611A6842F001021A6025
:100840001A689207FCD55A6822F003025A605A6867
:1008500012F00C0FC2F38101F9D11A6822F08672EE
:1008600022F480321A6041F610725960DA624FF455
:1008700080121A634FF41F029A60044B4FF000621B
:100880009A607047001002400070004000ED00E0E8
:10089000030C03F1804303F50433012900F01F002A
:1008A00019684FF0010202FA00F20CBF0A4321EA74
:1008B00002021A607047FFF7EBBFF0B58C790A6847
:1008C000032C95B24AD0002C3DD14B79182B02D184
:1008D0000561082303E0282B32D003F00F03D1B2C7
:1008E000A9B1002492B20F2742FA04F1C9070BD52F
:1008F0000668A10007FA01FC26EA0C0606600668F5
:1009000003FA01F1314301600134082CECD1FF2DD1
:1009100015D92D0A00210F2645FA01F2D2070BD571
:1009200044688A0006FA02F724EA0704446044682F
:1009300003FA02F22243426001310829ECD1F0BDF2
:1009400093B24361C5E70B79C97903F0040304F05E
:100950000804234301F003010B43C0E70023BEE773
:10096000024B4FF6FF72C0E90023704700040001FC
:10097000016170470023037043708370C37003717B
:10098000437183710123C3717047C36923F400630A
:10099000C3610B78032B1BD8DFE803F0020E505421
:1009A000036823F400430360036823F48043036077
:1009B000036823F480630AE0036823F400430360C0
:1009C000036823F480430360036843F48063036097
:1009D000CB79026863F3492202604A78012A39D14F
:1009E000012B37D1036843F480730360036862F31B
:1009F000820303608B7803F00702072B43688CBFE8
:100A000043F4807323F480734360036862F3C50387
:100A100003600368CA7862F3C713036003680A7946
:100A200062F3CB2303604A79036862F341030360F6
:100A30008A79036862F3000303607047036843F434
:100A40000043B0E7036843F400430360036843F4E2
:100A50008043ACE7036823F48073C6E7036861F35F
:100A6000082303607047036861F3861303607047CF
:100A7000014BD860704700BF00200240084BDA6885
:100A8000D10709D4DA68520708D4D868C0F3001037
:100A9000C0F10300C0B270470020704701207047CA
:100AA0000020024010B50446FFF7E8FF30B90CB94A
:100AB000042010BDFFF7E2FF013CF7E7002C08BF60
:100AC0000420F6E7034B044A5A6002F188325A6068
:100AD000704700BF0020024023016745024A1369A6
:100AE00043F08003136170470020024010B5094CA9
:100AF000236943F0020323616061236943F04003EB
:100B000023614FF08040FFF7CDFF236923F00203FC
:100B1000236110BD0020024010B5074C236943F04B
:100B20000103236101604FF48010FFF7BBFF2369CD
:100B300023F00103236110BD00200240002103E0E7
:100B40000B4B5B58435004310A480B4B42189A42F6
:100B5000F6D30A4A02E0002342F8043B084B9A42CB
:100B6000F9D3FFF759FE00F01FF8FFF77BFB704742
:100B7000640C00080000002000000020000000209D
:100B800020010020FEE710B501390244904201D156
:100B9000002005E0037811F8014FA34201D0181B93
:100BA00010BD0130F2E7000070B50D4B0D4D5B1B21
:100BB0009C100026A64209D100F01AF80A4D0B4BF2
:100BC0005B1B9C100026A64205D170BD55F8043B66
:100BD00098470136EEE755F8043B98470136F2E7AF
:100BE0005C0C00085C0C00085C0C0008600C000841
:100BF000F8B500BFF8BC08BC9E467047F8B500BF0A
:080C0000F8BC08BC9E467047D9
:100C0800544453464C555044005346524332442EA4
:100C180042000000000000006410B71DC8206E3BB1
:100C2800AC30D9269041DC76F4516B6B5861B24DEB
:100C38003C7105502083B8ED44930FF0E8A3D6D655
:100C48008CB361CBB0C2649BD4D2D38678E20AA0BD
:040C58001CF2BDBD10
:040C5C00D9010008B2
:040C6000B1010008D6
:0400000508000B3DA7
:020000040800F2
:102000000080002011BC000859BC000859BC000821
:1020100059BC000859BC000859BC00080000000069
:1020200000000000000000000000000059BC000893
:1020300059BC00080000000059BC00080D3B000816
:1020400059BC000859BC000859BC000859BC00081C
:1020500059BC000859BC0008753A0008C939000885
:1020600059BC000859BC000859BC000859BC0008FC
:10207000D93700088D37000859BC000859BC000842
:1020800059BC000859BC000859BC000859BC0008DC
:1020900059BC000859BC000859BC00084538000864
:1020A00059BC000859BC000859BC000859BC0008BC
:1020B00059BC000859BC000859BC000859BC0008AC
:1020C00059BC000859BC000859BC000859BC00089C
:1020D00059BC000859BC000859BC000859BC00088C
:1020E00059BC000859BC000859BC00080000000099
:1020F00000000000000000000000000000000000E0
:102100000000000059BC000859BC00080000000095
:1021100059BC000859BC0008000000000000000085
:1021200059BC000859BC000859BC000859BC00083B
:10213000000000000000000000000000000000009F
:102140000000000000000000000000009D4E00089C
:10215000000000000000000059BC000859BC000845
:1021600000000000000000000000000059BC000852
:1021700010B5064B064A1968013800D210BD5468E4
:1021800053681B1B8B42FBD3F6E700BF780000208F
:10219000001000E0044BDA6812F4806F4FF48062A4
:1021A00014BF5A611A617047000C0140114B12496B
:1021B0009A68A1FB02015868013010B40F4C5860B6
:1021C000501C986021F0010000EB510120689A62D8
:1021D000521A824208BF596B5A6118BF002100226F
:1021E000FF20D961012120605A6310BCDA621A62B3
:1021F0009961704778000020ABAAAAAA00000020CD
:10220000034B93F8380000B1704793F839007047DA
:102210007800002010B50B4CC0430A44914201D114
:10222000C04310BD11F8013B584000F00F0354F8B3
:10223000233083EA101303F00F0054F8200080EAE3
:102240001310EBE764C000080B4B93F83A203AB147
:102250000A4A127902F0FF0062B993F83B2052B9A2
:1022600093F83C30064883F0010303EBC30300EB13
:102270008320704700207047780000200000002075
:10228000002600200246104B90F8340D30B50C2487
:1022900004FB0033D489B3F84800844212D29289F7
:1022A00093F84A40B3F84630481E023A650200EB04
:1022B0004420B0FBF5F012FA80F098428CBF002069
:1022C000012030BD0020FCE764C0000830B551B9E2
:1022D00090F8342D134B0C2101FB023393F84B0083
:1022E00040F4706030BD012918D0C5890022143037
:1022F000AA4201D30020F5E7B0F8C0315BB10488F1
:10230000A14208D32344994205D2013B994205D00A
:10231000013188B2E6E701320230E9E740F6FF70AA
:10232000E0E700BF64C00008A0F16103192B02D8E8
:102330002038C0B27047A0F14103DBB2192B38D965
:10234000A0F13003DBB2092B33D920282ED02E2860
:102350002CD003062CD4402814D8222803D82128B6
:1023600018BF00207047A0F12302D2B2012393408E
:10237000104A13421DD1104A1A40002A0CBF0020F7
:102380005F207047602808D85D2812D85B280FD0DE
:102390005D2814BF00205F2070477B2809D0A0F182
:1023A0007D03DBB2022B28BF00207047002070475E
:1023B0005F2070477F0400200003000530B4EFF376
:1023C000108172B63B4B93F83D20D2B13A4C607904
:1023D00000F0FF0218BB93F83E5040202DB3A579C2
:1023E00042F02004A4B2002D46D093F84450002DB2
:1023F0005BD0324C42F0A80292B2626110B3402529
:102400004AE002F0FF002D4A18644FF4F47414619E
:1024100000222B4B9A6381F3108830BC704793F8ED
:102420003E5000204022002DD9D1A47940F0200553
:10243000ACB993F844403CBB40F0A800002A37D127
:102440001E4A106193F84420002AE1D09A6C002AB9
:10245000DED193F84C30002BDAD13A22D9E793F849
:102460004400E0B942F0800445F00800A4B280B214
:10247000124A54611061E5E793F8442012B940F024
:102480008800F5E7054622460C4842F0080245F070
:10249000800592B2ADB24261084A1561D2E70748A1
:1024A00042F0880292B24261F6E705462246D9E739
:1024B0004024DDE77800002000000020000C0140EF
:1024C000000400400D4AD3795BB283420DD10C4B1E
:1024D000FF21D1711A6D01321A6593F83D2022B1A6
:1024E00093F844200AB19A6C02B1704705494FF441
:1024F0008070032248611A64F7E700BF00000020E3
:1025000078000020000C0140094A0A4B4FF0000CF3
:102510000121FF2082F854C01872997192F83D0091
:1025200060450CBF60464FF4F0709065197145E747
:1025300078000020000000200A4B93F83A203AB1BE
:10254000094A127902F0FF0052B993F83B2042B9D0
:1025500093F83C30054803EBC30300EB832070473E
:102560000020704778000020000000200026002096
:102570000F4A92F8313013B9D36D0133D365536EDE
:10258000106E916E4FF0000C1B0482F83BC000F0FF
:10259000010C43EA0C23C0F34700034301F03F0062
:1025A00002EB800043F4004301319166C36670473B
:1025B00078000020BFF34F8F0549064BCA6802F42C
:1025C000E0621343CB60BFF34F8F00BFFDE700BF56
:1025D00000ED00E00400FA052DE9F041244C254E01
:1025E000002501234FF48067C4F86C5184F87031E2
:1025F0007761D4F864808047636EA3EB0803C4F866
:102600007431C4F86C5184F870513761C4F87801A2
:10261000D4F87C31072803F10103C4F87C311ED0C3
:1026200008281FD090B1031F052B04D8DFE803F062
:102630001D030311140E50220C230F49C4F88031DE
:102640000123CA6084F88431BDE8F0815022002360
:10265000F3E750220623F0E750220223EDE74FF480
:10266000C872F7E74FF47A72F7E750220423E4E7E1
:1026700078000020000C014000000020164A10B530
:102680004FF0440C8646D41C44F23B40A2F1580162
:1026900012F8013F83EA0C0301EB43030002B3F895
:1026A0005C3080B25840030AA2429C46F0D10EF141
:1026B000FF320EF2FF1E00E0030A12F801CF83EA98
:1026C0000C0301EB43030002B3F85C3080B27245A7
:1026D00080EA0300F0D110BDBCC000081C4A1D4BAD
:1026E0001D494FF48050506101E0013B0DD08A68D4
:1026F0009007FAD50522174B1748CA6001E0013B45
:1027000003D08268D207FAD5C368124B124901E0A0
:10271000013B1AD08A689007FAD500220D4B0E486B
:10272000CA6001E0013B10D08268D207FAD5C068C8
:10273000C0B2074B094A4FF480511961DB685168F8
:1027400053685B1A0F2BFBD97047FF20F1E700BFDE
:10275000000C014040420F0000380040001000E033
:1027600030B5013911F8013F03B930BD82684468C2
:10277000551CA5423CBF0468A354836801338360A1
:10278000F0E72DE9F0474FF0000890B0814617467A
:102790001D4646464FF02C0A29460A220023384699
:1027A00008F072F906F140036B440A2F02F130027F
:1027B00075F1000506F1010403F8202C08F1010869
:1027C00013D208AB334469460022A2421DDB04F158
:1027D00040030DEB030469460023484604F8403CDF
:1027E000FFF7BEFF10B0BDE8F087B8F1030F08D1C6
:1027F00004F140030DEB03044FF0000804F820AC93
:10280000B41C07460D462646C6E713F8010901F831
:10281000010B0132D9E77FB50A4E0B46541E01A9C0
:1028200003F00F051B09755D6554013CF8D202F1F8
:1028300010030DEB0302002302F80C3CFFF790FF9E
:1028400004B070BDA0C7000810B51446FFF788FF9C
:102850002146FFF785FFBDE81040014980E700BF32
:1028600090CA000800207047024B002083F88501C1
:10287000704700BF7800002000207047002070479C
:10288000024B012283F88521002070477800002048
:1028900000207047054B93F8852102F0FF0022B11C
:1028A000D3F83006003818BF0120704778000020A8
:1028B00008B5FFF7EFFF38B1044BD3F8C80218B1E1
:1028C000006908B1D0F8A00008BD00BF7800002062
:1028D000154B93F8AC0680B9B3F8AE266AB1D3F8BD
:1028E000B01659B1D3F8B406D3F8B016884205D360
:1028F000012283F8AC2693F8AC0670470B4989682F
:10290000C94302EAD11212F0030205D0D3F8B81677
:102910005A6E21B942F00102C3F8B826EBE7521A09
:10292000312AE5D8E7E700BF780000200010014019
:10293000F0B5013810F8013F0E46BBB1A3F14104D8
:1029400011F8012BE4B2192C98BF03F12005A2F174
:10295000410794BFEDB21D46192F9CBF2032D2B261
:10296000AA42E7D0192C9CBF2033DBB23078A0F10B
:102970004102192A9CBF2030C0B2181AF0BD0829A4
:1029800098BF0B4A0B4B88BF0B4AC3F8BC069CBFD1
:1029900002EB8102D2F85C22C3F8C026D3F8C42629
:1029A000C3F8C826D3F8B426C3F8CC26704700BFB6
:1029B00064C0000878000020B1C70008036943F034
:1029C00010030361034B0269D20601D5013BFAD122
:1029D000704700BF420D030000F5A06303EB4111F7
:1029E0000B6813F4402F04D00B68C3F38143022B10
:1029F0001DD10B6843F080430B60C36A13F47F0F53
:102A0000C3F307420B6831D162F3DF730B600B68CD
:102A1000002BA2BF0B6843F000430B6040F2E93388
:102A20000A68002A00DB7047013BF9D170470B6848
:102A300043F080430B60D0F8103413F47F0FC3F3DE
:102A400007420B6812D162F3DF730B600B68002B37
:102A5000A2BF0B6843F000430B6040F2E9330A6801
:102A6000002A00DB7047013BF9D1DFE7002BA2BF52
:102A70000B6843F000430B60D8E72DE9F0432C24AA
:102A800004FB01049DF824509DF81CC084F85151AA
:102A90004FEAD21E84F8441184F8453184F848C1C5
:102AA00084F846E184F847210668BDF82070C4F830
:102AB0004C7106F5A06000EB41104FF0FF348460CC
:102AC000C46844F4936444F00104C460140648BF2D
:102AD000C46806F5806844BF44F48074C460D8F8C4
:102AE0001890012404FA01F141EA0901C8F818100C
:102AF000B16941F00071B161016863F39C510160FB
:102B0000036862F3CE23036003686EF3CF33036080
:102B1000AB1E5D425D41036865F35143036003688A
:102B20006CF393430360036867F30A030360BDE833
:102B3000F08310B50246002300F2FE4030F9024F48
:102B4000002C04DA0133082BF8D1012010BD98B213
:102B50006FEA414103F520736FEA514122F81310E7
:102B6000F4E7D0F83C3170B51C69054624B3E16840
:102B7000154E00223020D3B2994202F101021DD835
:102B8000217859B107299EBF01F52073002225F84D
:102B900013202868FFF720FF00232370617959B1C3
:102BA00007299EBF01F52073002225F8132028680D
:102BB000FFF712FF00236371002070BD00FB034389
:102BC000C3F8A460D7E700BF00010100034600F18D
:102BD0000B010020C20142EA500213F8010B50FA27
:102BE00082F28B42D0B2F5D1704710B542780446DC
:102BF0000132002052010346022B08BF0423C10307
:102C000041EA5001E05C013310FA81F19A4288B246
:102C1000F2D810BDF0B520490246A1F5F97380B293
:102C2000B2F5805F28BF0B461C1D34F8043C2146DA
:102C3000ABB1984213D334F8025C2E0AEFB253FAC8
:102C400085F5AA4222DA082E09D8DFE806F0050940
:102C50000F121416181A1C00D21A34F81200F0BD04
:102C6000C31A03F00103C31A98B2F8E7103880B210
:102C7000F5E72038FBE73038F9E71A38F7E708308E
:102C8000F5E75038F3E7A0F5E350F0E70434002E01
:102C9000CBD101EB4703C7E7D6C4000838B50546DA
:102CA000002435F8020B08B9204638BDFFF7B2FF03
:102CB000E30343EA5403C2B212FA83F3C3F34E04AC
:102CC00044EAC334C0F3072010FA84F4A4B2E8E75E
:102CD000064A002332F8021B814201D19BB202E076
:102CE0000133802BF6D18033D8B2704792C50008EB
:102CF0007F2838B50D46144606D880B260B10CB1B5
:102D000028700124204638BDB0F5803F02D2FFF77D
:102D1000DFFFF3E70024F5E70446F3E70369102239
:102D200062F38A130361036943F020030361034BD9
:102D30000269920601D5013BFAD17047420D0300AA
:102D400010B50C4991F83134032B0AD191F8302495
:102D5000023A92B2002301F586609A4202D800231B
:102D6000037010BDCC18023394F8324400F8014BC4
:102D70009BB2F2E77800002070B51549082205469D
:102D800008F098FF0646F8B908221249A81808F07A
:102D900091FF0446D0B92B69012B12D12C22294670
:102DA000FFF738FAEB6A98420BD1AB694CF6F86240
:102DB000A3F10801914204D803F00303B3FA83F4AA
:102DC000640904F0010070BD0024FAE73446F8E716
:102DD000B3C70008BCC700082DE9F04FADF5057D6D
:102DE00004AC90F8346D4FF4007200210546204683
:102DF00008F033FF6D4943F6EB4323809023A37023
:102E00000B68CDF81330721C4B68CDF81730D2B276
:102E1000002E62D04FF0700E05274FF0A00CF9265F
:102E20000320092162730122A273614A217611688D
:102E3000CDF83B100223516823732374A376CDF899
:102E40003F1047F629031189E384ADF8431043F29C
:102E5000564358492385122384F82A300B68CDF84D
:102E600046304B68CDF84A304AF65523A4F8FE3177
:102E7000AB68927A6675A07584F811E084F813C087
:102E80002775002100936E688DF845204FF400737C
:102E900022460846DFF82081B047002695F8343DE9
:102EA0004FF00C0909FB0383B3F84030B3421DD83F
:102EB0004FF400720021204608F0CFFEEF897F0119
:102EC00095F8343D09FB0383B3F84220B7EB422F5A
:102ED0005AD30DF5057DBDE8F08F4FF0E00E0B27BE
:102EE0004FF0400CF026092012219BE74FEA462ABA
:102EF0000AF50073274606F1010902934FF0030B10
:102F00004FEA4A012846B1FBFBF10391FFF7DEF9D6
:102F10000399CA07034634D4284A02FB0AF0B0F1E9
:102F2000553F23D8DBB207F8013B029B0AF1010AA7
:102F30005345E5D1AB6800936F684FF400732246A8
:102F400000214846B84795F8343D0C2202FB038324
:102F50000021B3F84000AB680093013030446F6843
:102F60004FF400732246B8474E4697E70131284692
:102F70000393FFF7ABF9039B000140EA1320C3B2B0
:102F8000D1E7C0F30713CEE7B3F84000AB68009376
:102F9000C7F308014000C1F5007A013000EB57206B
:102FA0006E6853462246B047574489E7C5C70008B4
:102FB000CEC70008DAC7000864C00008ABAAAAAAF6
:102FC000F0B5FE2883B00C4650D040F202239A425E
:102FD00007D0464AD2F8D8360133C2F8D83603B003
:102FE000F0BD0846FFF74AFBB4F800526DBAABB229
:102FF0008342EED13D4E96F8DC36002B69D0D6F8F0
:10300000D076002F65DB3A4B1A691278974260DA66
:103010001A7A96F8E416914261D11A7D96F8E5166F
:1030200091425CD196F85420002A58D098692146E4
:103030004FF4007200EB472008F070FE2C4BDA6969
:1030400096F8ED3622F8175001215A1886F8EC163A
:1030500086F8ED260BB986F8EE76D6F8F03601370D
:103060000133C6F8F036C6F8D076B8E7052AB6D9E7
:10307000204B0D682049CDE90035EC460DF10700E5
:1030800044F23B431CF8012F82EA132201EB420277
:103090001B02B2F85C209BB2604583EA0203F1D1C7
:1030A000A28852BA92B29A4299D115F47F0FC5F311
:1030B000074394D00E4A126912789A428FD30B4A72
:1030C00092F8D416013BC2F8D0364B1C82F8D436A5
:1030D00085E7D6F8E0360133C6F8E0367FE7D6F864
:1030E000E8360133C6F8E83679E700BF78000020FB
:1030F00000000020A1A1A1FE64C000082DE9F0435A
:103100004FF0203385B0044653601360C2F8073097
:103110000F461646034600251A7872B9A5B920460F
:1031200007F0AAFC04EB0008002F3FD123782E2BD8
:103130000CD1002005B0BDE8F0832E2A02D1A342B5
:1031400018BF1D460133E7E7A846EDE7A045F0D0DC
:10315000A8EB0403082BECDC711EA04502D87DB956
:103160000120E7E714F8017B3846FFF7DDF8002877
:10317000DFD05F2801D15F2FDBD101F8010FECE731
:10318000681C07F079FC0328D3D8073615F8011F0F
:103190000029E5D00846FFF7C7F80028C9D05F2806
:1031A00001D15F29C5D106F8010FEFE76A46002378
:1031B000EC460A20B7FBF0FE00FB1E71303102F82E
:1031C000011B394609299946774603F1010303D9C2
:1031D000042BEFD14FF003097E228DF808201F4603
:1031E00002AA013F1CF8071002F8011F002FF8D1B6
:1031F000C3F10701A045234620D98F4215D309F119
:10320000020202A9F01908F089FD002DA8D00821BA
:1032100015F8010F0028A3D00B29A1D0FFF784F8DF
:103220000028F5D070540131F2E718780134FFF727
:103230007BF80028DED0F0550137DBE7002FDED128
:103240005F2333700127DAE7F8B5304ED6F8F4364D
:10325000984245D006EB430196F8F826B1F8FC7683
:103260000133C3F308030546C6F8F4367AB90122E0
:103270009D42A6F8FC7A86F8F82631D006EB430288
:103280000133C3F30803B2F8FC76C6F8F436B6F897
:10329000FC4A3C1BA4B2D72C07D9B4F5FC7F2AD238
:1032A000D6F8002B0132C6F8002B194A126A04EB3B
:1032B0005204B4FBF2F4A21E022A12D8013C0020F0
:1032C00006F0B0FE013CFAD1012006F0ABFED6F8C4
:1032D000F436A6F8FC7A01229D4286F8F826CDD174
:1032E000F8BD0022C6F8082BA6F80C2B86F80E2B8A
:1032F000C6F8102BBBE7A4F54672B2F5D87F3EBFE7
:10330000D6F8042B0132C6F8042BCEE77800002053
:103310000000002038B5EFF3108472B62D4B186A08
:103320004042C0F30800FFF78FFF84F310882A4B58
:103330000021D3F8000BD3F8044B83F84C10C3F8EA
:10334000200DC3F8244D5A6ED3F8285D521B952AE0
:103350000DD9224A224DD2F810C0AC4533D0642C8E
:1033600005D9B4EBC00F02D9012182F824105A6E9E
:10337000C3F82C2D5A6EC3F8302DD3F8342D013AF2
:103380003F2A1CD893F8ED1693F8D4065D6E93F897
:10339000E446090441EA006193F8EE06014393F81C
:1033A000DC0641EA002193F8E50603EB820240EADD
:1033B000054343EA0423C2F8383DC2F8381EBDE88D
:1033C0003840FEF7FBBF6428D1D9B0EBC40FCED98B
:1033D000CBE700BF00000240780000200000002082
:1033E00094C6000808B5FFF755FA80B1FFF760FAF8
:1033F000B0F5007F01D0072008BD0648012106F086
:10340000FFFB0028F8D00D28F5D00220F4E70120BA
:10341000F2E700BFB00F002010B5D0F83C211469CE
:10342000217E0129034606D0022935D009B901239E
:103430002376022010BD90F8392192B94FF48032E2
:103440004FF6A161C0E94A128279012AF1D1022125
:103450000C348171C0F82441A0F8302180F8392162
:10346000E7E7002106F080FC08B10328E2D1237BC6
:10347000022B4FF0010194BF0133022300228B4243
:10348000E360A4F8A61084F8A4201CBFA4F8D6100A
:1034900084F8D4200020CDE790F8392172B94FF498
:1034A0008170C3E94A0298790128C2D19971C3F8A1
:1034B0002421A3F8302183F83901BAE7002106F06E
:1034C00053FC0028B3D00328B3D1B0E72DE9F04F67
:1034D000D0F83C31DFF80CA187B0C3F810A090F809
:1034E0002010054603460026F2B2914203D803207D
:1034F00007B0BDE8F08F93F82B20082A07D193F886
:103500002C20062A03D193F82D20502A5CD00136B6
:103510003233E9E7013306EBC3032B4493F92A2046
:1035200093F82AB0002A3DDA9A8D93F82E3084F869
:1035300099B059462846A4F89A20059284F89C3000
:10354000FFF7F7FAC1B284F89810059A6B7A0293E4
:10355000CDE9008228462B7A5A46FFF78EFA0137CA
:1035600099F82A20FBB29A42D4D800264FF48073EF
:1035700094F89D10A4F8043132462846C4E929661F
:10358000C4F8AC60A4F8B06084F8B260C4F80CA1D0
:1035900007F01BF9284694F89810324607F015F901
:1035A0003046A5E79A8D93F82E3084F89EB05946A0
:1035B0002846A4F8A020059284F8A230FFF7B9FAB3
:1035C000C1B284F89D10C0E732235E4305EB0609C3
:1035D000054C99F82D3084F8A33000274FF00208ED
:1035E000BEE700BF0812002070110020006870477D
:1035F000C3698B4270B504460D4600F1200605D024
:1036000003688268314628469847E561304670BDB8
:103610000129F8B507460E4620D9838A8B421DD36F
:1036200001EB5105818901EB5521FFF7E1FFC5F35E
:103630000803B989C45C013501EB55213846FFF711
:10364000D7FFC5F30805435D44EA032000B2F30742
:103650004CBFC0F30B10C0F30B00F8BD40F6F77081
:10366000FBE7012910B5044609D0828A8A4206D3B5
:10367000FFF7CEFF012802D9A38A834200D200209F
:1036800010BD2DE9F04105460C461646002723885B
:10369000EBB9237ADBB9A3882A8A9A422ED9E98921
:1036A0005A1C01EB1311A28028464FEA4318FFF77A
:1036B0009FFFC8F3080800EB080393F800C0BCF1B3
:1036C000000F34D123887BBB2B8AA38016E061884E
:1036D000A1B1A288AB7DB2EB031F13D32846FFF73D
:1036E000C0FFA7800146608040B1E38801339BB2F0
:1036F000802BE38005D90123237267800020BDE879
:10370000F08100226B8A881EA97D03EB121301FB56
:1037100000312846FFF76CFFA28802F00F03013248
:1037200000EB4313A280C8E7A4F802C0E6E7BCF1AF
:10373000E50FACD0BCF12E0FA9D0DA7A02F00F0160
:103740000F29A4D01107A2D418685968324603C2C1
:10375000BCF1050F1889997A9170108004BFE52299
:103760003270DA7AF272DA8A32821A8BF2815A8BEA
:10377000B281DA7AD20606D403F11C00FFF736FFD5
:1037800070610120BBE70020FAE700BF08B50F4BCE
:103790001A68510509D54FF4806201205A60FEF77E
:1037A00091FE0B48002106F0A5FC084B1A68920513
:1037B0000BD54FF400725A600020FEF783FEBDE87F
:1037C00008400448012106F095BC08BD00000240F5
:1037D000241300202415002008B5174B1A68500642
:1037E0000DD5164A4021596092F84C30D3B9144B8C
:1037F0009B68990544BF4FF48073C2F8F4360E4BB2
:103800001A6892060DD520210C4A596092F84C3066
:1038100003F0FF015BB90A4B9B689B0548BFC2F8E8
:10382000F41608BD4FF48070FFF70EFDE7E7BDE822
:103830000840002008E500BF00000240780000209A
:10384000000C01405A4A5B4B4FF4007170B5516156
:103850009B68594C0B400CD194F83D204AB1574815
:10386000027932B194F83E201AB994F84C203AB15A
:1038700070BD94F84C30002BFAD0BDE8704049E59B
:10388000027984F8ED36FF2184F8EE1684F8D436F8
:103890001140002A74D14A4D027A84F8E426027D50
:1038A00084F8DC1684F8E526EFF3108E72B6454AEC
:1038B000516B126889B2C1F50071FF2956D812F414
:1038C000007F14BF4FF4807C4FF4007C066AC1F384
:1038D000080205EB42020131B2F8B4218C4502F135
:1038E0000102B2FBF6F21344F1D80269D5F8B8151B
:1038F00056883601002959D0090195F8BC25B21A1D
:103900008EF31088B3FBF6F506FB15330069D31A66
:103910000B440178B3FBF6F206FB12331B090022BD
:103920008088C4F8082B9A33B3FBF0F3606EA4F8D8
:103930000C2B8B4228BF4FF0FF330121C4F8D03647
:1039400084F80E2BC4F8102BC4F8042BC4F8002BF9
:10395000C4F8280D84F8F82684F84C10FEF72EFDE4
:10396000D4F8343D0133C4F8343D70BD12F4806F97
:1039700014BF4FF4007C4FF4407C6145A6D3B4E7FC
:1039800094F854200E4D02F0FF01002A84D0017AF1
:1039900095F8B425914201BF017D95F8B525891AA6
:1039A000B1FA81F10CBF4909194675E73146A4E720
:1039B00000040140000C01407800002000000020BD
:1039C0007011002000000240254B70B50222254DE9
:1039D0005A6195F83D308BB395F84C3073BB224B50
:1039E000224C9E6894F8B43516F0010627D14F2B6F
:1039F0002ED994F8B4351E4AB3FA83F35B09537198
:103A0000002393711123AB64FEF7D8FCD4F8C035C2
:103A10003F2B0ED8686E94F8B425D4F8C015330245
:103A200042EA004283F4807304EB81011343C1F83E
:103A3000C435D4F8C0350133C4F8C03570BD002B8F
:103A4000D7D094F8B435013BDBB284F8B435D0E775
:103A500094F8B4350133DBB284F8B435C9E700BF5C
:103A60000004014078000020000C0140701100208B
:103A700000000020214A224B012010B550619A68B5
:103A8000204B024093F83D1082EA000C614524D09F
:103A90007AB1596EC3F8301D002283F844209A652C
:103AA00083F83D2093F84C300BBBBDE81040FEF787
:103AB00085BC154CD4F8C4160131C4F8C4165C6E2C
:103AC000C3F8304D4FF4F071BDE8104083F8442046
:103AD000996583F83D00FEF771BC5FFA81FE83F8BB
:103AE0003DE0002AE1D093F84C30002BDDD0FFF709
:103AF00011FCBDE81040FEF761BC00BF00040140AE
:103B000000080140780000207011002010B51E4C04
:103B1000636E0133636694F8703133B1D4F86C315D
:103B200001337C2BC4F86C311BD8236C1BB1236C84
:103B3000013B2364DBB1A36C1BB1A36C013BA36409
:103B400063B1A36D4BB1A36D013BA3652BB994F891
:103B50003D3013B10D4B1B7973B910BDFEF72EFC30
:103B6000EFE70023C4F86C31FEF714FBDDE7084BE8
:103B70004FF480721A61DEE7012384F84430BDE817
:103B80001040FEF71BBC00BF7800002000000020A2
:103B9000000C01400C4B0D4901E0013B10D08A683C
:103BA0009207FAD510B4084B084CC86001E0013BFD
:103BB00008D0A268D207FAD5E068C0B210BC70473E
:103BC000FF207047FF20F9E740420F000038004017
:103BD00070B5164D164C4FF4805606F0FFFE6E6120
:103BE0000620FFF7D7FF2E61EB68626863689B1AB7
:103BF0000F2BFBD90D4D4FF480566E616020FFF7FF
:103C0000C9FF2E61EB680A4962684B689B1A0F2B4B
:103C1000FBD906F0E3FE074B0748002203219A6018
:103C20000260596383F8382070BD00BF000C01406A
:103C3000001000E0780000200000002070B50C4665
:103C40000546164606F0CAFE1D4B4FF480525A61D7
:103C50000320FFF79FFFC5F30740FFF79BFFC5F366
:103C60000720FFF797FFE8B2FFF794FF013E1548E2
:103C7000002504F1FF3CA119134B01E0013B1CD0CE
:103C800082689407FAD5104BC56001E0013B14D05F
:103C90008268D207FAD5C368DBB20CF8013F8C45C5
:103CA000EAD1074B094A4FF480511961DB6851682A
:103CB00053685B1A0F2BFBD970BDFF23EDE700BFE4
:103CC000000C01400038004040420F00001000E0AE
:103CD000104B93F8C8260346084622B1B3F5B46FDB
:103CE00012D2092103E0B3F5346F0DD21221B3FBD8
:103CF000F1F201FB123302EB420C5B0201464FF47E
:103D0000007203EB0C3099E74FF40072002107F0CA
:103D1000A4BF00BF70110020DAE700BF10B50C4649
:103D200082B008226946FFF789FF009A23689A4209
:103D300004D0012080F0010002B010BD019A636838
:103D40009A42F6D1002080F0010002B010BD00BF01
:103D500070B50C4601F51055461A03E004F5807461
:103D6000AC4215D00B494FF480722046FFF766FF36
:103D700009494FF480723019FFF760FF05484FF48E
:103D80008072811807F096FF0028E7D0002070BDF0
:103D9000012070BD3C1800203C1900202DE9F04F97
:103DA000404B414E5B68DFF8049183B005460193B8
:103DB00096F8EC36884623B1D9F8CC380133C9F8E7
:103DC000CC383B4F96F83B30BC69002286F8542033
:103DD00008EB45003D7287F8148013B1336E8342BF
:103DE00035D000EB400000034FF410522146FFF79E
:103DF00025FFFB6904F5105BA3F1020A2046FEF7DC
:103E00003DFC04F50074A3452AF8020FF6D1012108
:103E1000244B86F854105B680199BA6A5B1A2549ED
:103E2000A1FB0212920CB3FBF2F3C9F81839726EBF
:103E3000B36E45EA082545EA02455A1C03F03F03E4
:103E400006EB8303B266DD6603B0BDE8F08F204663
:103E500096F83C40184984F0010404EBC40401EBDB
:103E600084214FF4105207F059FF144BD7F81CC0AF
:103E700003EB840E0EF1200B74460FCC5C450CF165
:103E8000100C0EF1100E4CF8100C4CF80C1C4CF8E9
:103E9000082C4CF8043CEFD1DEF80000CCF8000010
:103EA000B5E700BF001000E078000020701100208E
:103EB0000000002083DE1B4300260020401A002063
:103EC000F8B5164E164C4FF48057054606F086FDA1
:103ED00077610620FFF75EFE3761F368626863680A
:103EE0009B1A0F2BFBD90D4E4FF480577761202082
:103EF000FFF750FEC5F30740FFF74CFEC5F3072060
:103F0000FFF748FEE8B2FFF745FE3761F368044962
:103F100062684B689B1A0F2BFBD9F8BD000C01405F
:103F2000001000E0F8B5184E184C4FF480570546C5
:103F300006F054FD77610620FFF72CFE3761F36829
:103F4000626863689B1A0F2BFBD90F4E4FF48057A2
:103F500077612020FFF71EFEC5F30740FFF71AFE2A
:103F6000C5F30720FFF716FE0020FFF713FE3761A9
:103F7000F368064962684B689B1A0F2BFBD9BDE8B2
:103F8000F84006F02BBD00BF000C0140001000E01F
:103F90002DE9F0411A4E1B4C4FF480580546C6F8E7
:103FA000148006200F46FFF7F5FDC6F81080F36871
:103FB000626863689B1A0F2BFBD9114E4FF480582F
:103FC000C6F814800220FFF7E5FDC5F30740FFF7B0
:103FD000E1FDC5F30720FFF7DDFDE8B2FFF7DAFDED
:103FE0003846FFF7D7FDC6F81080F36805496268C8
:103FF0004B689B1A0F2BFBD9BDE8F04106F0EEBCD5
:10400000000C0140001000E02DE9F04F164685B08D
:1040100080460D4606F0E2FC002E00F0E38018F02A
:10402000010F40F0E280012E00F0D480DFF8EC9127
:10403000DFF8ECA17B4C2B78FF2B03D16B78FF2BA7
:1040400000F0E780AB46AC460020012108E0B6EB6B
:10405000430F00F101000CF1020CC0F0D5801946AD
:1040600015F810704B1CFF2F4FEA4307EFD19CF857
:1040700001E0CDF804C0BEF1FF0FE8D14300039387
:1040800001464FF4805702910620C9F81470FFF7DB
:1040900081FDC9F81070D9F80C300299DAF80400E3
:1040A000DAF804301B1A0F2BFAD94FF4805702911B
:1040B000AD20C9F81470FFF76DFDC8F30740FFF796
:1040C00069FDC8F30720FFF765FD5FFA88F0FFF789
:1040D00061FD2878FFF75EFD6878FFF75BFDC9F8A2
:1040E0001070D9F80C300299DAF80400DAF80430CC
:1040F0001B1A0F2BFAD9029106F070FC02990129C4
:104100004CD9023D05EB41054FF48057464BC9F8A9
:10411000147001E0013B0CD0A0688207FAD5AD20F5
:10412000414BE06001E0013B03D0A068C007FAD535
:10413000E3689BF802203C4B01E0013B0BD0A068F8
:104140008107FAD5384BE26001E0013B03D0A0685B
:10415000C007FAD5E3689BF80320334B01E0013B2D
:104160000BD0A0688107FAD52F4BE26001E0013B3C
:1041700003D0A068C207FAD5E368C9F81070D9F86F
:104180000C30DAF80400DAF804301B1A0F2BFAD9D5
:104190000BF1020B06F022FC5D45B7D14FF48055C0
:1041A000C9F814500420FFF7F5FCC9F81050D9F8ED
:1041B0000C30DAF80410DAF804305B1A0F2BFAD955
:1041C00006F00CFC039B019D9844F61A012E3FF665
:1041D00032AF3EB12978FF2904D0404605B0BDE892
:1041E000F04FD5E605B0BDE8F08F2978FF2902D061
:1041F0004046FFF7CDFE013E012E08F1010805F112
:1042000001053FF613AFE4E7BB1E0393EB180193E0
:1042100037E708F102080235023ED7E7000C0140FB
:10422000001000E00038004040420F002DE9F0414E
:10423000A44C94F8305084B0FDB1D4E9042303EBCE
:104240004303180302EB42031E03A36900F5F317AF
:10425000062B00F20281DFE803F02C4754849E0411
:104260001500FEF73BFA10F0010006D1E569022DBA
:1042700040F2D8800623A36120620025284604B0BE
:10428000BDE8F081FEF72AFA10F00105F5D1276AA2
:10429000E168B81939444FF4807207F58077FFF769
:1042A000B3FEB7F5105F2762E7D30723A36125624A
:1042B000E3E7276A84494FF48072B819FFF7BEFC20
:1042C000E16881484FF48072394407F0F3FC00281C
:1042D00040F09E8007F58077B7F5105F2762CCD35A
:1042E000002384F83030C9E7FEF7F8F910F0010038
:1042F000C3D1E569022D40F28E800223A3612062C2
:10430000BBE7FEF7EBF9C307B7D4256AE6682E448E
:10431000E81931464FF48072FFF776FEE36A6B4F7F
:1043200006F58071DB4316F8012B5A4002F00F03AB
:104330008E4257F8233083EA121303F00F0257F826
:10434000222082EA1313EED105F58075DB43B5F523
:10435000105FE362256290D303220023A2612362EF
:104360008BE7266A58494FF48072F019FFF766FC14
:10437000E16855484FF48072314407F09BFC0028F7
:1043800041D106F58076B6F5105F2662FFF475AF71
:104390000423A36171E74E4B0093D4E90A314B4FDC
:1043A00002930023ADF80630ADF80420C9436E46F1
:1043B0000DF10C0C16F8012B4A4002F00F03664574
:1043C00057F8233083EA121303F00F0257F8221034
:1043D00081EA1311EED100F5F417DFF8F88007F544
:1043E0008067C9430391102269463846FFF70CFEE7
:1043F0001022384608F2CC61FFF720FCD8F8CC2612
:10440000009B9A4215D0636A0133022B636242D843
:10441000FDF7CCFE31E707EB05300135FFF750FD26
:10442000E5612AE706EB05300135FFF749FDE56157
:1044300023E7D8F8D026019B9A42E4D1D8F8D426B5
:10444000029B9A42DFD1D8F8D82633689A42DAD153
:1044500000230522C4E906230FE7276ADFF87480EA
:10446000B8194FF4807208F2CC61FFF7E7FBE168FE
:104470004FF48072394408F2CC6007F01BFC28B975
:10448000D8F81C29144B9A427FF424AF636A013395
:10449000022B63620FD994F8383000222286002B59
:1044A0007FF4ECAE01230D490D4884F83830082222
:1044B000FFF7AAFDE2E600230522C4E906232362F2
:1044C000DBE600BF780000203C18002064C0000834
:1044D000544A4E317011002011FA11FA9CC600089E
:1044E00040F01E002DE9F0473A4B3B4C5F6894F8D2
:1044F0003B3006464BB1FFF799FE0028FBD0FEF794
:1045000037F894F83B30002BF5D194F83C3083F029
:104510000102EFF3108972B63049314802EBC2054F
:1045200000EB850801EB85259EBB84F854602D4E79
:1045300084F83C2003EBC303C6E9065801EB83254E
:10454000002384F8EC3689F31088C4E90833214845
:10455000A361337A317DE56001EB430140F2011242
:104560004368228600F1C640B26A216600F5DE107B
:1045700000F6836021611C49A0FB0202DB1B920C48
:10458000B3FBF2F3C1F82039012384F83B30BDE8D6
:10459000F087144E4FF41052B169284607F0BEFB65
:1045A000D6F81CC00CF1200ADCF80000DCF804107E
:1045B000DCF80820DCF80C30C646AEE80F000CF141
:1045C000100CD445F046EFD1DCF80000CEF8000026
:1045D000B6E700BF001000E07800002000260020B1
:1045E000401A0020000000207011002008B5084B80
:1045F00093F8C8362BB9BDE808400649064808229A
:1046000002E5064906480822FFF7FEFCF3E700BF73
:1046100070110020ACC6000800F01E00A4C60008FF
:1046200020F01E0010B40F4C94F8C8468C4611467A
:104630001A4624B1B0F5B46F11D2092403E0B0F5E5
:10464000346F0CD21224B0FBF4F304FB13004002CD
:1046500003EB430300EB033010BC6044D4E410BC14
:10466000704700BF701100202DE9F843364F374ED8
:1046700097F83A3033B13379002B63D197F83B3058
:10468000002B5FD197F83C30DFF8C480314D83F0C8
:10469000010303EBC3034FF4805405EB832506F0BD
:1046A0009DF9C8F814400620FFF774FAC8F81040C6
:1046B00004F16044D8F80C30626863689B1A0F2BD1
:1046C000FBD9DFF88C804FF48059C8F81490602033
:1046D000FFF760FAC8F81090D8F80C301E496268ED
:1046E0004B689B1A0F2BFBD9DFF8708006F076F928
:1046F000002198F8C846B960032340F6385228468E
:104700007B63316087F8381007F0A7FA85F8344DDD
:10471000134C94E80700022385E80700AB81284684
:10472000FEF75AFB98F8C8362BB9BDE8F8430D4997
:104730000D48082268E40D480822A4F11001FFF793
:1047400063FCF2E7BDE8F883780000200000002059
:10475000000C014000260020001000E07011002035
:10476000B4C60008ACC6000800F01E0020F01E0011
:104770002DE9F04F8FB00023B94D039303240DF1C1
:10478000180AB84808225146FFF758FADAF80030FC
:10479000AB4255D0013CF4D1B3494FF41050FFF770
:1047A000BDFA002800F0E6804FF4F314204604F52B
:1047B0008054FFF7B7FBB4F5F81FF7D1AB49A94810
:1047C0000822FFF721FCDFF8A882AA49AA48FFF7D0
:1047D000A5FAAA4B002839D10193A949A948DFF8C5
:1047E000A892FFF79BFA002388F8C8061F4600939B
:1047F000CDF80880102251464846FFF71FFA069B65
:10480000A24A93420DD1BDF81C80B8F1A10F08D87F
:10481000BDF81E202AB9009BF3B1089A049B93426D
:104820001AD30137032F09F54059E3D1009BDDF876
:104830000880002B44D1019A93600FB0BDE8F08F3F
:10484000934BDAF804209A42A4D1BCE71A460193AC
:10485000012382F83830C0E78E4E8F4DA9F5105BEA
:1048600000248E494FF480725846FFF7E7F98B49D0
:10487000E34311F8012B5A4002F00F03B14255F8FF
:10488000233083EA121303F00F0255F8222082EA44
:104890001313EED10BF5807BD9456FEA0304E0D109
:1048A0000C2220465146FDF7B5FC099A9042B8D13A
:1048B000089BCDF80C80CDE9043701230093B0E7C5
:1048C000DDF814A0039C049B019A4FF4405606FBAC
:1048D0000AF505F5F31904FB06F60133494630469F
:1048E0009360FFF735FA0028A7D15246A31A03EBCD
:1048F000430305F5F4151C0305F58065A4F5F314D1
:1049000006F5805B06F5005ACDF800803046FFF7CB
:1049100009FB5846FFF706FB5046FFF703FBC84666
:1049200040465E494FF48072FFF788F904EB0800B7
:104930005A494FF4807208F58078FFF765FBA84567
:10494000EED149463046FFF703FA00286DD1013F0A
:10495000DCD1019C94F83830002B7FF46EAF4549D0
:1049600045480123082284F838300FB0BDE8F04FE5
:10497000FFF74ABB4A494FF41050FFF7CFF9002820
:104980007FF412AFFDF760FC054605F07BFD0028C3
:1049900047D0AF89EE8905F12008224641463846C6
:1049A000FFF7BAF9EA7D95F82030EF61F61B9A42DD
:1049B00007EB560635D12A6A3A4B02EA03079343BE
:1049C0002FD1224641463046FFF7A6F995F8202020
:1049D000EB7DEE619A4224D12B6A37EA030320D1A2
:1049E00024492548FFF79AF92022034651462046DC
:1049F0001C46FFF723F9BDF82B301A48B3F5B46F06
:104A00001BD0FFF78FFA24BBDFF8648017491548E5
:104A10000822FFF7F9FAD8F824390133C8F8243905
:104A2000D3E60FB0BDE8F04F1EE6DDF80080D8F801
:104A300028390133C8F82839FFE69DF82550FFF7DB
:104A400071FA022DDFD10E490E480822FFF7DCFA79
:104A5000D9E7084908480822FFF7D6FAD4E700BF8B
:104A60005444534600F01E00C8C60008ACC60008F7
:104A7000701100209CC6000840F01E007800002045
:104A8000A4C6000820F01E0000841E00544A4E31C7
:104A9000425546323C19002064C000083C180020F2
:104AA000C0C6000800FFFF002DE9F843934D95F8BC
:104AB0004C304BB9924B934F9B68C3F3001383F078
:104AC0000103DBB287F8B53595F83B30002B59D19F
:104AD00095F83D3013B995F84C3063B395F84C30E8
:104AE0003BBBDFF8248298F8043013B398F82430E5
:104AF0001B064ED5834F97F8B43597F8B54598F80F
:104B000008209A42DEB2E4B20AD095F8EC36002BC7
:104B100040F0AB8021463046BDE8F843FFF73EB990
:104B200098F81430A342F0D195F8EC36002B40F001
:104B3000B980BDE8F88395F83B30002BCED195F8CD
:104B40003030002BCAD1FDF7C9FD10F00100C5D1EE
:104B5000AB686E4AA2FB031222F0010101EB520284
:104B600069499B1A0A68934200F0C1800B600124D6
:104B700003EB430300EB033000F5F310FFF7A0F95C
:104B80006C63ABE7FFF752FB0028A1D0FDF7F0FC08
:104B90009EE7FF2398F824405D4A88F82430D8F82F
:104BA0001030A4F101069B1AB6FA86F6B3FA83F325
:104BB00076095B09B34264B29CD095F8EC36002BC1
:104BC00040F0868095F83B304BB1FFF72FFB002873
:104BD000FBD0FDF7CDFC95F83B30002BF5D1494FCC
:104BE00097F8C836B34202D176E0FFF71FFB95F87D
:104BF0003030002BF9D1012C40D1464946480822DB
:104C0000FFF702FA87F8C846EFF3108272B6404900
:104C10004FF49073C8F820300023C8F81010C7F87C
:104C20002C69C7F8B83587F8BC3582F310884FF483
:104C30001052D8F81800F62107F00FF8D8E9064608
:104C4000023E04F510592046FDF718FD04F50074E6
:104C5000A14526F8020FF6D1012385F8EC36D7F8E6
:104C600030390133C7F8303945E70020FFF73AFC07
:104C700021463046BDE8F843FFF790B82748FFF7D4
:104C800051F995F83830EBB9254924480822FFF747
:104C9000BBF9002387F8C836EFF3108272B62149BA
:104CA0009023B7E795F83B30002B7FF442AF6B6E53
:104CB000D5F82C2D9B1A642B7FF63BAFBDE8F8434B
:104CC00001200FE4184919480822FFF79DF9DBE796
:104CD0000120FFF707FC75E7EFF3108272B6012C95
:104CE00015BF10490A4990234FF4907392E76C6BFB
:104CF000022C3FF6F3AE2003013439E778000020A0
:104D0000000C01407011002000000020ABAAAAAAEC
:104D100094C60008A4C6000820F01E0000F01E0083
:104D2000ACC60008D0C600089CC6000840F01E00B3
:104D30002DE9F047264C274DD4F86480064640F212
:104D4000DB5943F6982707E00EB1B047E0B94AF6C1
:104D5000AA232B60FFF7A8FEEFF3108A72B694F82F
:104D60003D3053B994F84C3003F0FF022BB9636E19
:104D7000D4F8301D5B1A4B4509D88AF31088636E4E
:104D8000A3EB0803BB42DFD90020BDE8F087124B3C
:104D900001251A7184F844209D71A265FDF70EFB70
:104DA0008AF3108894F8EC3673B994F83B304BB121
:104DB000FFF73CFA0028FBD0FDF7DAFB94F83B3014
:104DC000002BF5D10120E0E72846FFF78BFBECE74D
:104DD000780000200030004000000020F8B50F4EA1
:104DE0004FF4805777619F20FEF7D4FE0020FEF736
:104DF000D1FE05460020FEF7CDFE04460020FEF75A
:104E0000C9FE074A3761F368516853685B1A0F2B74
:104E1000FBD9240244EA05442043F8BD000C0140BC
:104E2000001000E010B588B0FFF7D8FF194B98428A
:104E30002CD10DF10F03002484F0A5020134102CB5
:104E400003F8012FF8D11448FFF76CF822461248F6
:104E50006946FEF7F3FE04AC6B4613F8012BFF2AFC
:104E600014D19C42F9D10C4810222146FFF7CCF80E
:104E7000094810226946FEF7E1FE102221466846E5
:104E800006F018FFB0FA80F0400900E0002008B0FA
:104E900010BD00BF4125BF0000F01F002DE9F74FF6
:104EA0005F4DD5F888A1DAF81430DA0740F1C981EE
:104EB000DAF81430DAF818100B40DB064AD5D5F8CA
:104EC0008C01836923F010038361036A03F4F011FA
:104ED000B1F5802F37D1C3F30A16A6B303F00F0341
:104EE0002C2101FB0351D1F8F04264B3F71CBF1031
:104EF000002100F5805EDEF8002044F82120013119
:104F00008F42F8D100F5A0612C2701EB431107FB7C
:104F100003533444C3F8F042D3F8F8423444C3F89E
:104F2000F8420C69C4F3C9446CB10C6824F08044A5
:104F30000C600C6844F000440C6093F8EC1281F0B3
:104F4000010183F8EC12836943F01003836110239D
:104F5000CAF81430DAF81430DAF818100B409F0150
:104F600040F19A80D5F88C012E4CD0F814349BB2C5
:104F7000019300F5A06B04F2B44604F2FC474FF035
:104F800000084FF00109019B09FA08F1194271D09C
:104F9000DBF80030DBF8082013F4004FDBF80C30AE
:104FA0005FFA88F102EA030C00F0FD811CF0200F8B
:104FB00003D02023CBF808305CE01CF0080F0ED0A3
:104FC000DBF80C3043F00203CBF80C301823CBF89D
:104FD00008300523C4F85C31FDF7FEFC4AE01CF400
:104FE000806F0FD0DBF80C3043F00203CBF80C30AD
:104FF000FDF7F2FC4FF48261CBF808100821C4F8E9
:105000005C1137E01CF4007F0ED0DBF80C3043F06D
:105010000203CBF80C30FDF7DFFC4FF4007192E196
:1050200078000020000200201CF0010E00F0238117
:10503000C4F85C91CBF80890DBF80030C3F3814CE6
:10504000BCF1020F05D0DBF8003013F4402F40F024
:10505000FB80DBF80C3043F00203CBF80C30FDF79B
:10506000BBFC1021CBF8081094F8641181F0010109
:1050700084F8641108F10108B8F1100F0BF1200B4E
:1050800004F12C0406F1040607F101077FF47BAF5D
:105090004FF00073CAF81430DAF81430DAF8181048
:1050A0000B401E0707D5D5F838360133C5F838361A
:1050B0000823CAF81430DAF81430DAF818100B4064
:1050C0009C0744BF0223CAF81430DAF81410DAF847
:1050D0001830194241BF0C2385F890314FF000433E
:1050E000CAF81430DAF81430DAF818100B409800C7
:1050F0003DD5D5F88C01836823F001038360FDF76B
:105100005DFC00F58064FDF709FE00F5E06600F542
:10511000A06319680029BEBF196841F08041196079
:105120002033B342F5D14FF0FF33636143618368AD
:1051300043F00103836003210023C5F8303685F86E
:105140009011C5F88C36C5F89036C5F89436C5F878
:105150009836D0F80034012161F30103C0F800341F
:105160004BF6803363604FF00053CAF81430DAF81E
:105170001430DAF818100B40D90136D5D5F88C0167
:10518000D0F840349A0700F5806423F01E0106D55C
:10519000DF0744BF0126C5F8306641F002011E0753
:1051A0001ED513F0040617D003F4C026B6F5802FE1
:1051B000D0F800640BBF0227012767F3010667F3ED
:1051C00001060BBFC0F80064C0F8006441F27070C3
:1051D0004BF680306060012641F00801C5F8346666
:1051E000DD0648BF41F010012164DAF81430DAF826
:1051F00018100B40980244BF4FF40013CAF8143043
:10520000DAF81430DAF818100B40D90244BF4FF422
:105210008013CAF81430DAF81430DAF818100B409A
:105220005A0144BF4FF08063CAF81430DAF81430E2
:10523000DAF818100B405B0444BF4FF48043CAF8FF
:10524000143003B0BDE8F08FDBF80010C1F38141EA
:105250000329DBF8001006D141F00051CBF8001013
:105260000121397000E7C1F3814C6146012908BF73
:1052700087F800C0F8E61CF0020F52D0DBF80C10E3
:105280006EF34101CBF80C10D4F85C1101390729F9
:1052900000F2DF80DFE801F004DD2CDDDF07DD0751
:1052A00001213970D5E0316801310329316085BFB2
:1052B00004213970022100218CBF31603970DBF884
:1052C000001011F4402F06D0DBF80010C1F381412B
:1052D000022940F0BE80DBF8001021F08041CBF8BD
:1052E0000010DBF8001041F00041CBF80010B0E0F6
:1052F000DBF8001011F4402F05D0DBF80010C1F3EB
:10530000814102290BD1DBF8001021F08041CBF85C
:105310000010DBF8001041F00041CBF80010022132
:10532000BFE71CF0800F11D0DBF80C3043F0020314
:10533000CBF80C300623C4F85C31FDF74DFB316827
:10534000013131608021CBF8081093E61CF0100F7A
:1053500022D0DBF80030C3F3814CBCF1030F0AD13B
:1053600000233360DBF80C3043F00203CBF80C3041
:10537000FDF732FB0BE0DBF80030C3F3814CBCF1EE
:10538000020FEDD0DBF8003013F4402FE8D00321FA
:10539000C4F85C111021D6E71CF4807F3FF46AAE9C
:1053A0004FF48071CFE71CF0200F7FF402AE1CF4A5
:1053B000007F7FF42AAE1CF0010F0CD0DBF80C301C
:1053C00043F00203CBF80C30FDF706FBC4F85C9108
:1053D000CBF808904EE61CF0080F07D0DBF80C3035
:1053E00043F00203CBF80C300823F0E51CF4806E88
:1053F0007FF4F8AD1CF0020F3CD0DBF80C106EF31C
:105400004101CBF80C10D4F85C110139072920D8E0
:105410000FF2040C5CF821F03954000853540008D2
:105420001F53000853540008575400085B540008E9
:10543000535400085B5400080121397094F84C1152
:105440000239012905D894F8651181F0010184F829
:105450006511022177E7052123E73168013103292E
:10546000316085BF04213970022100218CBF316079
:10547000397030E71CF0800F0FD0DBF80C3043F0B0
:105480000203CBF80C303368013333600623C4F8D1
:105490005C31FDF7A1FA902155E71CF0100F3FF4A5
:1054A000E9ADDBF80C3043F00203CBF80C300023FD
:1054B00033605DE72DE9F84F0A9F8A4616460021C2
:1054C000BA1843F1000391424FF001029A41044699
:1054D0004AD3FDF7EDF9B0F5007F02D00120BDE819
:1054E000F88F224B224D4AF6AA221A60D5F83036A0
:1054F000002BF3D095F89031072BEFD1D5F8C832B7
:10550000D3F81090302303FB049393F8A420092AC6
:10551000E4D1184AC9F87420052283F8A4204FF07A
:10552000320808FB07F8D5F838B6C9F8144008F572
:10553000FA68234652463946304604F087FB022873
:1055400001D00020CBE7D5F8303633B9302303FB48
:105550000493092283F8A420C0E7D5F83836A3EBDA
:105560000B034345E5D9F1E70420B8E700300040DC
:1055700078000020081200202DE9F84F0A9F8A4683
:1055800016460021BA1843F1000391424FF0010280
:105590009A4104464AD3FDF78BF9B0F5007F02D05B
:1055A0000120BDE8F88F224B224D4AF6AA221A604C
:1055B000D5F83036002BF3D095F89031072BEFD18A
:1055C000D5F8C832D3F81090302303FB049393F836
:1055D000A420092AE4D1184AC9F87420062283F8C5
:1055E000A4204FF0320808FB07F8D5F838B6C9F800
:1055F000144008F5FA68234652463946304604F00E
:1056000025FB022801D00020CBE7D5F8303633B98E
:10561000302303FB0493092283F8A420C0E7D5F8C4
:105620003836A3EB0B034345E5D9F1E70420B8E78F
:105630000030004078000020081200200B0A0170A2
:1056400043700B0C090E8370C17070471A4B1B49D5
:10565000DA6942F08052DA6191F8502042F0040297
:1056600081F85020DA6922F08052DA611A6842F03B
:1056700001021A601A689207FCD55A6822F00302E8
:105680005A605A6812F00C0FC2F38101F9D11A68FE
:1056900022F0867222F480321A6041F6107259604C
:1056A000DA624FF480121A634FF41F029A60044BBF
:1056B0004FF000629A607047001002400070004096
:1056C00000ED00E0030C03F1804303F5043300F028
:1056D0001F001968012282400A431A607047F0B522
:1056E0008C790A68032C95B24AD0002C3DD14B79B5
:1056F000182B02D10561082303E0282B32D003F0D8
:105700000F03D1B2A9B1002492B20F2742FA04F1DB
:10571000C9070BD50668A10007FA01FC26EA0C06AA
:105720000660066803FA01F1314301600134082C78
:10573000ECD1FF2D15D92D0A00210F2645FA01F2D3
:10574000D2070BD544688A0006FA02F724EA070458
:105750004460446803FA02F222434260013108299E
:10576000ECD1F0BD93B24361C5E70B79C97903F081
:10577000040304F00804234301F003010B43C0E7D2
:105780000023BEE770B5B54C82B094F8C836EFF38D
:10579000108272B6002B00F02682B1484FF490714F
:1057A000B04EC4F82C39002530613162C4F8B855C8
:1057B00084F8BC5582F31088AB48FFF783FFAB48F1
:1057C000FFF780FF4FF4C010FFF77CFFA84AA949FC
:1057D000136BA94823F4E02343F40033136340F22E
:1057E0000313CDE900316946FFF779FF00F58060CA
:1057F00040F2112369460093FFF771FF4FF4F473F1
:105800000361694600934FF40473ADF80630FFF767
:1058100066FF29462846FEF7C1FA984AB36AA2FBFA
:1058200003239B09013BB3F1807F09D24FF0E022B3
:10583000F0215361924B83F8231007239561136184
:105840009048914DFFF73EFF4FF4A010FFF73AFF4D
:105850008E4B894880226946CDE90023FFF73FFF40
:105860002846002104F046FC05F50070012104F0F3
:1058700041FC874AB4F8B431D36200219162506987
:10588000136A916340F0010050611068814C61F32C
:1058900006101060106823F0F00340F080001060E4
:1058A00043F030031362536823F40063536053687A
:1058B0005360536823F48063536053685360936963
:1058C00061F3092393619369062060F30E339361BA
:1058D0009069704B40F4006090611A6B61F30002B4
:1058E0001A63196359639963D9635A6842F4706201
:1058F0005A601A6B4BF6EF7002401A631A6B42F053
:1059000010021A631A6B42F440521A631A6B012098
:1059100060F38B221A631A6B60F309221A631A6B05
:105920005D4842F080021A631A6B61F386121A63B3
:105930001A6B4FF4007142F020021A6359639863A6
:10594000DD63D3F8A420554DD2015EBFD3F8A42067
:1059500042F08072C3F8A420D4F8A030472262F34A
:105960001743C4F8A030236B43F0060300212363E0
:105970000D2004F02DFB226B454B494842F00102FB
:105980002263DA6842F48072DA601A6842F0010237
:105990001A60FFF797FE434B00224FF6FF71D96262
:1059A0009A625869012108435861186862F3061029
:1059B0001860C5F81C2DC5F8082BA5F80C2B85F828
:1059C0000E2BC5F8102B186A62F300001862186AD3
:1059D00040F002001862186A62F3C3001862986906
:1059E00061F301009861986962F307109861986902
:1059F00062F383009861186A08431862E36962F3EE
:105A00000003E361E261284B22626262A262C5F890
:105A1000183D636843F0F0036360E3694BF6EF768B
:105A20003340E361E369E361E36943F44053E361D5
:105A3000E36961F38B23E361E36961F30923E361C4
:105A4000E36943F08003E361E36962F38613E36192
:105A5000E369164A05F2FC602AE000BF70110020DD
:105A600094C600080000002002001800030018007F
:105A7000000001400004000100080140D34D621005
:105A800000ED00E001001C002413002000040801C8
:105A900000040040000002402C0400407800002078
:105AA0000B001800002C0140C12F0008342C0140CD
:105AB00043F020034FF40071E36121626262A0624F
:105AC000D4F8A430DB015EBFD4F8A43043F0807377
:105AD000C4F8A430454CD4F8A030382262F30F2328
:105AE000C4F8A030E36943F00603E3610C20002111
:105AF00004F06EFAE2693E4B3E4942F00102E26177
:105B0000DA6842F40072DA601A6842F001021A6040
:105B10008B68DB4303F0010385F83D3095F83D3099
:105B2000002B0CBF00234FF4F073AB65FCF746FC71
:105B30004FF4C010FFF7C6FD2F4A304B9068304934
:105B400020F00F00906090689060906820F0F00066
:105B5000906090689060106920F0F000106110690A
:105B600040F0100010611A680A401A605A680A4032
:105B70005A601A6840F2012002431A609A680A408B
:105B80009A60DA680A40DA609A6802439A60DA68D2
:105B90000243DA601A6822F002021A605A6822F0A0
:105BA00002025A601A6842F002021A609A6822F0F1
:105BB00002029A60DA6822F00202DA609A6842F021
:105BC00002029A600121062004F002FA0121072056
:105BD00004F0FEF90121172004F0FAF9012385F8F9
:105BE0003A3002B070BD07489021D9E5000002406C
:105BF000002C014000080140000001400004014069
:105C0000FEFDFFFFD0C60008F8B591F851308E6D4B
:105C1000013B05460C46092B0FD8DFE803F00510C1
:105C2000242B464D666E88971F2301F1200271795F
:105C300004F0A2FD022384F851300220F8BD7379EC
:105C4000034493F8F834012B09D18B6A3BB391F8E4
:105C50002C30802B01D10323EDE70523EBE7022B4A
:105C60003FD10123E7E773884A6D317804F098FD4E
:105C70000423E0E73178431893F8F834012B10D16E
:105C8000A06A7388984208D9626DC01A1A44A0624B
:105C90006265284604F084FDCFE70023A362072352
:105CA000C9E7052BC9D10923C5E733894A6D717945
:105CB00004F062FD0623BEE77179431893F8F834C7
:105CC000012B0CD1A06A33899842E6D9626DC01AC3
:105CD0001A44A0626265284604F04EFDADE7022B2F
:105CE000BBD0052BA9D10A23A5E70D2301F1400262
:105CF000317804F055FD08239DE73378034493F889
:105D0000F804012811D14FF480730A6CA1F85030C7
:105D10001B4B9A4292D14A6C4B6A9A428ED191F8AF
:105D20004C00003818BF012088E70528BAE77178D1
:105D300004F0DDFC024600287FF47FAF072384F8DF
:105D400051303178284604F040FD76E7B17904F00F
:105D5000CEFC074600287FF470AF71792C2303FB3B
:105D60000153284693F86121C2F10102D2B204F036
:105D70002CFD31783A46284604F027FD93E700BF12
:105D80005553425370B591F850300C4615461BB12F
:105D9000012B20D0022070BD1549164A1226C4E9F5
:105DA0000812802284F82C201946A662102204F1E1
:105DB0002F0005F052FF4FF4437384F82D50E38514
:105DC0006D0140F2011384F8305084F8336064654B
:105DD000A4F85030DEE7FFF717FF10B984F8500041
:105DE000D9E70128D6D1002384F85030D3E700BF8B
:105DF000555342438070605070B5D0F83C311C69F7
:105E0000637E23B1092B00F0E880002070BDD4E947
:105E100003359D4280F0DE80302303FB054292F87B
:105E2000A420042AF1D8DFE802F0030A4377C30074
:105E300003FB054340F20112A3F8A420E5E794F820
:105E40006C1081B10129E0D104F11C01FFF7DCFEE7
:105E5000002840F09F8084F86C002369302202FB08
:105E600003430222A1E0614E614BC4E90F6380232A
:105E7000242684F848301022666404F14B0005F0B3
:105E8000ECFEEDB241F20C22636FA4F84A206A01E5
:105E900084F84C20302202FB0533783384F84950D3
:105EA00084F84F60236740F20113A4F86C30ACE72C
:105EB00094F86C1071B10129A7D104F11C01FFF70E
:105EC000A3FEE8B9236984F86C00302202FB034387
:105ED0000322B1E74548464B6164C4E90F030C2334
:105EE000EDB284F8481084F84A30102204F14B00D7
:105EF00005F0B3FE84F849506D0184F84C50D2E7A8
:105F0000012882D1002384F86C302369302202FBFF
:105F100003434FF482728FE794F86C1004F11C066F
:105F2000E9B101297FF471AF3146FFF76DFE88BBFF
:105F3000E369302202FB05451BBAC5F89C30638C2F
:105F40005BBA9BB2C5F8A030236984F86C0002FBF1
:105F500003420921013382F8A410236155E7234A43
:105F6000234BC4E90F2308236364802384F848305B
:105F7000102204F14B0005F070FEEDB2636F84F85F
:105F8000495042F20C526D01A4F84A2084F84C505A
:105F90001E6788E701287FF438AF002384F86C304F
:105FA0002369302202FB0343042283F8A4202CE758
:105FB000EAB204F11C01FFF7E5FE00283FF44DAF03
:105FC00001287FF422AF2369302202FB03434FF400
:105FD000847231E70923637617E7D0F840315B6AB2
:105FE000002B3FF412AF98470FE700BF55534243D1
:105FF00080706050006870470346006859687047B9
:106000002DE9F843002507688D76D0E90E32134359
:1060100006460C4647D03B78042B49D12B462E46EA
:106020004FF0400820E0B8F5187F24D218F01F0F79
:1060300008BF08F10208013532F8080008F102082B
:106040002BB900F5205292B2B2F5006F0BD306F1D6
:106050001A01C6F1FF02214440EA0340FCF748FE62
:1060600048B10136002003463A6992F82310A9424C
:10607000D9D803B916B93F23A376012626440023B5
:10608000B37663733A69137903F03701DB06217342
:106090000BD402F13800FFF7AFFFC4E90001938988
:1060A0006381D3892381BDE8F88300200146F4E7AA
:1060B000036D01334FD1316C00234D1E184615F886
:1060C000012F202A00F101000DD0052A08BFE5228A
:1060D000092805D10B2B9FBFE6182E2777730133B4
:1060E000E618013372730B28E9D1E21800205073CF
:1060F000A27E002A3BD18BB304F10C0308255A7809
:10610000581C002A42D11B1B0C3B2AE0B9F1000F9E
:1061100005D100F520539BB2B3F5006F0CD308F105
:106120001A01C8F1FF02214440EA0940FCF7E0FDF2
:1061300048B108F10108002002358146FB68585B30
:106140000028E3D14046B9F1000F18BF0020231802
:1061500000229A76AFE7A946A846EFE73F23A37649
:106160000123234400229A760B7B03B96373CB7A15
:1061700003F03F03237301F11C00FFF73BFF0023F3
:1061800020606360CB8A63810B8B8BE72E2A1346DA
:1061900009D0413A192A03D80A7B154200D020338E
:1061A00043730346ABE71025FAE7110A027041700A
:1061B000110C120EC2701A0A037142711A0C1B0ED6
:1061C00081708271C3717047F7B5C378044613B309
:1061D000012500F158070095D0E91423394640788D
:1061E000FFF7CAF9D0B9D4E91423E070D4E90C6000
:1061F000216A961B63EB00008E4270F100000AD208
:10620000A078022807D152180095607843F1000366
:106210003946FFF7B1F9002003B0F0BD2846FBE78F
:10622000F7B515461E46D0E91423B34208BFAA426B
:10623000044614D0FFF7C8FF78B9012700976078AB
:106240002A46334604F15801FFF734F918B14FF0EC
:10625000FF3538462E46C4E9145603B0F0BD002081
:10626000FBE701292DE9F84305460C46164608D9F7
:10627000C3698B4205D90378022B68D003D8012B60
:1062800022D002202DE0033B012BFAD8CA09D0E925
:106290000C13521843F10003FFF7C2FF00BB2B465B
:1062A000A40013F8582B042A04F4FE7407D018191C
:1062B000FFF7A0FE26F0704600F07040064331461E
:1062C0001819FFF7BBF936E001EB5109D0E90C13BF
:1062D0004FEA5922521843F10003FFF7A1FF10B112
:1062E0000120BDE8F88305F1580809F10107C9F359
:1062F000080914F0010418BF18F80920F3B21EBFF2
:1063000002F00F0242EA0313DBB208F8093001235E
:10631000EB70D5E90C137A0A521843F100032846B2
:10632000FFF77EFF0028DBD1C7F308073CB1C6F3B7
:10633000071608F807600123EB700020D1E718F872
:106340000730C6F3032623F00F031E43F1E70A0AC2
:10635000D0E90C13521843F10003FFF761FF002846
:10636000BED1640005F1580304F4FF741A191E55D8
:10637000C6F307265670DEE72DE9F84F1746994613
:10638000D0E9123202390D0B01F007044FF0010B76
:10639000ED180BFA04F4064642F10008C1F3C80AEE
:1063A000E4B22A4643460135304648F10008FFF77B
:1063B00037FF10B1BDE8F88F9A4606EB0A0191F855
:1063C000583003EA0402003A18BF01224A4514D0AB
:1063D0006340013F81F8583086F803B0EAD064008A
:1063E00014F0FF04E9D10AF10103B3F5007F4FF087
:1063F00001044FF0000ADFD3D3E70220DAE7F8B553
:1064000000214FF0FF364FF0FF37C0E91467C1702D
:106410000446FFF705FF00284BD1B4F856524AF660
:1064200055239D4207D126490B2204F1580005F05F
:1064300041FC00283FD094F85830EB2B03D01833A0
:10644000DBB2012B2ED84AF655239D4206D11D49B9
:10645000082204F1AA0005F02DFC48B3B4F863301B
:10646000B3F5007F1ED194F86530DBB15A1E1A4295
:1064700018D1B4F86630ABB194F86830013B012B09
:1064800010D8B4F869306BB1B4F86B307F2B06D8F4
:1064900004F17800FFF7AEFDB0F5803F02D3B4F809
:1064A0006E3053B94AF65520854214BF03200220AE
:1064B000F8BD0420FCE70120FAE70020F8E700BF60
:1064C000E3C70008EFC70008F7B50446FFF77CFEF6
:1064D000054600283ED12378032B3BD12779012F95
:1064E00038D104F1580601464FF40072304605F0E9
:1064F000B4FB552384F85632AA2384F8573252232A
:106500004122722184F8583084F85930612384F88C
:106510005A3084F83F3284F85B2084F83C1284F8C7
:106520003D1284F83E22A16904F51070FFF786F849
:10653000616904F51170FFF781F8D4E90A2301328B
:1065400043F10003C4E91423009760783146FFF754
:1065500013F82571284603B0F0BDC3698A1E023BBB
:10656000934210B585BFD0E9103144890020E4FB87
:1065700002318CBF1846014610BD2DE9F74306468F
:106580000D46FFF721FE0446C0B929463046FFF705
:10659000E4FF06F15808C6E9140105460F464FF41A
:1065A00000722146404605F058FB4FF001097389FF
:1065B0009C4207D373891C1B18BF0124204603B0DB
:1065C000BDE8F083CDF800902A463B4670784146FE
:1065D000FEF7D2FF013547F100070028EAD1013468
:1065E000E5E70129F8B50C4640F29D800568EB69A6
:1065F0008B4240F298802B78013B032B00F2938072
:10660000DFE803F0022F415701EB5106D5E90C13E7
:10661000720A521843F100032846FFF701FE10B139
:106620004FF0FF30F8BDD5E90C13771C7A0AC6F39A
:10663000080652182E4443F10003284696F8586085
:10664000FFF7EEFD0028EBD1C7F308072F4497F8BA
:10665000583046EA0320E3074CBF0009C0F30B00A3
:10666000E0E70A0AD5E90C13521843F10003284663
:10667000FFF7D6FD0028D3D1640004F4FF742C4446
:10668000B4F85800CEE7CA09D5E90C13521843F103
:1066900000032846FFF7C4FD0028C1D1A40005F17E
:1066A000580004F4FE742044FFF7A4FC20F070406E
:1066B000B8E7D0E9043153EA0102C27901D0866813
:1066C00006B982BB8668022AA4EB06060FD1581EC3
:1066D00041F1FF31400A40EAC1506A890023490A6A
:1066E00004F0D2F986421ED81FD0601C9AE7032A14
:1066F00002D18369B342F8D8C369B3B9D5E90C13A1
:10670000E209521843F100032846FFF789FD0028EB
:1067100086D1A000583500F4FE702844FFF76AFCCB
:1067200020F000407EE701207CE76FF0004079E731
:1067300070B5C379032B044606D181688369CD18EF
:10674000A94203D10023E371002070BD4E1C2068D4
:106750003246FFF786FD0028F7D13146F0E7F8B55D
:1067600004460E461746E3690BB91846F8BD012BDF
:10677000A6EB030514BFAA1C3A462068691CFFF764
:1067800070FD0028F2D1E369013BE361EBE72DE9FD
:10679000F04705680646884649B96F69C7B1EB6995
:1067A000BB4298BF0127AB69A3B9002405E0FFF7FE
:1067B00018FF0128044603D801242046BDE8F087CD
:1067C000421C00F0D580EB698342F6D84746EAE7E1
:1067D0000127E8E72A78EB69042A40F08280A7F1D4
:1067E000020A023B9A4528BF4FF0000AD146D5E97C
:1067F00012134FEA1932521843F100032846FFF7EB
:106800000FFD002846D109F0070101238B40E969FB
:10681000C9F3C802DBB20239A8184C4690F85800F8
:1068200009F10109894500EA030035BF5B00002337
:10683000DBB2994628BF4FF4007208BB0234631ED6
:106840000333BAD801231A4621462846FFF794FDA0
:106850000228B1D0012800F08B80B8F1000F1ED1C2
:106860000223F371D5E90632023A93429CBF03F149
:10687000FF33AB612B796C6143F001032B719CE713
:10688000CA450AD0002BC7D10132B2F5007FAED283
:106890000123C1E74FF0FF34D1E70024CFE7F379BC
:1068A000022B07D17B1CA342DCD0B368FB1AB36177
:1068B0000323F37108F10102A242F36905D113B178
:1068C0000133F361CEE70223FBE70BB90123F36148
:1068D000224641463046FFF742FF002845D10123BA
:1068E000EFE7474515D17C1C9C4228BF0224214676
:1068F0003046FFF776FE01283FF45EAF431C37D0E9
:10690000F8B1D5F81490B9F1010F02D9EB699945A6
:1069100000D3B9464C46EB690134A34204D8B9F11F
:10692000010F3FF442AF022421463046FFF759FEE3
:1069300048B101283FF440AF013019D04C45EAD1AD
:1069400033E7002CE5D04FF0FF3221462846FFF711
:1069500088FC50B9B8F1000F84D022464146284641
:10696000FFF77FFC00283FF47DAF01287FF424AFC0
:106970004FF0FF3421E72DE9F04105682B78042B17
:1069800014BF4FF400124FF080528A4204460E4664
:1069900002D80220BDE8F081CA06FAD187680163F7
:1069A00007BB022B19D82B89B3EB561FF1D9D5E9B8
:1069B0000E0150EA0103C4E90E016763E9D0730ACE
:1069C0001B1805F15805C6F3080641F100013544CE
:1069D000C4E90E3125640020DCE7AB6BC771002BE6
:1069E000E1D01F46B5F80A804FEA482846453946A7
:1069F00003D22846FFF7B1FDDBE72046FFF7F1FDA4
:106A0000431C074607D00128C3D9EB698342C0D98C
:106A1000A6EB0806EAE70120BCE72DE9F843066883
:106A2000076B3378042B07F1200714BF4FF40013D2
:106A30004FF08053BB420446894603D8002200230E
:106A4000C0E90E23D4E90E3253EA020113D0C7F392
:106A50000808B8F1000F43D10133616B42F1000225
:106A6000C4E90E3251B93389B3EB571F38D800222D
:106A70000023C4E90E230420BDE8F8837389013B99
:106A800013EA57232CD12046FFF7ABFD012805461A
:106A900001D80220F0E7421C01D10120ECE7F369A4
:106AA000834216D8B9F1000FE1D0616B2046FFF7A1
:106AB0006EFE0546D0B10128EBD0431CEDD0014657
:106AC0003046FFF75AFD0028E7D1E37943F004038D
:106AD000E371656329463046FFF73FFDC4E90E01C7
:106AE00058364644276326640020C5E70720C3E7DD
:106AF000F8B50E46002107680446FFF73CFFF8B9D9
:106B00000546D4E90E233846FFF78AFBC0B93A7828
:106B1000236C042A1B780CD11B060ED505460121D7
:106B20002046FFF77AFF0028EBD0042808BF072093
:106B300006E0E52B01D0002BF0D10135B542EED1B6
:106B4000F8BDC2F307238A76CB760378032B01BF07
:106B5000120C0A75120A4A757047F8B504460068A7
:106B6000D4E90E230569FFF75BFB08B10120F8BDEE
:106B7000236C1A78852A01D00220F8E72A4603F10F
:106B8000200153F8040B42F8040B8B42F9D16B78C7
:106B90006FF05F0201335E0102EB4313B3F5007F38
:106BA000EAD800212046FFF738FF0428E4D0002867
:106BB000DDD1D4E90E232068FFF732FB0028D5D1C0
:106BC000236C1A78C02AD7D105F1200203F12001E5
:106BD00053F8040B42F8040B8B42F9D195F823309B
:106BE0000F222C33B3FBF2F3B6EB431FC4D3402781
:106BF00000212046FFF711FF0428BDD00028B6D1A0
:106C0000D4E90E232068FFF70BFB0028AED1236CDC
:106C10001A78C12AB0D1EA1903F1200153F8040B04
:106C200042F8040B8B42F9D12037BE42E0D8284607
:106C3000FBF7DBFF6B88181A18BF0120400096E7AE
:106C4000F8B503681C6905462046FBF7CEFFA07027
:106C5000000AE070296D66782846FFF78CFE012750
:106C600020B1022828BF0220C0B2F8BDD5E90E230A
:106C70002868FFF7D5FA0028F3D12B6C04F1200225
:106C800054F8041B43F8041B9442F9D12B68DF70BD
:106C9000002EE6D000212846FFF7BFFE013EDFE7C9
:106CA00003687BB11A4612F8011B1F2908D93A293B
:106CB000F9D11978302905D102339A4202D1026004
:106CC000002070474FF0FF3070472DE9F04F002350
:106CD00085B00B600D46FFF7E3FF013000F06182E5
:106CE000DFF80C83D8F83449002C00F05C82C14BEB
:106CF0002C60D3F8C8321A69237843B16378302105
:106D000001FB032393F8A530002B00F06F810023D3
:106D1000238092F8A530002B40F047820022002308
:106D20002046FFF76CFB022840F01A8194F81A32D3
:106D3000EE2B40F0F080012200232046FFF770FA8E
:106D4000002840F0078104F15809AB491022484659
:106D500004F0B0FF00283AD1A8486FF00F024FF0BE
:106D6000FF33032A8ABF04F1680100278F5C0825DE
:106D7000012107EA0106002E18BF83F0010343F347
:106D8000000606404900013D86EA5303C9B2F0D12E
:106D900001324C2AE5D104F16800FFF72BF9DB43FF
:106DA000834214D104F1AC00FFF724F980280ED1FE
:106DB00004F1A800FFF71EF98028064607D804F161
:106DC000A000FFF719F907468A46B54201D10D2008
:106DD000C1E0C5F39602D2194AF1000320464FEAFA
:106DE000C51BFFF71DFA002840F0B4800BF4C07BF0
:106DF0008349102209EB0B0004F05CFF08B1013558
:106E0000E3E70BF120004844FFF7F6F802460B4693
:106E10002046FFF7F4FA0128F1D80128D4E9142517
:106E200040F0F48004F162010B2311F8016F002E91
:106E3000CDD10133402BF8D1B4F8C030B3F5807F09
:106E4000C5D194F8C430092BC1D104F1A000FFF7DB
:106E5000D3F8074604F1AC00FFF7CCF894F8C6303D
