:020000040800F2
:1000000000800020290B0008710B0008710B00080C
:10001000710B0008710B0008710B00080000000054
:10002000000000000000000000000000710B00084C
:10003000710B000800000000710B0008710B000834
:10004000710B0008710B0008710B0008710B0008A0
:10005000710B0008710B0008710B0008710B000890
:10006000710B0008710B0008710B0008710B000880
:10007000710B0008710B0008710B0008710B000870
:10008000710B0008710B0008710B0008710B000860
:10009000710B0008710B0008710B0008710B000850
:1000A000710B0008710B0008710B0008710B000840
:1000B000710B0008710B0008710B0008710B000830
:1000C000710B0008710B0008710B0008710B000820
:1000D000710B0008710B0008710B0008710B000810
:1000E000710B0008710B0008710B00080000000084
:1000F0000000000000000000000000000000000000
:1001000000000000710B0008710B000800000000E7
:10011000710B0008710B00080000000000000000D7
:10012000710B0008710B0008710B0008710B0008BF
:1001300000000000000000000000000000000000BF
:10014000000000000000000000000000710B00082B
:100150000000000000000000710B0008710B000897
:10016000000000000000000000000000710B00080B
:100170000348044B834202D0034B03B11847704736
:100180000000002000000020000000000548064B91
:100190001B1AD90F01EBA301491002D0034B03B185
:1001A00018477047000000200000002000000000F9
:1001B00010B5064C237843B9FFF7DAFF044B13B1AF
:1001C0000448AFF300800123237010BD000000201D
:1001D00000000000DC0B000808B5054B1BB1054909
:1001E0000548AFF30080BDE80840FFF7CFBF00BF70
:1001F0000000000004000020DC0B0008024AD36865
:1002000083F48063D3607047000C0140013800D252
:10021000704700BFFAE7000070B506460025B469D4
:10022000AC4201D8012070BD641BB4F5807F28BFAB
:100230004FF4807405F5F9100949224600F58070E5
:1002400000F04AFA05F100610548224601F5005127
:1002500000F08FFC10B905F58075E0E70020E2E7BB
:100260001C0000202DE9F04F012191B0984800F0CA
:10027000F7FA04A800F05CFB002396488DF81430D0
:100280004FF480644FF4047304A9ADF8163004945D
:1002900000F0FBFA8F48214600F052FB00F0B0F965
:1002A000002860D0302204A94FF4F91000F014FAAD
:1002B00004A800F047FA8046002854D004A8FFF7AD
:1002C000ABFF044600284ED106460A9DA5422CD815
:1002D0000B9B9E4247D1804F4FF003094FF0FF33F5
:1002E000CDE9023300F0E4FB7C4D44464AF6AA26F1
:1002F0000A9B03F1006303F500539D4260D34FF066
:10030000000A0A9D554540F2B080002C69D100F0EA
:10031000DBFB0020B9F1010901D00028DED06D48D7
:100320004FF4806100F00CFB1DE02D1BB5F5807FC4
:1003300028BF4FF4807504F5F91069492A4600F585
:10034000807000F0C9F944B1304665492A4600F092
:10035000DFF904F580740646B7E70A99604800F0B3
:1003600021FA0028F0D15D4C4FF4F031204600F026
:1003700019FA002800F097805A48012100F083FA0A
:100380005848002100F07FFA5748012100F07BFA1D
:100390005548002100F077FA5448002100F060FA37
:1003A0004B48002100F05CFA5149236862688C6078
:1003B000BFF34F8FBFF36F8F83F308881047FEE7BB
:1003C000002C9CD034203E60FFF718FF00F046FB65
:1003D000284600F081FBC21E5442544105F5806559
:1003E00086E7A5EB0A05B5F5807F28BF4FF4807539
:1003F0000AF5F9103A493A4E2A4600F5807000F0A5
:100400006BF94AF6AA233B60D346354BF11AA94251
:1004100000D214B90AF5807A73E7B17870780904CC
:1004200041EA002130780143F078BBF1070F41EA3F
:1004300000610BD82BF0030000F140030DEB03002B
:1004400040F8381C0BF1040B0436DEE73420019130
:1004500000F004FB0BF10060019900F5005000F082
:1004600051FBC31E5C425C41ECE7002C3FF44FAFF4
:10047000342000F0F3FA03991E4800F043FB0328F0
:100480007FF445AF342000F0E9FA0299134800F0F8
:1004900039FB044600F018FB032C7FF43AAF04A8A4
:1004A000FFF7BAFE36E71448FFF7A8FEFFF7AEFEE7
:1004B0001148FFF7A3FEFFF7A9FE0F48FFF79EFEC6
:1004C000FFF7A4FE0D48FFF799FEFFF79FFEEAE74E
:1004D00003001800000C014000300040002000081C
:1004E0001C0000200E00100003000C000E001C0079
:1004F00000ED00E004200008F0490200A0BB0D0060
:1005000002484FF4805100F01BBA00BF000C0140BC
:1005100002484FF4805100F015BA00BF000C0140B2
:1005200038B50E4D04460E48022100F090FA70B125
:1005300021460B48094C00F085FA0948012100F0DA
:1005400086FA40B1064800F07FFAC0B202E0013DF1
:10055000E9D1FF2038BD013CEFD1FAE740420F005E
:100560000038004010B50446FFF7D2FF2046FFF7E1
:10057000D7FFBDE81040FFF7C3BF10B50446C0F376
:100580000740FFF7CDFFC4F30720FFF7C9FFE0B234
:10059000BDE81040FFF7C4BF38B50A4DFFF7B8FFFC
:1005A0000520FFF7BDFF0020FFF7BAFF0446FFF765
:1005B000A7FFE30704D5013DF0D1034B01221A70D8
:1005C00038BD00BF80841E001C01002070B5FFF7FD
:1005D0009FFF9F20FFF7A4FF0020FFF7A1FF064623
:1005E0000020FFF79DFF04460020FFF799FF24023B
:1005F000054644EA0644FFF783FF44EA050070BD60
:1006000013B52E48012100F02BF901212C4800F0F0
:1006100027F9684600F08CF92A4B2B484FF480529A
:100620006946CDE9002300F030F9FFF769FF4FF488
:10063000204300936946082323488DF8063000F0D4
:1006400024F94FF4804369460093002418231E4880
:100650008DF805308DF8064000F017F9684600F077
:1006600073F91A491A484FF08073CDE900136946AF
:1006700000F075F91648012100F0DAF9012114485B
:1006800000F0DBF90620FFF76DFFFFF741FF502078
:10069000FFF746FFFFF734FFFFF73AFF0120FFF7B0
:1006A0003FFF2046FFF73CFFFFF72AFFFFF78EFFD3
:1006B000084BC41A6042604102B010BD030018002C
:1006C0000E001C0000041002000C0140000101009B
:1006D000003800404125BF0070B50C46154606465F
:1006E000FFF75AFFFFF714FF0320FFF719FF30460B
:1006F000FFF743FF2544AC4203D1BDE87040FFF74C
:10070000FFBE0020FFF70CFF04F8010BF3E7000029
:1007100010B50B4CC0430A44914201D1C04310BDF7
:1007200011F8013B584000F00F0354F8233083EADE
:10073000101303F00F0054F8200080EA1310EBE7C9
:10074000080C000870B515490822054600F011FA9A
:100750000646F8B908221249A81800F00AFA044619
:10076000D0B92B69012B12D12C222946FFF7D0FFDB
:10077000EB6A98420BD1AB694CF6F862A3F1080121
:10078000914204D803F00303B3FA83F4640904F03C
:10079000010070BD0024FAE73446F8E7F40B0008C6
:1007A000FD0B00080368024603F160400138B0F514
:1007B000004F12D213F003000FD1536813F001025F
:1007C0000DD0084A93420BD901F1006101F50051A7
:1007D000994294BF002001207047002070471046C6
:1007E000704700BF002000081A4B1B49DA6942F02D
:1007F0008052DA6191F8502042F0040281F85020D2
:10080000DA6922F08052DA611A6842F001021A6055
:100810001A689207FCD55A6822F003025A605A6897
:1008200012F00C0FC2F38101F9D11A6822F086721E
:1008300022F480321A6041F610725960DA624FF485
:1008400080121A634FF41F029A60044B4FF000624B
:100850009A607047001002400070004000ED00E018
:10086000030C03F1804303F50433012900F01F005A
:1008700019684FF0010202FA00F20CBF0A4321EAA4
:1008800002021A607047FFF7EBBFF0B58C790A6877
:10089000032C95B24AD0002C3DD14B79182B02D1B4
:1008A0000561082303E0282B32D003F00F03D1B2F7
:1008B000A9B1002492B20F2742FA04F1C9070BD55F
:1008C0000668A10007FA01FC26EA0C060660066825
:1008D00003FA01F1314301600134082CECD1FF2D02
:1008E00015D92D0A00210F2645FA01F2D2070BD5A2
:1008F00044688A0006FA02F724EA07044460446860
:1009000003FA02F22243426001310829ECD1F0BD22
:1009100093B24361C5E70B79C97903F0040304F08E
:100920000804234301F003010B43C0E70023BEE7A3
:10093000024B4FF6FF72C0E900237047000400012C
:1009400001617047416170470023037043708370F9
:10095000C3700371437183710123C3717047C3690D
:1009600023F40063C3610B78032B1BD8DFE803F08B
:10097000020E5054036823F400430360036823F419
:1009800080430360036823F480630AE0036823F470
:1009900000430360036823F480430360036843F467
:1009A00080630360CB79026863F3492202604A786E
:1009B000012A39D1012B37D1036843F480730360D6
:1009C000036862F3820303608B7803F00702072B4E
:1009D00043688CBF43F4807323F4807343600368DF
:1009E00062F3C50303600368CA7862F3C713036048
:1009F00003680A7962F3CB2303604A79036862F3E0
:100A0000410303608A79036862F30003036070475F
:100A1000036843F40043B0E7036843F40043036012
:100A2000036843F48043ACE7036823F48073C6E7AC
:100A3000036861F3082303607047036861F386135A
:100A400003607047C1607047C06880B270478068BB
:100A50000840003818BF012070470000014BD860E3
:100A6000704700BF00200240084BDA68D10709D464
:100A7000DA68520708D4D868C0F30010C0F1030048
:100A8000C0B270470020704701207047002002402C
:100A900010B50446FFF7E8FF30B90CB9042010BDCB
:100AA000FFF7E2FF013CF7E7002C08BF0420F6E760
:100AB000034B044A5A6002F188325A60704700BF03
:100AC0000020024023016745024A136943F0800376
:100AD000136170470020024010B5094C236943F0B0
:100AE000020323616061236943F0400323614FF0F7
:100AF0008040FFF7CDFF236923F00203236110BD7F
:100B00000020024010B5074C236943F00103236124
:100B100001604FF48010FFF7BBFF236923F001034E
:100B2000236110BD00200240002103E00B4B5B5805
:100B3000435004310A480B4B42189A42F6D30A4AF2
:100B400002E0002342F8043B084B9A42F9D3FFF736
:100B50004BFE00F01FF8FFF785FB7047500C0008B4
:100B600000000020000000200000002020010020E4
:100B7000FEE710B501390244904201D1002005E0A2
:100B8000037811F8014FA34201D0181B10BD0130AA
:100B9000F2E7000070B50D4B0D4D5B1B9C1000265D
:100BA000A64209D100F01AF80A4D0B4B5B1B9C10B2
:100BB0000026A64205D170BD55F8043B9847013682
:100BC000EEE755F8043B98470136F2E7480C000879
:100BD000480C0008480C00084C0C0008F8B500BF91
:100BE000F8BC08BC9E467047F8B500BFF8BC08BC0E
:040BF0009E46704766
:100BF400544453464C555044005346524332442EB9
:100C040042000000000000006410B71DC8206E3BC5
:100C1400AC30D9269041DC76F4516B6B5861B24DFF
:100C24003C7105502083B8ED44930FF0E8A3D6D669
:100C34008CB361CBB0C2649BD4D2D38678E20AA0D1
:040C44001CF2BDBD24
:040C4800D9010008C6
:040C4C00B1010008EA
:0400000508000B29BB
:020000040800F2
:1020000000800020F9BE000841BF000841BF000861
:1020100041BF000841BF000841BF000800000000A8
:1020200000000000000000000000000041BF0008A8
:1020300041BF00080000000041BF00087D410008CA
:1020400041BF000841BF000841BF000841BF000870
:1020500041BF000841BF0008D540000825400008E6
:1020600041BF000841BF000841BF000841BF000850
:10207000D13D0008693D000841BF000841BF00088C
:1020800041BF000841BF000841BF000841BF000830
:1020900041BF000841BF000841BF0008453E00089D
:1020A00041BF000841BF000841BF000841BF000810
:1020B00041BF000841BF000841BF000841BF000800
:1020C00041BF000841BF000841BF000841BF0008F0
:1020D00041BF000841BF000841BF000841BF0008E0
:1020E00041BF000841BF000841BF000800000000D8
:1020F00000000000000000000000000000000000E0
:102100000000000041BF000841BF000800000000BF
:1021100041BF000841BF00080000000000000000AF
:1021200041BF000841BF000841BF000841BF00088F
:10213000000000000000000000000000000000009F
:1021400000000000000000000000000085560008AC
:10215000000000000000000041BF000841BF00086F
:1021600000000000000000000000000041BF000867
:1021700053B94AB9002908BF00281CBF4FF0FF31EE
:102180004FF0FF3000F00CB8ADF1080C6DE904CE53
:1021900009F0D8FEDDF804E0DDE9022304B0704761
:1021A000704700BF034613F8012B002AFBD1181A11
:1021B000013870470348044B834202D0034B03B1FC
:1021C00018477047640000206400002000000000F1
:1021D0000548064B1B1AD90F01EBA301491002D089
:1021E000034B03B1184770476400002064000020CF
:1021F0000000000010B5064C237843B9FFF7DAFF62
:10220000044B13B10448AFF300800123237010BDC9
:10221000680000200000000034C3000808B5054B2A
:102220001BB105490548AFF30080BDE80840FFF742
:10223000CFBF00BF000000006C00002034C30008C6
:1022400010B5064B064A1968013800D210BD546813
:1022500053681B1B8B42FBD3F6E700BF8C000020AA
:10226000001000E002484FF4806104F0C5BC00BFDC
:10227000000C014002484FF4806104F0BBBC00BF79
:10228000000C0140034BDB685B0501D5FFF7EABF9B
:10229000FFF7F0BF000C0140044B00221A60044B12
:1022A000187008B1FFF7DEBFFFF7E4BF840000201D
:1022B00088000020064B1B784BB1064A1368013397
:1022C0007C2B136003D900231360FFF7DBBF70473B
:1022D000880000208400002037B5284A2848D2F81A
:1022E000FC3043F08073C2F8FC30A2F55D4200245C
:1022F00054601168234B41F0010111601A684FF4DA
:102300007A73B2FBF3F2204B01211A6004F0BFF99B
:10231000684604F067FC1D4B1D484FF48065694614
:10232000CDE9005304F00AFC2946194804F062FC88
:102330001848012104F0ABF90121174804F0A7F96E
:10234000684604F04FFC154B15484FF4007269467F
:10235000CDE9002304F0F2FB2346224611484FF456
:10236000E13104F0D1FE0F48012104F000FF0D48D7
:10237000012104F0F7FE03B030BD00BF00ED00E026
:1023800003001800480000208C0000200004100208
:10239000000C0140020018000E00180000040802A2
:1023A0000008014000380140024B9868C043C0F368
:1023B000C1107047001001400A4A08B5536843F441
:1023C00080735360012005F089F8062005F07EF83F
:1023D00040F6C31005F074F805F06AF8BDE808404F
:1023E00005F05EB8002004E030B4144D144A2968AA
:1023F0001448154CA0FB0130136801331360134BD4
:1024000020F0010202EB50028A1A481CD9612168AF
:1024100028608A420E499A604FF0FF0008BF0D689D
:1024200020604FF0000218BF002501201D610A60E6
:1024300030BC1A625A61D860704700BFC0020020E9
:10244000C4020020ABAAAAAA00000020900000202D
:10245000B802002070B50C4601F51055461A03E08D
:1024600004F58074AC4215D00B494FF480722046BD
:1024700002F084FE09494FF48072301902F07EFEAA
:10248000064905484FF4807209F0D8FE0028E7D0CD
:10249000002070BD012070BDB8010020B8000020F0
:1024A00010B40A4CA4FB004C4FEA9C0C0C4611469D
:1024B0001A460CEBCC03A0EB43000CEB4C0C400297
:1024C00000EB0C30204410BC02F01EBF398EE33804
:1024D000084BA3FB00239B0803EBC302A0EB4200C5
:1024E00003EB430340024FF4007200EB033002F0B1
:1024F00045BE00BF398EE338084BA3FB00239B0881
:1025000003EBC302A0EB420003EB430340024FF492
:10251000007200EB033002F031BE00BF398EE338A9
:1025200010B40A4CA4FB004C4FEA9C0C0C4611461C
:102530001A460CEBCC03A0EB43000CEB4C0C400216
:1025400000EB0C30204410BC02F0DEBE398EE338C4
:1025500000EB40004FF41052000302F00FBE00BF2A
:10256000054B002240F2011CC3E90010C3E905221B
:10257000A3F824C0DA60704790000020014B93F864
:102580002500704790000020024B187800B170477A
:1025900002F04EBDBC0200202DE9F0418E4C94F8B3
:1025A000246084B0EEB1D4E9012303EB43031D039F
:1025B00002EB42031F03E36805F5F318062B00F254
:1025C000DA80DFE803F02B04466881AC130002F0E8
:1025D0002FFE30B92369022B40F2B5800223E3605D
:1025E00060610026304604B0BDE8F08102F020FEB4
:1025F00005460028F5D163692168D81919444FF4BC
:10260000807202F081FE636903F58073B3F5105F99
:102610006361E6D30723E3606561E2E760696F49C0
:1026200038444FF4807202F0A9FD656921686B4857
:102630004FF48072294409F001FE00286CD105F5A1
:102640008075B5F5105F6561CBD3002384F8243025
:10265000C8E702F0EDFD05460028C2D16369216894
:1026600003EB080019444FF4807202F04DFE6369D9
:102670002168206A19444FF4807202F07FFF636979
:10268000206203F58073B3F5105F6361A9D3032360
:10269000E3606561A5E76069504940444FF480728A
:1026A00002F06CFD656921684C484FF48072294442
:1026B00009F0C4FD58BB05F58075B5F5105F65617F
:1026C0008FD30423E3608CE7454B0093ADF80420DF
:1026D000E369206A02930C2269464FF00008ADF8C6
:1026E000068002F04BFF05F5F4153C4F039005F50D
:1026F000806569461022284602F006FE1022284610
:10270000394602F03BFD3A68009B9A4223D0A36908
:102710000133022BA36149D8FFF766FE61E702F09F
:1027200087FD00287FF45DAF2369022B03D90623C0
:10273000E360606155E707EB033002F04BFD23696E
:10274000013323614DE708EB033002F043FD2369B9
:102750000133236145E77A68019B9A42D7D1BA6871
:10276000029B9A42D3D1FA68039B9A42CFD10523A8
:10277000C4E9033835E76069184938444FF480727A
:1027800002F0FCFC6569216814484FF4807229440A
:1027900009F054FD28B9134A134B12689A427FF48A
:1027A0004EAFA3690133022BA3610ED90F4B1A78E8
:1027B0000021A184002A7FF415AF01240C490D48A3
:1027C0001C70082202F0A0FD0CE700230522C4E9DA
:1027D0000323636105E700BF90000020B8010020DB
:1027E000544A4E31D002002011FA11FABC020020E6
:1027F00068C3000840F01E0038B5154B93F824302C
:1028000003B138BD02F014FD0028FAD1114A124B71
:102810001268124D124CA3FB021323F0010101EBCD
:1028200053032968D21A91420DD02A60206002EB2E
:10283000420200EB023000F5F31002F0CBFC2368FB
:102840000133236038BD20680228DAD80003EEE7A0
:1028500090000020C0020020ABAAAAAA000000201D
:10286000B802002010B502F02BFD0548054C0649C2
:10287000064A00230360032023600860137010BD24
:10288000C002002000000020B8020020BC0200208E
:1028900002490348082202F037BD00BF70C3000898
:1028A00000F01E0038B501F063FFD0B1044602F01D
:1028B00007FD0C4A0C480D490023136003250C4A00
:1028C00003600D6020460B49137000F0FBFA2046B0
:1028D00000F082FBBDE8384007490848082202F0B2
:1028E00013BD38BDC002002000000020B802002047
:1028F000BC0200205CC3000870C3000800F01E008A
:102900002DE9F04FA04D87B00026032402AF9F4869
:102910000822394602F032FC3B68AB4270D0013CE1
:10292000F5D1082239464FF4105002F027FC964B9F
:10293000029A9A4200F0F280082239464FF4105071
:1029400002F01CFC924B029A9A4200F0FC8001F0CB
:102950000FFF904900F032FD002800F0FA800822B5
:102960008D48394602F00AFC874B029A9A4200F0E1
:1029700000810124854802F073FC884983480822BD
:1029800002F0C2FC002C00F0EE80854A136801338F
:10299000136008228048394602F0F0FB7A4B029A15
:1029A0009A4200F0AE804FF0000ADFF8F8B1DFF88D
:1029B000F891D04610223946584602F0DFFB029BC0
:1029C0004B450DD1BDF80C30A12B09D8BDF80E3008
:1029D00033B9BAF1000F18D0049B009A9A4214D36D
:1029E00008F10108B8F1030F0BF5405BE2D16F4B22
:1029F000BAF1000F33D1C3F800A007B0BDE8F08FE3
:102A00006B4B7A689A428AD1C3E7ABF51055002424
:102A1000284668494FF4807202F0B0FB20466549B1
:102A20004FF4807202F0AAFD05F580755D450446FD
:102A3000EED10C22394602F0A1FD059B9842CFD180
:102A4000049BBDF80C60CDE9003808F10108B8F12D
:102A5000030F4FF0010A0BF5405BABD1C7E7019CB8
:102A6000009A04EB44052D0306EB460905F5F31720
:102A70004FEA09390132394648461A60FFF7EAFC45
:102A80000028BAD1361B06EB460605F5F4153603C9
:102A900005F58065A6F5F31609F5805B09F5005A82
:102AA000484602F0DDFB584602F0DAFB504602F0E1
:102AB000D7FB3C4620463F494FF4807202F05EFB54
:102AC00030193C494FF4807204F5807402F01CFC0C
:102AD000A542EFD139464846FFF7BCFC00283DD15E
:102AE000B8F10108DCD1344B1A78002A85D133497A
:102AF0002948012408221C7007B0BDE8F04F02F0FD
:102B000003BC03F15F637A6803F51123ED339A4246
:102B10007FF449AF284B01221A7044E7284B7A68AA
:102B20009A427FF409AF4FF4F314204604F5805421
:102B300002F096FBB4F5F81FF7D1184913480822A4
:102B400002F0E2FB25E71F4B7A689A427FF4FFAE62
:102B5000E9E707B0BDE8F04FFFF7A4BE1A4A1368D3
:102B60000133136049E715490B48082202F0CCFBFA
:102B70000BE703F15F637A6803F51123ED339A42A3
:102B80007FF4F7AE0024F5E65444534600F01E00EF
:102B900047544B425CC3000840F01E0070C300085D
:102BA000C802002000841E00544A4E31C00200209A
:102BB00042554632B8010020BC02002068C300081C
:102BC0004255463155463031CC02002003464088FC
:102BD00001F00301884216D0002259809A601A88B9
:102BE0009888E2B11043032A988015D11A7C42B923
:102BF000DA6840F6B73101328A42DA6084BF0122D6
:102C00001A74002070479A681D2AE8D801321E2ADB
:102C10009A6008BF1880E2E70022DA60F1E7002836
:102C2000EFD01A7C4AB9421E92B2022A28BF002075
:102C300000229A80DA601A7470474FF48070F7E7C8
:102C400001F00301002301804180C91A18BF01214E
:102C50001E22C901C0E9022303748180704700006D
:102C600010B503F0CFFC194B142201211A6008465D
:102C700003F020FD03F0FBFC0028FBD02321022001
:102C800003F064FD0121022003F014FD192003F07C
:102C9000DFFC01280446F9D1002003F031FD0420B7
:102CA00003F03EFD042003F033FD204603F026FE32
:102CB000022003F077FD03F091FD0228FBD10020F4
:102CC00003F01CFEBDE8104003F03ABC00200240B7
:102CD00038B50B460546144618464FF400720021DD
:102CE00009F0BCFA0A2D03465FD003D88DB1012D3F
:102CF0005BD038BD132DFCD1002CFAD022680260C5
:102D00006268426022890281A27A82720822C272BB
:102D1000EFE7EB22027028493C2242709022827039
:102D20000A68C0F803204A68C0F80720022202732C
:102D300002748276012129224173817380F8262052
:102D4000E0217822417480F8272040215622C17466
:102D500080F828200B213422017580F82920F021E9
:102D6000164A417509218175002C08BF14461221AD
:102D7000017680F82A102268C0F82B206268C0F81B
:102D80002F2022890E49A0F83320A27A80F835201E
:102D90000A68C0F836204A68C0F83A20552280F800
:102DA000FE21AA2280F8FF21A3E7F0221A70FF2259
:102DB0005A709A709DE700BF84C3000878C300086A
:102DC0008DC300080068704783698B4270B5044664
:102DD0000D4600F11C0605D003688268314628467E
:102DE0009847A561304670BD30B5D1B101291BD0DF
:102DF000C58900221430AA4201D300200DE0B0F8AA
:102E0000C0315BB10488A14208D32344994205D262
:102E1000013B994208D0013188B230BD0132023005
:102E2000E9E74FF47F60F8E740F6FF70F5E7000050
:102E3000A0F16103192B02D82038C0B27047A0F16D
:102E40004103DBB2192B38D9A0F13003DBB2092BD7
:102E500033D920282ED02E282CD003062CD440285D
:102E600014D8222803D8212818BF00207047A0F1C9
:102E70002302D2B201239340104A13421DD1104ABB
:102E80001A40002A0CBF00205F207047602808D835
:102E90005D2812D85B280FD05D2814BF00205F206A
:102EA00070477B2809D0A0F17D03DBB2022B28BF3D
:102EB00000207047002070475F2070477F0400208B
:102EC0000003000538B540F634520D460021044693
:102ED00009F0C4F995E80700022384E80700A381FC
:102EE00038BDC389DF2B0CD8838901F2FF11C1F3F0
:102EF0004F21C8180238B0F5326F2CBF00200120D6
:102F000070470020704738B505460C46FFF7E9FFCB
:102F100078B104F2FF11C1F34F21AC896982002915
:102F200014BF2346002321442B82A98113B11F33F0
:102F3000136038BD2123FBE72DE9F04104468AB038
:102F40000D460868496809924FF0000802AECDF8B6
:102F5000148003C62989E08931801F46218AAB7A13
:102F6000A268BDF840C0ADF81C80ADF82210B37067
:102F700041010092202300098DF8133002AA6668EF
:102F8000ADF816C0ADF81870ADF81A70ADF81EC0E7
:102F9000ADF8207001F4F0711330B047E389218A55
:102FA00004EB43029182618AA2F8D4110B225343AD
:102FB00003F565732968E150E218696851602B894F
:102FC0001381AB7A9372E389A4F812800133E38111
:102FD0000AB0BDE8F08100002DE9F04F0022ADF508
:102FE000057D044604A91046FFF772FEA36800930E
:102FF000002165684FF4007304AA0846A84700261C
:103000004FEA4629B04604AF013609F5007B4FF080
:10301000030A4FEA49012046B1FBFAF10391FFF799
:10302000E3FE0399CB07054639D4254B03FB09F290
:10303000B2F1553F2AD8C5B209F10109D94507F8BF
:10304000015BE6D1A368009365684FF4007304AA9E
:1030500000213046A847A368009365684FF40073C9
:1030600004AA002108F10A00A847092EC8D14FF48C
:103070000072002104A809F0F1F8E5896D01B5F5A9
:10308000E05F0FD30DF5057DBDE8F08F01312046DF
:10309000FFF7AAFE000140EA1520C5B2CCE7C0F355
:1030A0000715C9E7A3680093C5F30801C1F50076C9
:1030B000680A6768334604AA1330B8473544DEE728
:1030C000ABAAAAAAF8B54FF407720D460021044630
:1030D00009F0C4F895E807004FF0FF3384E80700D3
:1030E000A36100212046FFF76FFEB0F8135002469F
:1030F0001DB92030FFF766FE054692F8FE31552BCC
:1031000041D192F8FF31AA2B3DD1B2F80B30B3F583
:10311000007F38D1537B012B35D1D6899EB3137CE8
:103120008BB3D08A70B3B2F811707A1EB2F5806F8B
:1031300029D2A5F1640140F6DC22914223D87A011C
:1031400013FB00F302F2FF123344520A1FFA83FC0E
:1031500012FA83F39BB2C3F101022A4492B28002B5
:103160000321B0FBF1F18A4224BF01F1FF318AB2A1
:10317000AB42A681A4F80EC027826382A2822CBF34
:1031800000200120F8BD0020FCE7F8B505460C46FC
:10319000EB8A2A8A9A420FD9E9895A1C01EB13114A
:1031A000EA8228465E01FFF70FFEC6F30802831885
:1031B000815C19B92B8AEB82002025E0E529E7D054
:1031C0002E29E5D0DE7A06F00F070F2FE0D016F09B
:1031D000180FDDD1825822605A6862601A892281F4
:1031E0009A7AA272052904BFE5222270DA7AE27285
:1031F000DA8A22821A8BE2815A8BA28103F11C00A7
:10320000FFF7E0FD60610120F8BD0129F8B5064631
:103210000F4602D9838A8B4201D20020F8BD01EB10
:103220005105818901EB5521FFF7CEFDC5F3080358
:10323000B189C45C013501EB55213046FFF7C4FD6F
:10324000C5F30805435D44EA032000B2FB074CBF09
:10325000C0F30B10C0F30B000128DED9B38A834200
:10326000DBD3DBE7408A0239084470470023036060
:103270004360038170470023012AC1F80230C1F87E
:1032800006300A8006D9838A934203D301234A80F9
:10329000CB80704701230B7270472DE9F041064641
:1032A0000C46154600272388D3B9237AC3B9A388CF
:1032B000328A9A4229D9F1895A1CA28001EB131152
:1032C00030464FEA4318FFF77FFDC8F308088044F3
:1032D00098F8002052BB238833BB338AA38014E0C4
:1032E000618891B1A3880F2B12D93046FFF78DFF6B
:1032F000A7800146608040B1E38801339BB2802BF8
:10330000E38005D90123237267800020BDE8F081A6
:10331000738A023B19443046FFF756FDA288531CBE
:10332000A38000EB4218D3E76280EEE7E52ABAD02B
:103330002E2AB8D098F80B1001F00F000F28B2D049
:103340000907B0D4D8F800102960D8F804106960D3
:10335000B8F808102981052A98F80A10A97204BF44
:10336000E5222A7098F80B20EA72B8F816202A8213
:10337000B8F81820EA81B8F81A20AA8198F80B202A
:10338000D30606D408F11C00FFF71CFD686101207C
:10339000BCE70020FAE770B505461646002401296F
:1033A00004D9AB8A8B4201D3B44201D1204670BD0F
:1033B0002846FFF72AFF01340146F0E72DE9F74FD1
:1033C00004460E46FFF77EFE054620B3A289E38938
:1033D0009B1A02EB5303CDE90023E846002704F1D2
:1033E0001C0A4FF6F07B58F8049B3368B2685146CC
:1033F00048469847A38BC4F818905B450BD1A37F30
:10340000FF2B08D17B1C022B4FF00107EBD1284684
:1034100003B0BDE8F08F0025F9E7F8B5C7890E467F
:1034200000F565740025AF4201D80020F8BD2046A4
:103430000B22314608F002FF0B3408B10135F2E7E8
:103440000120F3E72DE9F0434FF0203385B0044627
:1034500053601360C2F807300F4616460346002536
:103460001A7872B9A5B92046FEF79CFE04EB000855
:10347000002F3FD123782E2B0CD1002005B0BDE8C2
:10348000F0832E2A02D1A34218BF1D460133E7E77D
:10349000A846EDE7A045F0D0A8EB0403082BECDC30
:1034A000711EA04502D87DB90120E7E714F8017B21
:1034B0003846FFF7BDFC0028DFD05F2801D15F2F21
:1034C000DBD101F8010FECE7681CFEF76BFE032867
:1034D000D3D8073615F8011F0029E5D00846FFF7B5
:1034E000A7FC0028C9D05F2801D15F29C5D106F803
:1034F000010FEFE76A460023EC460A20B7FBF0FE17
:1035000000FB1E71303102F8011B3946092999462A
:10351000774603F1010303D9042BEFD14FF00309E0
:103520007E228DF808201F4602AA013F1CF80710D2
:1035300002F8011F002FF8D1C3F10701A04523466F
:1035400020D98F4215D309F1020202A9F01908F01F
:10355000D5FE002DA8D0082115F8010F0028A3D012
:103560000B29A1D0FFF764FC0028F5D0705401317D
:10357000F2E718780134FFF75BFC0028DED0F05545
:103580000137DBE7002FDED15F2333700127DAE755
:103590002DE9F843194C236898422CD0184E194F46
:1035A000317837F81390DFF860805A1CC2F30802B4
:1035B0000546226059B901239542A8F8009033705E
:1035C00019D0D318C3F3080337F812902360B8F862
:1035D00000100E4B0E48A9EB010189B24831A3FB44
:1035E0000131490901F090FC2268A8F800900123FC
:1035F00095423370E5D1BDE8F88300BFF8040020A0
:10360000F3040020FC040020F4040020398EE33889
:10361000D4020020F8B5EFF3108472B63E4B1B784D
:10362000E3B13E4B1A7802F0FF0332BB3C4A1278FA
:10363000402742B33B4A127843F0200189B2002A66
:103640004BD0394E3278002A60D043F0A803374877
:1036500099B203F0D1FA37B3402520E003F0FF021E
:10366000334B32481A604FF4F47103F0C3FA00226E
:10367000304B9A6384F31088F8BD294A12780027EA
:103680004023002AD6D1274A127847F02005BAB93C
:10369000254E32784ABB47F0A805002B39D1234884
:1036A000294603F0A7FA3378002BE0D0224B1B68A1
:1036B000002BDCD1214B1B78002BD8D13A22D7E745
:1036C000194E3278DAB943F0800145F0080589B225
:1036D000ADB2164803F090FAE1E7134E337813B910
:1036E00047F08805F5E73D460B4643F008030F48D1
:1036F00045F0800599B2ADB203F07EFACFE743F012
:1037000088030A4899B203F077FAC8E73D460B46AA
:10371000D9E74021DDE700BFB359002011000020A8
:10372000B159002010000020B0590020000C0140C9
:10373000A459002000040040AC590020B2590020D8
:1037400038B5EFF3108472B61C4803F01BF9404201
:10375000C0F30800FFF71CFF84F31088184B1949C9
:1037600000221A70184B0A681A60184A0868184B29
:1037700010601B68013B3F2B1CD8164A1648127874
:103780000078164D0C682978120442EA0062144849
:10379000007841EA04410243124C1348247800782F
:1037A00041EA042142EA0022104C114844F8231057
:1037B00040F82320BDE83840FFF72CBF1C00024032
:1037C000B259002044110020A05900209C5900202B
:1037D0002C110020110F0020120F0020F0040020F7
:1037E000100F0020F1040020F2040020141000202B
:1037F000140F00202DE9F84F3C4A3D4BD2F804A0AD
:103800001B78804689461BB13A4A1368013313601E
:10381000394EDFF8E8B000233370394BDBF8001085
:1038200083F80080374B83F80090374B1B7809EB07
:1038300048001BB1354B1B6883422FD0FEF788FE32
:10384000334F0024DBF800003D6800EB042001F05A
:10385000BFFA28530234242CF4D12E4A234B126889
:103860002D48012131702D495B68A1FB0212920C99
:103870002B49A3EB0A03B3FBF2F32A4A0360126855
:103880000B6829485C1C48EA092803F03F0348EA12
:1038900002420C6040F82320BDE8F88F234B244FF0
:1038A0001C78084684F00104224904EBC40401EBAF
:1038B00084214FF4105208F021FD154B07EB8407CB
:1038C0001D6807F1200C3C460FCC644505F110053E
:1038D00007F1100745F8100C45F80C1C45F8082CAA
:1038E00045F8043CEFD138682860B6E7001000E0E6
:1038F0004811002018110020491100200C00002060
:103900000600002005000020501100204C1100206E
:1039100008000020480000203411002083DE1B43F3
:103920000C0E002044110020100E00205111002028
:10393000541100209C110020F0B5FE2883B00C46E5
:1039400048D040F202239A4205D0364A1368013328
:10395000136003B0F0BD084601F03AFAB4F8005223
:103960006DBAABB28342F0D12F4B1B78002B4ED0F7
:103970002E4F3E68112E4AD82D4B2E4A1B781278B6
:103980009A4249D12C4B2D4A1B7812789A4243D146
:103990002B4B1B78002B3FD02A4B186821464FF445
:1039A000007200EB462008F0A9FC274B274A1B6851
:1039B00023F81650264B01211970137859181170ED
:1039C0000BB9244B1E70244A1368013601333E6044
:1039D0001360BEE7052ABCD90B6820480822CDE950
:1039E000000369464FF6FF7001F0DCF9A3885BBA6B
:1039F0009BB28342ADD1A378013BDAB2112AA8D899
:103A000017490A480A780360531C0B70A1E7154A4E
:103A10001368013313609CE7134A13680133136082
:103A200097E700BF24110020F2040020EC040020DE
:103A300006000020F104002005000020F004002012
:103A4000491100200C00002008000020110F002068
:103A500048110020100F002028110020A1A1A1FE74
:103A6000120F0020201100201411002008B50F4A69
:103A700013785BB283420ED10D49FF2313700B689C
:103A80000C4A01330B6013782BB10B4B1B7813B12D
:103A90000A4B1B6803B108BD09484FF4807103F05D
:103AA000ABF8084B03221A6008BD00BF04000020D9
:103AB00040110020B3590020B0590020AC5900201B
:103AC000000C0140A459002010B5FEF757FD18B9AD
:103AD0000F4A1368013313600E4A0F4B11681B68BD
:103AE0000E4C0F48226801F0010C1B0443EA0C2322
:103AF000C1F347010B4302F03F0C0A4943F4004372
:103B00000132226041F82C300023037010BD00BF49
:103B10001C1100204C110020441100200C0E00202C
:103B200050110020100E00202DE9F843344B354C85
:103B30005E688046237843B1FEF72EFD0028F9D059
:103B4000FFF7C2FF2378002BF6D12F48037883F0CC
:103B50000102EFF3108972B62C492D4F02EBC2051A
:103B600007EB850701EB8525B8F1000F2CD102701A
:103B7000284A82F80080284A03EBC303156001EB52
:103B80008325264B1F60264B00221A7089F310886C
:103B9000244A254B1B78107800EB4300234B294621
:103BA000186001232370FEF7DBFC214A144B1268D6
:103BB00020495B682048A1FB02129B1B920CB3FBBF
:103BC000F2F30360BDE8F883134B4FF41052196809
:103BD000284608F093FB114BBE461F6807F12008EA
:103BE00038687968BA68FB68F446ACE80F001037AB
:103BF0004745E646F4D13868CCF80000C3E700BF7B
:103C0000001000E050110020511100209C110020F4
:103C100054110020491100200C0000200800002051
:103C20004811002005000020060000204C11002053
:103C30004800002083DE1B43301100202DE9F04FA7
:103C40003C4C3D4D237887B08B468DF808302B785F
:103C50008DF80930394B1B680393394B1B6804936B
:103C6000384B1B78002B54D003F0FF02364B1B78E7
:103C700003F0FF01002B4ED1344F354E3C78DFF876
:103C8000D4808DF81420A0F1020900F5FF7A0025F8
:103C90000AE03068DCB24300002833603C7005F174
:103CA000010530DB082D25D0631E002CF1D10DF16C
:103CB0000703D8F800100DF1060202A801F0B6F8CB
:103CC000254A9DF807109DF8060001F0D3F8D8F8B2
:103CD000003043F2D3020133934284BF1F4BC8F834
:103CE00000404FEA004094BFC8F8003083F800B0AD
:103CF0000F24D0E740F27F4329F8023FCA45C6D1DE
:103D000007B0BDE8F08F05EBC5031B01013B9BB27B
:103D1000F2E70122B0E7124B1A7823789A4201D0D9
:103D20000A46A9E70F4B1A782B78D21A18BF01223E
:103D3000A2E700BFB5590020B45900200C000020B4
:103D40000800002012000020491100200009002076
:103D50000409002008090020FC08002004000020BD
:103D6000060000200500002010B54FF4806002F02E
:103D700055FE012807D04FF4007002F04FFE0128D5
:103D8000044613D010BD04464FF4806002F056FE86
:103D90002046FFF76BFE0C480021FFF74FFF4FF462
:103DA000007002F03BFE01280446EBD14FF4007096
:103DB00002F044FE0020FFF759FE21460348BDE80B
:103DC0001040FFF73BBF00BF0C0900200C0B002088
:103DD00008B5402002F022FE012814D0202002F075
:103DE0001DFE012800D008BD202002F027FE124B46
:103DF0001B7803F0FF02D3B9104B9B689B0544BFAF
:103E00000F4B1A6008BD402002F018FE0A4B1B78C9
:103E100043B90A4B9B689A05E0D5094B4FF4807271
:103E20001A60DBE74FF48070FFF7B2FBD6E7BDE81E
:103E300008400020FFF7ACBBB2590020000C014045
:103E4000F8040020F8B54FF4007002F071FE594BF1
:103E50009C6814F400740CD1574B1B784BB1574B32
:103E60001A7832B1564A12781AB9564E327842B19F
:103E7000F8BD544B1B78002BFAD0BDE8F840FFF793
:103E80005FBC514A514914701B78514A0C70FF2194
:103E9000117003EA0102002B72D04E4B1B7803F025
:103EA000FF02002B6CD04C4B4C4A1978127891428F
:103EB0004B4977D0224618784A4B09781A704A4BFA
:103EC00018704A4B1970EFF3108772B6484802F029
:103ED00059FDC0F50075FF2D55D84FF4007002F064
:103EE0009DFD002814BF4FF480724FF400724148CA
:103EF0004149C5F30803013530F813300133A1FB04
:103F000003C3954204EB5314F3D33C4AA309A2FB29
:103F100003233B4A9B0902FB13443A4B1A68002ACD
:103F20003ED01201384B36491B78CB1A87F31088E4
:103F30001B1B324813449A09A0FB0202920901FBA1
:103F400012331B099A3342F64362934298BF2F4AB9
:103F50002F4898BFA2FB03232E4A94BF9B094FF022
:103F6000FF33136000F0C2FF2B4A012300211170C0
:103F70003370FFF74FFB294A136801331360F8BD14
:103F8000154B174997E74FF4806002F047FD002872
:103F900014BF4FF400724FF440729542A7D3BCE7B0
:103FA000174ABFE71E480A780078121AB2FA82F25E
:103FB000520980E7000C0140B35900201200002094
:103FC000B1590020B2590020120F0020110F00201B
:103FD000100F00204911002006000020B5590020D4
:103FE00005000020F2040020F1040020F00400206D
:103FF000300002400C090020398EE338632D3E0565
:10400000400D030008090020000900207B52E6183B
:10401000D4020020EC040020F30400202C11002026
:10402000B459002038B5022002F082FD1F4B1B78E6
:10403000002B2DD01E4B1B7853BB1E4B1E4C9D6876
:10404000237815F0010524D14F2B29D923781B495A
:104050001B4AB3FA83F35B090B701A4B00211170F2
:1040600011221A60FFF7D6FA174B1A683F2A0CD8AC
:104070001649086821781C682A0241EA004182F446
:10408000807213480A4340F824201A6801321A60EB
:1040900038BD002BDAD02378013BDBB22370D5E7A3
:1040A00023780133DBB22370D0E700BFB35900207F
:1040B000B2590020000C0140B55900201100002029
:1040C00010000020AC5900203C11002044110020B9
:1040D0000C0D002038B5012002F02AFD1F4B204AAC
:1040E0009B68117803F0010383F00100814225D021
:1040F00083B11C4B1C491D481C68046000230B70D5
:104100001B490B6013701B4B1B780BBBBDE8384081
:10411000FFF780BA1848134D0168134C0131016054
:10412000124928680860124923704FF4F070012387
:1041300008601370BDE83840FFF76CBA5FFA81FC85
:1041400082F800C0002BE1D00A4B1B78002BDDD099
:10415000FFF7F6FABDE83840FFF75CBA0008014007
:10416000B359002044110020B05900209C59002070
:10417000A8590020B259002038110020194A08B56A
:10418000136801331360FEF795F8174B1A681AB1DC
:104190001A68013A1A60BAB1144B1A681AB11A684F
:1041A000013A1A606AB1124B1A684AB11A68013AA8
:1041B0001A602AB90F4B1B7813B10F4B1B784BB900
:1041C00008BDFFF727FAEEE70C484FF4807102F0C4
:1041D00011FDE1E70A4B01221A70BDE80840FFF724
:1041E00019BA00BF44110020A4590020AC59002086
:1041F000A8590020B359002012000020000C0140F3
:10420000B05900202DE9F043B2488BB0012102F0F3
:104210003EFAB148012102F03AFA01214FF4C010F0
:1042200002F035FA0121AD4802F0E8FC05A802F0E1
:10423000D9FC182240F20313A948ADF8192005A9AA
:10424000059302F07BFC40F21123A648059305A9D3
:1042500002F074FCA3484FF4F47102F0CBFCA24AC4
:10426000A0484FF4F47305A9CDE9053202F066FCCD
:1042700000210846FFF7BEFA9C4B9D4A1B68A2FB33
:1042800003239B09013BB3F1807F0AD24FF0E02268
:1042900098495361F02081F82300072300219161A0
:1042A00013619548DFF83882944F012102F0EFF94D
:1042B00001214FF4A01002F0EAF903A802F092FCE9
:1042C00080230024039303A94FF484734046ADF880
:1042D00012308DF8104002F031FC21463846FFF7CD
:1042E000ADFC07F500700121FFF7A8FC22463988D4
:1042F000834802F0BFFD2146814802F0C2FD012142
:104300007F4802F04CFE01A8012502F0A3FD06261D
:1043100001AA7B488DF8075002218DF809508DF8CD
:10432000046002F0B3FD22467548022102F027FE28
:104330002A460221724802F037FE724802F0FCFA67
:1043400005A802F089FB704B0697059303276F4B76
:104350006C4807934FF0013905A9CDF821908DF8ED
:10436000257002F080FB39466948472202F01AFBAB
:104370002A463146634802F008FB224621460D20BA
:1043800002F092FC29465F4802F007FB2A465C488F
:104390004FF4807102F0ABFE2946594802F055FDFA
:1043A00029465C4802F073F922465B495B4800F0FD
:1043B000A3FD22465A484FF6FF7102F05BFD2146ED
:1043C000574802F05EFD03A802F04DFD2246554B12
:1043D0005348039303A902F001FE534802F0ACFADC
:1043E00005A802F039FB514B0593514B069305A9E3
:1043F0004FF000734C480793CDF821908DF825704D
:1044000002F031FB42483822022102F0CBFA2A4660
:104410003146454802F0B9FA224621460C2002F006
:1044200043FC2946404802F0B8FA2A463C484FF47B
:10443000007102F05CFE2946394802F006FDD8F80A
:1044400008303C4ADB432B4013701378A3423A4BAD
:104450000CBF22464FF4F0721A60FFF7DBF82946D2
:104460004FF4C01002F013F92146204602F0E2FB9F
:104470002946204602F0DEFB0921284602F0DAFB3D
:1044800005A802F021FB40F20123069305A84FF492
:104490008173ADF81C308DF8144002F01BFB022331
:1044A00005A806938DF81C4002F014FB224629460D
:1044B000304602F0F9FB22462946072002F0F4FBC1
:1044C00022462946172002F0EFFB1C4B1D700BB053
:1044D000BDE8F0830200180003001800020310304A
:1044E00000080140000C01400004100248000020B8
:1044F000D34D621000ED00E001001C000C0900200B
:1045000000040040300002402C0400401000000273
:10451000000002400B00180039390008D4020020C6
:10452000002C0140000101001C000240342C01401D
:10453000FC040020B3590020A85900204A11002093
:1045400070B52D4C237843B92C4B2D4A9B68C3F38F
:10455000001383F00103DBB213702A4D2B78002B7C
:104560002AD1294B1B780BB92378FBB12378E3B907
:10457000264B1B78CBB1264B2149264A1B780C7859
:1045800012789A42DEB2E4B208D0234B1B78D3B93A
:1045900021463046BDE87040FFF72CB91F4B1B7811
:1045A000A342F2D11C4B1B78B3B970BD2B78002B02
:1045B000DCD1FEF721F9D9E7FDF7EEFF0028D0D0D6
:1045C000FFF782FACDE70020FFF7AEFA214630462A
:1045D000BDE87040FFF70EB92B78002BE5D1104BEA
:1045E000104A1B6812689B1A642BDED9BDE8704024
:1045F0000120FFF799BA00BFB2590020000C01401A
:10460000B459002050110020B3590020120000209E
:10461000B5590020060000204811002005000020A8
:1046200044110020A05900202DE9F84F294D2A4FB0
:10463000D5F80080DFF8A490DFF8A4A0294E044646
:1046400007E00CB1A047F8B94AF6AA233360FFF798
:1046500077FFEFF3108B72B63B7863B999F80030AF
:1046600040F2DB5203F0FF012BB92B68DAF80000AF
:104670001B1A93420BD88BF310882B6843F69822B1
:10468000A3EB08039342DCD90020BDE8F88F16485D
:10469000164B0170164A1970164B012414701960DC
:1046A000FEF7B8FF8BF31088134B1B7873B9134CCC
:1046B000237843B1FDF770FF0028F9D0FFF704FA23
:1046C0002378002BF6D10120BDE8F88F2046FFF7B4
:1046D0002BFAECE744110020B3590020B259002016
:1046E0009C5900200030004012000020B0590020EA
:1046F00010000020A859002048110020501100206F
:1047000010B40D4C0D480E490E4A4FF0000C84F8C1
:1047100000C001234FF0FF0C80F800C00B70107830
:1047200009490A4A10BC00280CBF00204FF4F07061
:1047300008601370FEF76EBF4911002006000020CC
:1047400010000020B3590020A859002012000020BA
:1047500004480549054A002303700B701360FEF7F7
:1047600059BF00BF12000020B0590020A8590020F6
:104770000B4B1B783BB10B4B1B7803F0FF0063B96D
:10478000094B1B7853B9094B09481B7883F0010387
:1047900003EBC30300EB832070470020704700BF8A
:1047A0004A11002012000020501100205111002059
:1047B0009C110020BFF34F8F0549064BCA6802F4D5
:1047C000E0621343CB60BFF34F8F00BFFDE700BF34
:1047D00000ED00E00400FA0510B504460120FDF7E5
:1047E0005BFDA04704460020FDF756FD144B154A1B
:1047F0001C601368072C03F101031360124B0CD1EA
:104800004FF4C8721A600323104AD35C104A136035
:10481000104B01221A70204610BD082C04D14FF411
:104820007A721A600423EFE750221A602CB1231F1A
:10483000DBB2042BE8D90C23E8E72346E6E700BF08
:10484000D4590020D059002014000020E2C30008F1
:10485000C8590020C45900202DE9F04F9F4BA04AB1
:104860008BB09A60BFF34F8F6B469E4A403B4FF030
:10487000A5319A42C0F083809B4B99494FF4803216
:104880001A609A4B9A4A1A449A4BD21A22F003029F
:10489000002000F073FE984B1860FEF7E1F903204A
:1048A00002F038FAFDF718FD0121944801F0EFFEFF
:1048B00005A802F097F94FF4C073059300239048C0
:1048C0008DF81A3005A918238DF8193002F036F941
:1048D0008C4B8D4A596A11605A6A42F080725A6252
:1048E000FDF76AFD00F0CCFB00F0C6FD074600288E
:1048F00048D1FFF787FCFFF72BFF00F0C9FE834C80
:10490000834D142200210DEB020007F0A7FC4FF0AD
:104910000008D4F80090CDF80880C3467D4B4AF6D5
:10492000AA221A60FFF70CFE00F0EEFE2368029A3E
:104930009B1AB3F57A7F11D323680293002007F006
:10494000EBFC033020F003000023C158B1F1A53F78
:104950001A4603F10403F8D06F4B1A606F4BD3F87B
:1049600000A02B68022B14D16D4B9A4511D1002069
:10497000FFF75AFE08B1FDF795FFFFF71BFF42F85E
:10498000041B76E701F082FDFDF7BAFFFFF73AFC62
:10499000B3E72B68012B08D1624B634918684FF4C9
:1049A000007200F0EBFB00232B6000F0B3FE5F4BC6
:1049B0000646186020B9BBF1000F01D001F040F9A4
:1049C0002B68052B13D1564B9A4510D1584B1A68BA
:1049D000002A0ADD1A68B2F5007F06DC1A6822B1E7
:1049E000504B5149186800F08FFC00232B602B6856
:1049F000042B05D02B68032B20D1494B9A451DD1A0
:104A00004C4BDFF82CB14B49002283F84320286837
:104A1000C31E58425841434B1A68DBF80030B3F5C7
:104A2000007FD4BFDBF800304FF4007300933E4B9F
:104A300001F0C0FC0023CBF800002B60FDF7B4FCB4
:104A40008346002023684B452DD19DF824B0D845DE
:104A500006D00390BBF1000F2ED0FDF703FC0398A6
:104A60002F4B9A45344B0CD11A68012A1A6808BF9B
:104A70000220022A1A6808BF0120032A08BF4FF447
:104A8000807000221A60002F60D0022817D12B48B6
:104A9000FFF7A2FED4F80090FDF786FC014605A8BA
:104AA000FEF7CEF852E009F101090028CAD15946B3
:104AB00005A8FEF78BF8C5E7FDF7DCFBCFE701287B
:104AC00001D11F48E4E7B0F5807F3DD11D48FFF7D5
:104AD00083FE0028DED1FDF7CDFB4EE700ED00E0C0
:104AE00000200008646D0020DC590020BBAA0000F3
:104AF0006400002000000020345C00200400180046
:104B00000010014000100240385C002044110020D9
:104B1000285C002000300040B85900203C5C002098
:104B20003412FE5A2C5C0020245A0020CC5900205C
:104B3000245C0020E0590020D85900204D5C00087A
:104B40001D5F00088D6100080028A3D1FDF71CFD42
:104B50001D4B18601D4B1A7822B100221A701C4B95
:104B600022681A60DFF86C80D8F80030CBB1184AA0
:104B7000236811685B1A002B0DDB174B1B680B4475
:104B80001360FDF77FFBD8F80030013BC8F8003018
:104B90000BB9FDF76FFB0120D846FDF751FBB3467B
:104BA000BCE65FB90D4A236811685B1A002BF2DB83
:104BB000236864331360FDF765FBECE7FDF7E4FC65
:104BC0000028EFD1E7E700BF305C0020C459002087
:104BD000C0590020C859002014000020BC590020F2
:104BE00038B50368027941EA4301044601601AB30B
:104BF00083790133DBB20F2B1CD90023012A837187
:104C00002DD0B0F808E00EF1010292B2028189B213
:104C10000E2041FA00FC0CF0010C02384CEA430370
:104C2000851CDBB2F5D1A6448EF80C306389934223
:104C30000CD038BD837138BD89B244F289439942A2
:104C4000F7D140F201138380827138BDD4E98453D7
:104C5000E07904F10C01A8470023237138BD88B224
:104C600044F28942904265791AD089B20E2241FA03
:104C700002F000F00100023A40EA4303901CDBB26C
:104C8000F5D1002DE8D0FE2B0DD0FB2BE4D140F266
:104C9000022102220020E37122712081618138BD4E
:104CA0000135657138BD0621F3E700BF30B5923993
:104CB00042F64364A14283B045D8374CA4FB014C73
:104CC0004FEA9C1C40F2922404FB1C110B2932D9A0
:104CD000A1F12C040B2C2ED90E2938D9A1F1380EB4
:104CE000BEF1020F33D9152929D82C4B0088009327
:104CF0000CF1010C02231329ADF804008DF806C055
:104D00008DF8073037D9264D6C460DF1070C44F26B
:104D10003B4314F8010F80EA13201B0235F8100002
:104D20009BB2A44583EA0003F3D1142908BF1B0AF0
:104D3000DBB2137001E00023137003B030BD40F20A
:104D400011239C420BD94E23137003B030BDA12117
:104D50001170027B82F001021A7003B030BD3B2952
:104D600016D0B1F50F7F0BD3836833F81C3008BF22
:104D70001B0A1370E1E7694411F80C3C1370DCE77F
:104D8000436803EB4C230B4413F83C3C1370D4E70B
:104D9000FB231370D1E700BF7B52E618A1A1A1FE4F
:104DA000ECC300088AB110B40139084C0A4411F868
:104DB00001CF8CEA102C030234F81C009BB2914204
:104DC00080EA0300F3D110BC70477047ECC30008C1
:104DD000144A154910B54FF0440C8646D41C44F2D1
:104DE0003B4012F8013F83EA0C03000231F8133014
:104DF00080B25840030AA2429C46F2D10EF1FF3223
:104E00000EF2FF1E00E0030A12F801CF83EA0C0342
:104E1000000231F8133080B2724580EA0300F2D10B
:104E200010BD00BFE8C30008ECC3000870B59129AD
:104E30004FF000061E7011D89E46A1F150030F2BB3
:104E400010D85B2914D95F290FD0C2231370037BBC
:104E500083F001035B008EF8003070BDBDE8704048
:104E6000FFF724BF4E23137070BDFC23137070BD79
:104E7000167070BD012984462AD002292ED01168EF
:104E8000430843EAC1130343DB43DBB200B540F6FA
:104E90000F714CEA0C1E43EA03130B4001EA0E01AA
:104EA00043F2333043EA830341EA81010340014086
:104EB0000D4843EA430300EA430041EA410145F259
:104EC000555319400CF00103084313605DF804FBCF
:104ED0000CF0010344F28940136070470CF00103A9
:104EE00045F2242013607047AAAAFFFF0023036045
:104EF00083808371836070470023C0E9841203605C
:104F0000838083718360704738B58B1E022B054602
:104F10000CD84C1E00212846FFF762FE013CF9D157
:104F200028460121BDE83840FFF75ABE00238380A0
:104F300083710360836038BD38B5104C054601E0CD
:104F4000013C18D00E48022101F079FF0028F7D06B
:104F50000B480A4C294601F06DFF01E0013C0AD0E4
:104F60000748012101F06BFF0028F7D0044801F049
:104F700063FFC0B238BDFF2038BD00BF40420F0004
:104F80000038004038B50E4D01E0013D13D04FF41C
:104F900080510C4801F030FE0520FFF7CDFF0020C6
:104FA000FFF7CAFF4FF480510446064801F022FE85
:104FB000E307EAD438BD044B01221A7038BD00BFA4
:104FC00080841E00000C0140405C002038B504467F
:104FD0000D4616484FF4805101F00EFE0620FFF7F3
:104FE000ABFF12484FF4805101F004FE4FF48051A2
:104FF0000E4801F001FE0220FFF79EFFC4F30740B8
:10500000FFF79AFFC4F30720FFF796FFE0B2FFF720
:1050100093FF2846FFF790FF04484FF4805101F0BA
:10502000E9FDBDE83840FFF7ADBF00BF000C01400F
:10503000014B1878704700BF405C002070B54FF4FA
:1050400080510E4801F0D8FD9F20FFF775FF00202A
:10505000FFF772FF06460020FFF76EFF04460020B0
:10506000FFF76AFF240205464FF48051034844EAE3
:10507000064401F0BFFD44EA050070BD000C01408C
:1050800010B5374882B0012101F001FB01213548FC
:1050900001F0FDFA684601F0A5FD334B33484FF4AB
:1050A00080546946CDE9004301F048FD21462F4870
:1050B00001F0A0FD4FF42042082369462B480092DE
:1050C0008DF8063001F03AFD4FF48042182369460E
:1050D00026480092ADF8053001F030FD684601F039
:1050E0002BFE234B009369464FF0807321480193B8
:1050F00001F02DFE1F48012101F092FE1D48012103
:1051000001F093FE2146194801F076FD0620FFF7D5
:1051100013FF2146154801F06DFD2146134801F0AB
:105120006BFD5020FFF708FF2146104801F062FD9B
:1051300021460E4801F060FD0120FFF7FDFE002032
:10514000FFF7FAFE2146094801F054FDFFF776FF0C
:10515000094BC01AB0FA80F0400902B010BD00BF80
:10516000030018000E001C0000041002000C014097
:1051700000010100003800404125BF0070B5154610
:1051800006460C46FFF7FEFE4FF48051104801F032
:1051900033FD0320FFF7D0FEC6F30740FFF7CCFE38
:1051A000C6F30720FFF7C8FEF0B2FFF7C5FE3DB11A
:1051B00025440020FFF7C0FE04F8010BA542F8D1FA
:1051C000BDE8704002484FF4805101F013BD00BFAC
:1051D000000C014010B50446FFF7D4FE4FF4805197
:1051E000124801F009FD0620FFF7A6FE0F484FF414
:1051F000805101F0FFFC4FF480510C4801F0FCFCA1
:105200002020FFF799FEC4F30740FFF795FEC4F393
:105210000720FFF791FEE0B2FFF78EFEBDE81040D9
:1052200002484FF4805101F0E5BC00BF000C014082
:1052300010B54FF48051094801F0DEFC0520FFF75E
:105240007BFE0020FFF778FE4FF4805104460348B0
:1052500001F0D0FC04F0010010BD00BF000C0140C3
:1052600010B50446FFF78EFE4FF48051134801F04D
:10527000C3FC0620FFF760FE10484FF4805101F098
:10528000B9FC4FF480510D4801F0B6FC2020FFF727
:1052900053FEC4F30740FFF74FFEC4F30720FFF7A8
:1052A0004BFEE0B2FFF748FE04484FF4805101F096
:1052B000A1FCBDE81040FFF765BE00BF000C014037
:1052C00008B5FFF75FFE4FF480510E4801F094FCE3
:1052D0000620FFF731FE0B484FF4805101F08AFCA5
:1052E0004FF48051074801F087FC6020FFF724FE4F
:1052F00004484FF4805101F07DFCBDE80840FFF701
:1053000041BE00BF000C01402DE9F047164607469C
:105310000D46FFF737FE002E00F09780FB0700F1E7
:105320009680012E00F089802B78FF2B03D16B78BB
:10533000FF2B00F09B802C46AE464FF0000C4FF048
:10534000010908E0B6EB430F0CF1010C0EF1020E5F
:10535000C0F08780994615F81C2009F10103FF2A47
:105360004FEA4302EED19EF80110FF29F046E9D141
:105370004FEA4C0AE1464FF480513E4801F03CFCB4
:105380000620FFF7D9FD3B484FF4805101F032FC75
:105390004FF48051374801F02FFCAD20FFF7CCFDD2
:1053A000C7F30740FFF7C8FDC7F30720FFF7C4FDA9
:1053B000F8B2FFF7C1FD2878FFF7BEFD6878FFF768
:1053C000BBFD2C484FF4805101F014FCFFF7DAFDCF
:1053D000B9F1010F1AD9023D05EB49054FF480518F
:1053E000244801F009FCAD20FFF7A6FDA078FFF7E7
:1053F000A3FDE078FFF7A0FD02341E484FF4805172
:1054000001F0F8FBFFF7BEFDA542E7D14FF4805154
:10541000184801F0F1FB0420FFF78EFD15484FF40A
:10542000805101F0E7FBFFF7ADFD5744A6EB0A06FC
:105430004546012E3FF678AF3EB12978FF2904D0CA
:105440003846BDE8F047FFF7C1BDBDE8F0872978D1
:10545000FF2902D03846FFF7B9FD013E013701357B
:10546000E7E7A2F1020A05EB0A0884E702370235F2
:10547000023EDEE7000C014030B589B0FFF7DEFDEB
:105480003B4B984262D10DF10F02002383F0A5013E
:105490000133102B02F8011FF8D13648FFF7E0FE68
:1054A000FFF770FD4FF48051334801F0A5FB032056
:1054B000FFF742FD1F20FFF73FFDF020FFF73CFD07
:1054C0000020FFF739FD6C4604AD0020FFF734FDE6
:1054D00004F8010BAC42F8D127484FF4805101F099
:1054E00089FB6B4613F8012BFF2A2FD19D42F9D17E
:1054F000102220482946FFF707FFFFF743FD4FF42E
:1055000080511D4801F078FB0320FFF715FD1F2097
:10551000FFF712FDF020FFF70FFD0020FFF70CFD55
:105520006C460020FFF708FD04F8010BAC42F8D1EF
:1055300011484FF4805101F05DFB009A23689A42B4
:1055400007D0012080F0010009B030BD002009B073
:1055500030BD019A059B9A42F3D1029A069B9A426A
:10556000EFD1039A079B9A42EBD10020EAE700BFF4
:105570004125BF0000F01F00000C014010B50B4C8E
:10558000C0430A44914201D1C04310BD11F8013B10
:10559000584000F00F0354F8233083EA101303F04F
:1055A0000F0054F8200080EA1310EBE7ECC5000868
:1055B00070B515490822054606F040FE0646F8B9C2
:1055C00008221249A81806F039FE0446D0B92B6902
:1055D000012B12D12C222946FFF7D0FFEB6A98420B
:1055E0000BD1AB694CF6F862A3F10801914204D8E3
:1055F00003F00303B3FA83F4640904F0010070BDFF
:105600000024FAE73446F8E796C300089FC3000871
:105610000368024603F160400138B0F5004F12D232
:1056200013F003000FD1536813F001020DD0084AA4
:1056300093420BD901F1006101F50051994294BFE9
:10564000002001207047002070471046704700BFBF
:105650000020000800207047014B002018707047A0
:10566000415C00200020704700207047024B01225F
:105670001A700020704700BF415C00200020704776
:10568000FCF7DEBD014803F05AB900BF445C0020BE
:105690001FB50121164800F0FAFF02A801F0A2FA96
:1056A0004FF4C053002402A9029312488DF80C4015
:1056B0004FF48473ADF80E3001F040FA204601F04B
:1056C00029F9052001F034F80B48012100F0DFFF33
:1056D00022460221432001F0E7FA084B00932246BC
:1056E000074B0848012101F01DFF04B010BD00BFA9
:1056F00002001800000801400C00140018000020EF
:1057000050000020445C0020014802F025BA00BF90
:10571000485C0020054B1B7803F0FF002BB1044BC5
:10572000D3F8A804003818BF01207047415C00205E
:10573000445C002008B5FFF7EDFF38B1044BD3F807
:10574000400118B1006908B1D0F8A00008BD00BF41
:10575000445C0020014608B5034803F031FD0038E1
:1057600018BF012008BD00BF485C0020FFF7F2BF52
:10577000F7B50E461146089A0746501843F1000542
:1057800000230124834274EB050512D3FFF7D2FFF7
:10579000B0F5007F0FD1094B4AF6AA2018600848DF
:1057A0000097334603F052FD003818BF012003B0C4
:1057B000F0BD0420FBE72046F9E700BF00300040C1
:1057C000485C0020F7B50E461146089A0746501867
:1057D00043F1000500230124834274EB050512D335
:1057E000FFF7A8FFB0F5007F0FD1094B4AF6AA20BA
:1057F000186008480097334603F070FD003818BF62
:10580000012003B0F0BD0420FBE72046F9E700BF0C
:1058100000300040485C0020081E18BF01208000B6
:105820007047000038B5134C207868B9124D2B88AA
:1058300053B1124B1A6842B1114A12681B689A425E
:1058400003D301232370207838BDFCF7ADFD2B88EE
:1058500018400C4B0CD01A680B4922B90A6842F068
:1058600001021A60EFE70B689B1A312BE9D8EAE7CF
:105870001860E8E7A8630020B0630020B46300204C
:10588000D0670020AC630020441100202DE9F347CD
:10589000304FDFF8C480D7F800A00AF589510646DA
:1058A00001221831404605F051FC002846D1D8E9C4
:1058B00004237569B689834208BFAA420CBF01243C
:1058C0000024012C3FD105B11EB9B5FA85F4640955
:1058D00039E0B5F5007FA94628BF4FF40079FFF7FE
:1058E000A1FF70BB31465046FDF7BCFC396801F69C
:1058F0003451FCF701FE396801AB4A4601F63871B4
:10590000404605F05DFD0446A8B9019B4B450AD110
:1059100038684A4600F6387100F6345006F08EFCBE
:10592000B0FA80F4640931465046FDF76EFCA5EBF1
:1059300009050646C5E74FF0FF34F4E74FF0FF34A2
:1059400004E04FF0FF34044805F083FF204602B026
:10595000BDE8F087B8640020186500202DE9F04FFD
:10596000414FD7F8009009F58951CBB00546062282
:105970003E48183105F0EAFB0446002872D1D5F8FC
:105980001480AE89DFF8E8A0B8F1000F01D0002E36
:105990002FD1364805F05DFF3E6806F5895618366A
:1059A000002855D1002C54D1B8F1000F58D14FF434
:1059B0009072214602A806F051FCEB89ADF8103038
:1059C00002A92B8AADF81230304606F0E7F92846D6
:1059D000FFF75CFF01283FD0386800F58950183088
:1059E00006F0CCF8234B1B78002B0CBF05240824B1
:1059F00032E0B8F5007FC34628BF4FF4007BFFF7C5
:105A000011FF08BB31464846FDF72CFC396801F60A
:105A10003451FCF771FD3968144801AB5A4601F660
:105A2000345105F088FD88B9019A5A450ED1DAF84B
:105A30000030314613444846A8EB0208CAF800304B
:105A4000FDF7E3FB06469FE70824A2E70224A0E750
:105A50000224304606F092F820464BB0BDE8F08FA5
:105A60000324F6E70224F7E7B86400201865002055
:105A7000D0670020A863002008B5FFF74BFE88B16F
:105A8000FFF758FEB0F5007F01D0072008BD06499A
:105A90000648012205F038FB0028F7D00D28F4D085
:105AA0000220F3E70120F1E7A8C300087865002091
:105AB00070B50023CC5C202C03D0C4540133082BD8
:105AC000F8D102B35F25632AC55403F1010410D94C
:105AD0006425B2FBF5F5303505559C1C0A25B2FB53
:105AE000F5F3B3FBF5F605FB1633303303550134FC
:105AF00001E0092AF2D80A25B2FBF5F605FB1622C9
:105B000030320255631C0A7A202A0ED02E22C2544B
:105B1000C4181D1D0731013311F8012F202A04D0AC
:105B20000133AB4204F8012FF6D10022C25470BDFC
:105B3000F0B5013810F8013F0E46BBB1A3F14104A6
:105B400011F8012BE4B2192C98BF03F12005A2F142
:105B5000410794BFEDB21D46192F9CBF2032D2B22F
:105B6000AA42E7D0192C9CBF2033DBB23078A0F1D9
:105B70004102192A9CBF2030C0B2181AF0BD0000A3
:105B800070B52749274805F06AFF0446002845D12B
:105B9000254D2549234805F0AEFF58B1214805F0B1
:105BA000A1FF204670BD204920484FF4907206F0B6
:105BB000A5FB31E0AA7E002AF0D02B7B13F016065D
:105BC000E7D12E2AE5D01A491A48FFF7B1FF00287D
:105BD000DFD0D5E900231849914276EB0303D8D3EF
:105BE000144B6A7B1549A3F10D06002A08BF1E4617
:105BF0003046FFF79DFF0028CBDD002CD3D00B49AA
:105C00004B7B01F11A020D31002B08BF11463046C3
:105C1000FFF78EFF0028C6DB0124BAE70024C0E7A7
:105C2000ABC30008C06400206861002088620020C7
:105C3000B2C3000882610020003E1600B863002055
:105C4000014B00221A707047B86300202DE9F04F15
:105C5000A44A00238FB01360A34A1360FFF70CFF20
:105C6000044660B9FFF78CFF68B9A04B1C70FFF7C2
:105C700087FF40B922469E4905F046FA0424204693
:105C80000FB0BDE8F08F9B4ADFF86CA2DFF86CB272
:105C90009B48022313800023CAF800308BF80030A1
:105CA000FEF7C2FC054658B99149024605F02CFAA8
:105CB000904BCAF800501D808BF800500624DEE798
:105CC000FEF756FD8F4F89493860054600F5915023
:105CD0000E3006F00BFBFCF7C5FD8B498B4E2846BA
:105CE000FDF7F0F806F11A09727B894B002A08BF0C
:105CF0004B46002105AA18460393FDF7A3FBB0B954
:105D00004FF00108039805AA4146FDF79BFB0028C8
:105D100059D108F10108B8F1640FF3D1737B7C49C4
:105D20007248002B08BF494606F0E0FA46E005A994
:105D30002846FDF772FB0028E2D131682846FDF7BE
:105D4000D0F800284DD03B68724903F638784046B9
:105D500006F0CCFA727B6E4B4046002A0CBF4946D7
:105D6000194606F083FA316804AA2846FDF7CBF8F5
:105D7000002855D068480122414605F0E7F900287F
:105D80004ED1D6F80080B8F1000F23D1624805F05B
:105D900060FD738900933389326805A92846FDF7B1
:105DA000CBF8727B5A4B5148002A0CBF4946194622
:105DB00006F09CFA4C4A136801331360FFF7E0FECB
:105DC000002891D10DE005A92846FDF726FB002803
:105DD0009FD1B2E7FFF726FD90B14F4805F039FD9E
:105DE00008242846FDF7F8F8002C45D0FCF750FDB4
:105DF00039683E4801F591510E3106F077FA5FE0BF
:105E00003968454801F6345108AB4FF4007205F08B
:105E1000D7FA014608B9089B23B93F4805F019FD98
:105E20000224DEE73A68049802F63452FCF778FB65
:105E300004983968431C01F638710493FCF75CFB45
:105E40003868089A039200F6345100F6387006F06C
:105E5000F5F9039A20B1304805F0FBFC0524C0E7B2
:105E600020490B68424598BFA8EB02081A4488BF36
:105E7000A8EB08080A6086E73E682349B5F80E805B
:105E80003046FDF71FF950BBFCF702FD0524AFE7D4
:105E90000D9DBDF82C1005F2FF156D0A2A463046FF
:105EA000FDF779FA8542EFD809F1010908A93046D2
:105EB000FDF76BF90028EBD1C145E5D1FCF7E8FC13
:105EC000002210460A4905F01FF9FEF719FC094A9D
:105ED00000231380CAF800308BF80030CFE6A146CB
:105EE000E4E700BFD0670020D4670020B86300203B
:105EF000A8C30008B0630020AC630020A8630020A2
:105F000025580008B86400205CC30008886200209F
:105F100095620020ABC30008186500202DE9F04F02
:105F2000904ADFF844B28BB000231360CBF8003006
:105F3000FFF7A2FD0446A0B98C4A8D4D01231380C2
:105F40008C4B287018608C48FEF76EFB68B92246AF
:105F50008A4905F0D9F8854B2C701C80854B1C6054
:105F6000062420460BB0BDE8F08FFEF701FC844FFD
:105F7000844938608046FDF7A5F8002800F0E680E7
:105F80003D68814905F58950183006F0AFF905F5EF
:105F90008053032205F58E5083F826221630FDF734
:105FA00065F9A2462546FFF73DFC88B108246F4BF2
:105FB000724900221A806F4B1A606D4B10461A709E
:105FC00005F0A2F80CB9FCF76DFCFEF799FBC8E7E9
:105FD0003E6802900A2303FB05F9721941F2262359
:105FE00009F58E511631D35C019304AA3144404621
:105FF000FDF753F9029B50B94E4441F2DE13F35CB6
:10600000002B18BF0324013DD1D3A246CBE79DF856
:106010001B6016F010064FD0062D00F395801A462F
:1060200041F238163B6803EB060ACDE90223019BD7
:1060300004A90AEB0300FFF73BFD039B504603F660
:10604000387105F07CFD20BB3B68029A93F8443F11
:1060500013F0100F2BD03E6841F2381A06EB0A00FD
:10606000FCF7A0F8431C30442F2200F80A20F21855
:106070000021013502F80A10711941F2262240462A
:106080008B5409F58F51BDF81C203144FDF7F3F80E
:10609000BBE7042805D13868304405F0C9FD002865
:1060A000D9D0334B1B78002B80D102247FE70132FB
:1060B000B2F57A7FB6D1F4E7099CBDF81C1004F262
:1060C000FF14640A22464046FDF765F984423FD832
:1060D0002B4C2368029303F58959019B09F1180998
:1060E00009EB0300324604A9FFF7E2FC029B484695
:1060F00003F6387105F023FD04282CD00028D0D1F8
:10610000236893F8441F11F0100104D00136B6F54E
:106110007A7FDED1C5E7D3F8382F099803F5746389
:1061200053F8043C8B4208BF8242EFD104A8FFF72A
:10613000ADFB431CB5D00128E8D1DBF800300133BA
:10614000CBF80030544660E703245EE703242EE7D3
:106150004FF0030AF6E704A8FFF700FC0446002806
:10616000EBD024E7D0670020D4670020B063002084
:10617000A8630020AC63002025580008A8C30008CD
:10618000B86400205CC30008ABC300082DE9F047E9
:10619000DFF80482814D8EB00023C8F800302B60F8
:1061A000FFF76AFC0446064680B9DFF8F4917D49A2
:1061B0000122484604F0CAFF044658B17A493246E3
:1061C000304604F0A1FF042C18BF022420460EB074
:1061D000BDE8F0876B46302202A9484605F0F0F88A
:1061E000044648B103246E4805F033FB00226E4993
:1061F000104604F089FFE9E7009B302BF2D102A89A
:10620000FFF7D6F90028EDD0D9E90412089B303306
:10621000A24208BF9942E5D12046FEF705FA0028C0
:1062200000F0B780FEF7A4FA604EA2463060089FE7
:10623000A74226D8099B9A454AD15D4F4FF4F914DD
:10624000204604F58054FFF70BF8BC42F8D15448BF
:106250003022002305F00CFB0446002840F0978014
:106260008146089F4F4535D84FF00008C146089F2A
:10627000474555D8099B99456ED00524FEF740FA4D
:10628000B1E73F1BB7F5007F316828BF4FF40077B7
:1062900001AB3A4601F63451484605F091F8002822
:1062A00075D1019B9F4272D154B1316850463A4634
:1062B00001F63451FFF762F9019B82461C44B6E7B0
:1062C0003068089900F63450FFF7A2F90028ECD1A5
:1062D0000324D3E7A7EB0907B7F5007F31683048FF
:1062E00028BF4FF4007701AB3A4601F6345105F070
:1062F00067F800284BD1019B9F4248D1316809F5CE
:10630000F9103A4601F6345100F58070FEF7FCFFB3
:10631000D8F800303B44C8F80030019B9944A0E70E
:10632000A7EB0807B7F5007F316828BF4FF4007767
:1063300008F5F9103A4601F6387100F58070FEF75D
:106340001DFF316848463A4601F63871FFF716F9E5
:1063500008F5007881468AE7302202A94FF4F91047
:10636000FEF7D2FF3168302201F638714FF4F91090
:10637000FEF704FF3068302202A900F6387005F0FD
:106380005DFF00287FF479AF01232B602BE7022407
:1063900074E7062427E700BFD0670020D4670020F9
:1063A00018650020AFC30008A8C30008B864002027
:1063B00000F01F002DE9F04192B00C460646002186
:1063C00017461D4640222D4B019302A8DDF8608040
:1063D00005F044FF002320460093FBF7E3FE40282E
:1063E00040D8214601A805F041FFFFF793F90028A6
:1063F0003BD023492348012204F086FE002837D1F0
:106400005EB3002F0CBF0A2202221F4801A904F02C
:106410009DFE0446B8B903463A461B4805F028FAE3
:10642000044638B918486B4642462946BEB105F0C5
:1064300082F80446144805F00CFA20B1012C2046DD
:1064400038BF0120C4B200220D49104604F05CFEA2
:106450008CB9009812B0BDE8F0810122D5E704F0B4
:10646000AFFFE6E76FF00300F4E74FF0FF30F1E72E
:106470006FF00100EEE76FF00200EBE7303A2F001B
:10648000A8C30008786500201865002000B58DB00D
:106490004FF4F91030226946FEF770FE6846FFF7A8
:1064A00087F858B1069A07490020FFF767F8079B5D
:1064B000984203D14FF4F910FEF7D2FE0DB05DF80B
:1064C00004FB00BF002000081A4B1B49DA6942F0A8
:1064D0008052DA6191F8502042F0040281F8502095
:1064E000DA6922F08052DA611A6842F001021A6019
:1064F0001A689207FCD55A6822F003025A605A685B
:1065000012F00C0FC2F38101F9D11A6822F08672E1
:1065100022F480321A6041F610725960DA624FF448
:1065200080121A634FF41F029A60044B4FF000620E
:106530009A607047001002400070004000ED00E0DB
:1065400038B500F04BF9294C18B1022814D028486E
:1065500009E0636D9A05FAD5236B264813F0007F96
:10656000234B08BF18466368234AC3F30313D35C65
:10657000D840224B186038BD6368E26A002AC3F332
:10658000004318DB6068626812F0C04FC0F38340BC
:10659000C2F3417101D10F2806D1013000EB011087
:1065A00023B9174B5843DEE70230F9E763689B03D2
:1065B000F7D40F4BF6E7E56AE06AE26AC5F3031524
:1065C000C0F3082002F0070273B163680C4913F4AA
:1065D000003F074B08BF194605FA02F20023A1FB52
:1065E0000001FBF7C5FDBEE70549F5E700100240D5
:1065F00000127A00006CDC022CC600084800002063
:1066000000093D00114B1A6842F001021A601A6835
:106610009207FCD55A6822F003025A605A6812F0B9
:106620000C0FC2F38101F9D11A6822F0867222F4AC
:1066300080321A6041F610725960DA624FF48012AB
:106640001A634FF41F029A60704700BF00100240A7
:10665000030C03F1804303F5043300F01F001A68B4
:106660000123834093430CBF01200020704708B5ED
:1066700043F201011120FFF7EBFF012804D1BDE82F
:1066800008401120FFF7E4BF0139F3D1F7E7030C0D
:1066900003F1804303F50433012900F01F0019685A
:1066A0004FF0010202FA00F20CBF0A4321EA020293
:1066B0001A60704704281FD8DFE800F003090E13A2
:1066C00019000E4B1A6861F300021A6070470B4BF9
:1066D0001A6861F31042F8E7084B1A6861F3186210
:1066E000F3E7064B1A6A61F300021A627047034B24
:1066F0005A6A61F300025A62704700BF00100240FC
:10670000024B5A6860F307125A607047001002404B
:10671000024B5A6860F30A225A6070470010024028
:10672000024B5A6860F3CD225A6070470010024055
:10673000054B5A6860F397525A605A68C0F380005C
:1067400060F3DB625A60704700100240144B5A68D5
:10675000B0B960F310425A601A6B42F000721A63CB
:1067600000205A6861F395425A605A68C1F30111DA
:1067700061F35E725A60DA6A60F31A62DA62704735
:1067800042F480325A6001285A6804D122F400325F
:106790005A600220E5E742F400325A60E0E700BFA9
:1067A000001002400C4B5A6860F301025A6000BFAF
:1067B00000BF00BF00BF00BF00BF00BF00BF00BFE1
:1067C00000BF00BF00BF00BF00BF00BF00BF00BFD1
:1067D00000BF00BF00BF704700100240024B586866
:1067E000C0F38100704700BF0010024070B53B4D00
:1067F0006B6813F00C0F0446C3F3810203D0022A26
:1068000031D0374809E06B6D9A05FAD52B6B3448C7
:1068100013F0007F334B18BF184620606B68324A74
:106820003249C3F30313D35C20FA03F363606A684D
:10683000C2F302228A5C2E4923FA02F2E2606A68FD
:10684000C2F3C2228A5CD340A36069686A68C1F35C
:106850000071C2F3813242EA810226498A5CB3FBAD
:10686000F2F3236170BD6B68EA6A002AC3F3004348
:1068700018DB68686A6812F0C04FC0F38340C2F347
:10688000417101D10F2806D1013000EB011023B96D
:10689000194B5843C1E70230F9E76B689B03F7D403
:1068A0000F4BF6E7EE6AE86AEA6AC6F30316C0F32E
:1068B000082002F0070273B16B680F4913F4003F20
:1068C000074B08BF194606FA02F20023A1FB00019C
:1068D000FBF74EFCA1E70849F5E700BF00100240B6
:1068E00000127A00006CDC024CC6000844C60008A6
:1068F00044C600083CC6000800093D00044B5A6D20
:1069000001280CBF42F0300222F030025A65704775
:10691000001002400128074B07D11A6B42F00072A9
:106920001A635A6D42F400725A655A6D60F3082278
:106930005A65704700100240036823F001030360AA
:106940000023036043608360C36040F2FF43034061
:10695000B3F5816F0CD2094A5168C0B214230838CC
:10696000B0FBF3F00F23800083400B43536070476C
:10697000B3F5916FFBD2024AEEE700BF0000024080
:1069800000040240406880B27047036812B10B43B4
:106990000360704723EA0103FAE7036861F3000329
:1069A00003607047D0F8A430DB0158BFD0F8A430A2
:1069B00001F1FF315CBF43F08073C0F8A4300629B9
:1069C00021D8DFE801F0040B10151A212600D0F8B9
:1069D000A03062F30703C0F8A0307047D0F8A030B1
:1069E00062F30F23F7E7D0F8A03062F31743F2E722
:1069F000D0F8A03062F31F63EDE7D0F8A43062F363
:106A00000703C0F8A4307047D0F8A43062F30F2316
:106A1000F7E7D0F8A43062F31743F2E7B0F1805FF4
:106A20008CBF044B044B1B681840003818BF012072
:106A3000704700BF0004024000000240B0F1805FD8
:106A40008ABF034B034B20F070405860704700BF73
:106A500000040240000002400023C0E90033C0E906
:106A6000023303827047036823F4804323F010034A
:106A70001B041B0C036002680B891343036003684B
:106A80004A7C62F30D3303600368CA7B62F38B2395
:106A9000036003688A7B62F30923036003684A7B0F
:106AA00062F3C71303600A7B036862F38613036013
:106AB0000A7C036862F3451303604B8943600B68EB
:106AC00083604B68C36070470023436001230381E8
:106AD00003707047154B426810B51C6824EA020425
:106AE0001C605C6824EA02045C60447AD1437CB197
:106AF000047874B91C6814431C609C680C409C604A
:106B0000DC682140D960017A39B999680A439A60F2
:106B100010BD5C6814435C60EFE701291EBF9968F3
:106B200011439960D9680A43DA60F1E70004014033
:106B3000014B5861704700BF00040140F0B58C79EB
:106B40000A68032C95B24AD0002C3DD14B79182B02
:106B500002D10561082303E0282B32D003F00F0394
:106B6000D1B2A9B1002492B20F2742FA04F1C907A9
:106B70000BD50668A10007FA01FC26EA0C060660A0
:106B8000066803FA01F1314301600134082CECD1AD
:106B9000FF2D15D92D0A00210F2645FA01F2D20743
:106BA0000BD544688A0006FA02F724EA0704446019
:106BB000446803FA02F22243426001310829ECD111
:106BC000F0BD93B24361C5E70B79C97903F00403C3
:106BD00004F00804234301F003010B43C0E7002342
:106BE000BEE70000024B4FF6FF72C0E9002370477A
:106BF000000400010161704741617047C0F3072242
:106C000030B5C2F12002C0F30744121B4FF0FF332E
:106C10009340D340020E02F1804202F58032E340FD
:106C20001568A34025EA030311B1C0B2A040034395
:106C3000136030BD01F003039B000F22890810B5DB
:106C40009A4003290DD8DFE801F0020D18231549F9
:106C50008C6824EA02028A608A6800FA03F313430C
:106C60008B6010BD0F49CC6824EA0202CA60CA6872
:106C700000FA03F31343CB60F3E70A490C6924EAF3
:106C800002020A610A6900FA03F313430B61E8E7A1
:106C900004494C6924EA02024A614A699840104357
:106CA0004861DEE700000140174B30B5DC68C4F3F3
:106CB0000224C4F10703251D042B28BF0423062D3D
:106CC0004FF0FF358CBF033C002405FA03F321EAA3
:106CD0000303A540A34022EA050213431B01002839
:106CE000DBB20CDB094A111881F80033012341099A
:106CF00000F01F0003FA00F042F8210030BD044A02
:106D000000F00F001354F9E700ED00E000E100E0AF
:106D100014ED00E00749CA6822F4E062030212049D
:106D200003F4E063120C134343F0BF6343F40033F6
:106D3000CB60704700ED00E0002303704370837068
:106D4000C3700371437183710123C3717047C369B9
:106D500023F40063C3610B78032B1BD8DFE803F037
:106D6000020E5054036823F400430360036823F4C5
:106D700080430360036823F480630AE0036823F41C
:106D800000430360036823F480430360036843F413
:106D900080630360CB79026863F3492202604A781A
:106DA000012A39D1012B37D1036843F48073036082
:106DB000036862F3820303608B7803F00702072BFA
:106DC00043688CBF43F4807323F48073436003688B
:106DD00062F3C50303600368CA7862F3C7130360F4
:106DE00003680A7962F3CB2303604A79036862F38C
:106DF000410303608A79036862F30003036070470C
:106E0000036843F40043B0E7036843F400430360BE
:106E1000036843F48043ACE7036823F48073C6E758
:106E2000036861F3082303607047036861F3861306
:106E300003607047C1607047C06880B27047806867
:106E40000840003818BF01207047036861F3000351
:106E5000036070470023037043708370C370037135
:106E60004371837170470023012203704370827065
